:020000040800F2
:10000000B00600209D010008CD1C00086317000801
:10001000C91C0008A9020008CD3900080000000032
:10002000000000000000000000000000D11C0008DB
:10003000AD02000800000000CF1C0008D51C00081D
:10004000B7010008B7010008B7010008B7010008B0
:10005000B7010008B7010008B7010008B7010008A0
:10006000B7010008B7010008B7010008B701000890
:10007000B7010008B7010008B7010008B701000880
:10008000B7010008B7010008B7010008B701000870
:10009000B7010008B7010008B7010008B701000860
:1000A000B7010008B7010008B7010008B701000850
:1000B000B7010008B7010008B7010008B701000840
:1000C000B7010008B7010008B7010008B701000830
:1000D000B701000895390008B7010008B70100080A
:1000E000B7010008B7010008B7010008B701000810
:1000F000B7010008B7010008B7010008B701000800
:10010000B7010008B7010008B7010008B7010008EF
:10011000B7010008B7010008B7010008E133000883
:10012000B7010008B7010008B7010008B7010008CF
:10013000B7010008B7010008B7010008B7010008BF
:10014000B7010008B7010008B7010008B7010008AF
:10015000B7010008B7010008B7010008B70100089F
:10016000B7010008B7010008B7010008B70100088F
:10017000B7010008B7010008B7010008000000003F
:10018000B7010008B7010008DFF80CD000F07AF8DA
:1001900000480047B93A0008B006002006488047EA
:1001A00006480047FEE7FEE7FEE7FEE7FEE7FEE75C
:1001B000FEE7FEE7FEE7FEE7DD1D00088901000817
:1001C0002DE9F05F0546002092469B46884606468C
:1001D000814640241BE0284641464746224600F01F
:1001E00041F853465A46C01A914110D31146184659
:1001F000224600F028F82D1A67EB01084F462246E8
:100200000120002100F01FF817EB00094E41201ECD
:10021000A4F10104DFDC484631462A464346BDE8E6
:10022000F09FD2B201E000F8012B491EFBD27047CB
:100230000022F6E710B513460A4604461946FFF7B2
:10024000F0FF204610BD202A04DB203A00FA02F11C
:10025000002070479140C2F1200320FA03F31943B4
:1002600090407047202A04DB203A21FA02F0002156
:10027000704721FA02F3D040C2F1200291400843B6
:1002800019467047064C074D06E0E06840F0010350
:1002900094E8070098471034AC42F6D3FFF778FF94
:1002A000FC5400081C55000800BFFEE7704770476B
:1002B00070B504461D460023B5F5804F13D154F8A0
:1002C00022300C480340D1E9000640EA06108E684F
:1002D00040EA06208E8940EA06408E693043034397
:1002E00044F8223003E06FF0704044F82200002010
:1002F00070BD00000000F0CF10B503460022086872
:1003000053F8202012480240D1E901042043CC6870
:1003100020430C6920434C6920438C692043CC69FD
:1003200020430C6A20434C6A20438C6A2043CC6AE9
:100330002043CC6B20430C6B204302438868082881
:1003400001D142F04002086843F82020002010BD8F
:100350008000F0FF30B503460024501C53F82040C5
:1003600004F04044D1E9000540EA05108D6840EAF8
:1003700005208D8940EA0545088A401E45EA00555A
:10038000087D801E45EA00608D6928430443501CA7
:1003900043F82040002030BD03467AB9012B06D136
:1003A00009B1032901D1012016E0022014E009B1AE
:1003B000032901D100200FE003200DE033B909B17A
:1003C000032901D1012007E0022005E009B103293A
:1003D00001D1002000E003207047014691F835006C
:1003E000022803D08020486501207047052081F84D
:1003F00035000868006820F001000A6810600020DD
:10040000F3E7000000B587B0142102A8FFF710FF42
:100410002A48006808B107B000BD012027490860DC
:1004200000BF002001902648006840F001002449E8
:1004300008600846006800F00100019000BF00BF9E
:10044000881402900220039000200490032005905D
:100450000C20069002A91B4800F03CF84FF6807073
:1004600002900220039000200490032005900C20AD
:10047000069002A9144800F02DF84CF23370029057
:100480000220039000200490032005900C20069089
:1004900002A90E4800F01EF84FF48050029002208E
:1004A000039000200490032005900C20069002A9E0
:1004B000074800F00FF800BFADE700000000002083
:1004C000383802400014024000100240000C024084
:1004D00000180240F8B502460B4600250024002013
:1004E0000021DCE0012606FA01F51E6806EA050493
:1004F000AC4273D15E68022E02D05E68122E13D118
:10050000CF0802F1200656F827004E07F70E0F26F7
:10051000BE40B0434F07FF0E1E69BE403043CF08B8
:1005200002F1200646F8270010684F000326BE405F
:10053000B0431E7906F003064F00BE403043106002
:100540005E68012E08D05E68022E05D05E68112E0E
:1005500002D05E68122E13D190684F000326BE4071
:10056000B0434F00DE68BE403043906050680126C3
:100570008E40B0431E79C6F300168E403043506063
:10058000D0684F000326BE40B0434F009E68BE4077
:100590003043D0605E6806F08056B6F1805F7DD152
:1005A00000BF00260096404E366846F480463E4F17
:1005B0003E603E46366806F48046009600BF00BFA7
:1005C0003A4E8F0856F827008E07370F0F26BE4089
:1005D000B043374EB24202D1002624E05EE0354EF1
:1005E000B24201D101261EE0334EB24201D10226B1
:1005F00019E0324EB24201D1032614E0304EB2422D
:1006000001D104260FE02F4EB24201D105260AE0A7
:100610002D4EB24201D1062605E02C4EB24201D148
:10062000072600E008268F073F0FBE4030431F4ECD
:100630008F0846F82700264E3068A0435E6806F40F
:100640008036B6F5803F00D12043214E3060361D04
:100650003068A0435E6806F40036B6F5003F00D16E
:1006600020431B4E361D3060361D3068A0435E6847
:1006700006F48016B6F5801F00D12043144E0836CC
:100680003060361D3068A0435E6806F40016B6F58B
:10069000001F00D120430E4E0C363060491C10293B
:1006A000FFF420AFF8BD0000443802400838014094
:1006B000000002400004024000080240000C02401A
:1006C000001002400014024000180240001C0240CA
:1006D000003C0140024613690B400BB1012000E0D1
:1006E000002070470AB1816101E00B04836170470B
:1006F00001480068704700000800002003480068B7
:10070000034909780844014908607047080000203F
:100710001000002010B50D48006840F400700B492F
:1007200008600846006840F4806008600846006879
:1007300040F480700860032000F0A2F8002000F070
:1007400007F800F02BF8002010BD0000003C02402C
:1007500070B504460E4800784FF47A71B1FBF0F0A2
:100760000C490968B1FBF0F5284600F044FC08B1DB
:10077000012070BD102C07D200222146501E00F02F
:1007800041F80548046001E00120F2E70020F0E7AD
:1007900010000020140000200C00002008B500BF4D
:1007A000002000900E48006840F480400C4908602A
:1007B0000846006800F48040009000BF00BF00BF02
:1007C00000200090081F006840F08050091F08605A
:1007D0000846006800F08050009000BF00BF08BDD0
:1007E0004438024001460846002809DB00F01F0398
:1007F00001229A4043099B0003F1E023C3F8002142
:1008000000BF70472DE9F05F80460D461646002771
:1008100003F0DEF8074639462A46334601F0070062
:10082000C0F1070ABAF1040F02D94FF0040A01E03F
:10083000C0F1070AD14600F1040ABAF1070F02D24B
:100840004FF0000A01E0A0F1030AD4464FF0010A7C
:100850000AFA09FAAAF1010A0AEA020A0AFA0CFAE1
:100860004FF0010B0BFA0CFBABF1010B0BEA030B86
:100870004AEA0B042146404603F0B2F8BDE8F09F77
:1008800000BF00F00702064B19684FF6FF0319403E
:10089000044B0B4343EA0221014B196000BF704730
:1008A0000CED00E00000FA0570B504460D460CB9E9
:1008B000012070BD5848006800F00F00A84209D21E
:1008C00055490D700846006800F00F00A84201D09D
:1008D0000120EEE7207800F0020002281DD12078E8
:1008E00000F00400042805D14C48006840F4E050B2
:1008F0004A490860207800F00800082805D14748D8
:10090000006840F46040454908604448006820F0B1
:10091000F000A168084341490860207800F0010018
:10092000A8B36068012807D13C4808380068C0F3C4
:100930004040B8B90120BCE76068022802D0606876
:10094000032807D1354808380068C0F3406048B92B
:100950000120AEE7314808380068C0F3400008B90C
:100960000120A6E72D48006820F0030061680843D5
:100970002A490860FFF7BCFE064609E0FFF7B8FE0B
:10098000801B41F28831884202D9032091E707E0B9
:100990002248006800F00C006168B0EB810FEDD1D7
:1009A0001D48006800F00F00A84209D91A490D70CF
:1009B0000846006800F00F00A84201D0012078E747
:1009C000207800F00400042807D11448006820F4BF
:1009D000E050E168084311490860207800F0080001
:1009E000082808D10D48006820F46040216940EAD9
:1009F000C1000A49086000F03DF808490968C1F3E0
:100A00000311074A515CC840064908600020FFF7FF
:100A10009FFE00204DE70000003C024008380240E5
:100A2000243D0008140000200148006870470000C1
:100A30001400002000B5FFF7F7FF04490968C1F36F
:100A40008221034A515CC84000BD000008380240C2
:100A5000343D000800B5FFF7E7FF04490968C1F31A
:100A60004231034A515CC84000BD000008380240D2
:100A7000343D00082DE9F047002400250026A1465A
:100A80002548006800F00C0020B1042805D0082893
:100A90003AD105E0DFF8849039E0DFF8849036E061
:100AA0001D48001F006800F03F041B48001F00683D
:100AB00000F4800078B11A481749091F0968C1F38A
:100AC0008811A0FB01700146224600233846FFF73B
:100AD00077FB05460EE011480F49091F0968C1F36D
:100AE0008811A0FB01700146224600233846FFF71B
:100AF00067FB05460848001F0068C0F30140401C22
:100B00004600B5FBF6F902E0DFF8109000BF00BF29
:100B10004846BDE8F0870000083802400024F40091
:100B200000127A00F8B504460CB90120F8BD20780F
:100B300000F00100002874D0F948006800F00C00B3
:100B400004280DD0F648006800F00C00082813D1E6
:100B5000F348001F006800F48000B0F5800F0BD14F
:100B6000EF4808380068C0F34040002859D060685A
:100B7000002856D10120D9E700BF6068B0F5803F5A
:100B800008D1E7480838006840F48030E449083963
:100B900008601EE06068B0F5A02F0DD1E04808386D
:100BA000006840F48020DE49083908600846006883
:100BB00040F4803008600CE0D9480838006820F420
:100BC0008030D749083908600846006820F4802042
:100BD000086000BF606890B1FFF78AFD054606E037
:100BE000FFF786FD401B642801D903209EE7CC480F
:100BF00008380068C0F340400028F1D011E0FFF74A
:100C000077FD054606E0FFF773FD401B642801D918
:100C100003208BE7C24808380068C0F34040002832
:100C2000F1D1207800F0020002285FD1BC480068B2
:100C300000F00C0058B1BA48006800F00C00082819
:100C40001CD1B748001F006800F48000B0B9B44858
:100C500008380068C0F3400020B1E068012801D0E6
:100C6000012063E7AE480838006820F0F8002169E9
:100C700040EAC100AA490839086037E0E06800B3DB
:100C80000120A8490860FFF733FD054606E0FFF79D
:100C90002FFD401B022801D9032047E7A048083850
:100CA0000068C0F340000028F1D09D480838006873
:100CB00020F0F800216940EAC1009949083908602C
:100CC00014E0002097490860FFF712FD054606E092
:100CD000FFF70EFD401B022801D9032026E79048AC
:100CE00008380068C0F340000028F1D1207800F0F7
:100CF000080008282CD16069A8B101208A49086041
:100D0000FFF7F6FC054606E0FFF7F2FC401B022861
:100D100001D903200AE782486C300068C0F3400024
:100D20000028F1D014E000207F490860FFF7E0FCC4
:100D3000054606E0FFF7DCFC401B022801D9032032
:100D4000F4E677486C300068C0F340000028F1D129
:100D5000207800F00400042870D100267048383054
:100D6000006800F0805090B900BF002000906C48EF
:100D70003830006840F080506949383108600846D2
:100D8000006800F08050009000BF00BF0126674857
:100D9000006800F48070B0B96448006840F4807066
:100DA00062490860FFF7A4FC054606E0FFF7A0FCD7
:100DB000401B022801D90320B8E65C48006800F413
:100DC00080700028F2D000BFA068012808D15448E4
:100DD0006830006840F001005149683108601DE04A
:100DE000A06805280DD14E486830006840F0040026
:100DF0004B49683108600846006840F0010008600F
:100E00000CE047486830006820F001004449683130
:100E100008600846006820F00400086000BFA06871
:100E2000A8B1FFF765FC054609E0FFF761FC401B30
:100E300041F28831884202D9032077E626E038481B
:100E400068300068C0F340000028EED013E0FFF7E0
:100E50004FFC054608E0FFF74BFC401B41F2883190
:100E6000884201D9032061E62D4868300068C0F34C
:100E700040000028EFD1012E07D129483830006802
:100E800020F0805026493831086000BFA069B8B30F
:100E90002348006800F00C0008285ED0A0690228F2
:100EA00046D100201F490866FFF722FC054606E0F0
:100EB000FFF71EFC401B022801D9032036E6184824
:100EC00008380068C0F340600028F1D1D4E9070178
:100ED0000843616A40EA81110122A06AC2EB500016
:100EE00041EA00412C20005D41EA00600C49091FE5
:100EF000086001200B490866FFF7FAFB054607E08A
:100F00002DE0FFF7F5FB401B022801D903200DE679
:100F1000034808380068C0F340600028F1D01EE0A4
:100F20000838024000004742800E474200700040EF
:100F300000200C490866FFF7DBFB054606E0FFF7DB
:100F4000D7FB401B022801D90320EFE506480068C3
:100F5000C0F340600028F2D101E00120E6E5002066
:100F6000E4E50000000047420038024070B5044646
:100F70000E4615460CB9012070BD94F8490028B9F9
:100F8000002084F84800204600F01CF804F1080115
:100F90002068FFF7B1F93146A2682068FFF7DAF957
:100FA0002946236BD4E90102FFF782F9A168206882
:100FB00050F8210040F00100A268216841F82200A9
:100FC0000020D9E710B50446FFF71CFA10BD04282D
:100FD00008D14FF0E021096941F004014FF0E0220F
:100FE000116107E04FF0E021096921F004014FF0A1
:100FF000E0221161704770B504462546681EB0F1C5
:10100000807F01D301200FE0681E4FF0E02148618E
:101010000F214FF0FF3002F0E3FC00204FF0E02101
:10102000886107200861002070BD7047704710B5C7
:10103000024600BF92F83C00012801D1022010BDF9
:10104000012082F83C0000BF022082F83D001068B9
:1010500043681068846823F070030868034324F031
:10106000800448680443106843601068846001206D
:1010700082F83D0000BF002082F83C0000BF00BFA6
:10108000DDE710B504460CB9012010BD94F83D0011
:1010900028B9002084F83C00204600F00DF802201A
:1010A00084F83D00211D206802F0A2F9012084F897
:1010B0003D000020E9E7000038B504460E492068ED
:1010C000884217D100BF002000900C48006840F013
:1010D00020000A4908600846006800F020000090DF
:1010E00000BF00BF002211463720FFF78BFB3720DF
:1010F000FFF778FB38BD0000001400404038024084
:1011000001460868C06840F001000B68D8600868B4
:10111000806800F00702062A05D00868006840F0E1
:1011200001000B68186000207047704710B5044636
:1011300020680069C0F34000D8B12068C068C0F3DF
:101140004000B0B16FF002002168086101202077F3
:101150002068806900F0030018B12046FFF7E5FF22
:1011600005E0204600F0ADF8204600F0ABF8002086
:10117000207720680069C0F38000D8B12068C0687B
:10118000C0F38000B0B16FF0040021680861022054
:1011900020772068806900F4407018B12046FFF77E
:1011A000C4FF05E0204600F08CF8204600F08AF8E5
:1011B0000020207720680069C0F3C000D8B1206803
:1011C000C068C0F3C000B0B16FF0080021680861CA
:1011D000042020772068C06900F0030018B1204681
:1011E000FFF7A3FF05E0204600F06BF8204600F073
:1011F00069F80020207720680069C0F30010D8B19A
:101200002068C068C0F30010B0B16FF01000216812
:101210000861082020772068C06900F4407018B188
:101220002046FFF782FF05E0204600F04AF82046FE
:1012300000F048F8002020772068006900F00100E5
:1012400058B12068C06800F0010030B16FF00100B3
:1012500021680861204600F037F820680069C0F373
:10126000C01058B12068C068C0F3C01030B16FF032
:101270008000216808612046FFF7D7FE20680069DA
:10128000C0F3801058B12068C068C0F3801030B13E
:101290006FF0400021680861204600F021F82068C6
:1012A0000069C0F3401058B12068C068C0F3401016
:1012B00030B16FF02000216808612046FFF7B6FECC
:1012C00010BD704770470000034A0168914202D187
:1012D0000121024A11707047001400401D000020D7
:1012E000704770472DE9F04704462068056820687C
:1012F000C668206847694FF00008C14605F00F082E
:10130000B8F1000F0AD105F0200038B106F0200036
:1013100020B1204602F002F9BDE8F087B8F1000FD5
:101320006ED007F0010018B906F49070002867D05D
:1013300005F0010030B106F4807018B1E06B40F0A8
:101340000100E06305F0040030B107F0010018B1BE
:10135000E06B40F00200E06305F0020030B107F0FE
:10136000010018B1E06B40F00400E06305F00800F4
:1013700030B107F0010018B1E06B40F00800E06305
:10138000E06B70B305F0200028B106F0200010B12A
:10139000204602F0C3F820684069C0F38019E06B72
:1013A00000F0080010B9B9F1000F23D0204602F078
:1013B00095F82068406900F04000402816D1206868
:1013C000406920F0400021684861606B50B11748C7
:1013D000616B0865606BFFF700F810B1606B016D21
:1013E00088470CE02046FFF77CFF08E02046FFF727
:1013F00078FF04E02046FFF774FF0020E0638BE7EE
:1014000005F0800030B106F0800018B1204602F0EF
:101410008DFA81E705F0400030B106F0400018B1C8
:10142000204602F06BF877E700BF75E7C934000883
:1014300010B504460CB9012010BDA06900B100E050
:1014400000BF94F8390028B9002084F838002046FD
:1014500000F028F8242084F839002068C06820F4BF
:1014600000502168C860204602F0ACF8206800698E
:1014700020F49040216808612068406920F02A002B
:10148000216848612068C06840F400502168C86045
:101490000020E063202084F8390084F83A0000201E
:1014A000CAE7000010B586B00446142101A8FEF773
:1014B000BFFE1F492068884238D100BF002000903D
:1014C0001C48006840F010001A490860084600688F
:1014D00000F01000009000BF00BF00BF002000908F
:1014E00014481438006840F00100124914390860AB
:1014F0000846006800F00100009000BF00BF4FF4F4
:10150000C06001900220029001200390032004900B
:101510000720059001A90848FEF7DCFF00221146CC
:101520002520FFF76FF92520FFF75CF906B010BD05
:1015300000100140443802400000024010B503464C
:1015400093F83A0020282FD101B10AB9012010BD2B
:1015500000BF93F83800012801D10220F7E70120ED
:1015600083F8380000BF99629A85DA850020D86335
:10157000222083F83A0000BF002083F8380000BF23
:101580001868C06840F480701C68E06018684069A2
:1015900040F001001C6860611868C06840F02000DD
:1015A0001C68E0600020D2E70220D0E770B5044656
:1015B0006549206888426FD1FFF79AF86349C1F8FE
:1015C00084010846D0F88801D1F88411884203D2FA
:1015D00000205E4981F883015C48D0F8840100F561
:1015E000FA705A49C1F88801084690F8830130B171
:1015F00001281DD0022837D0032870D14DE054486F
:101600000078A5280FD10020504981F8800150486A
:1016100001784E4890F880218030815401204B4958
:1016200081F8830103E00020484981F8830182E0CA
:10163000474800785A2812D1444890F88001401C4D
:10164000424981F8800142480178404890F8802161
:101650008030815402203D4981F8830103E000205D
:101660003A4981F8830166E0384890F88001401CCF
:10167000364981F8800136480178344890F8802155
:101680008030815432480078C01C304981F8810193
:10169000032081F883014EE054E02C4890F880014B
:1016A000401C2A4981F8800129480178274890F890
:1016B00080218030815426480078EE2831D123489B
:1016C00090F88001214991F88111884229D1214E59
:1016D000A6F1800500201D4981F8810111E025E077
:1016E0001A4890F8810155F82000184991F88111A5
:1016F00046F82100154890F88101401C134981F8F3
:101700008101124890F881014028E9DB01200F494E
:1017100081F882011049887000200C4981F883010A
:1017200003E00320094981F8830104E00020074910
:1017300081F8830100BF00BF012205490748FFF778
:10174000FDFE00BF70BD000000100140140100202C
:101750001C00002014020020FC0000206C0000206F
:10176000704700BFFEE7000010B507480078012869
:1017700008D1064800F04CF8044800F013F80020A7
:101780000149087010BD00001D000020A0020020CB
:101790000021017041708170C17081804181C180E0
:1017A000018170471CB50446207801280ED1002223
:1017B00041021048FEF796FF0FA018213223C822DD
:1017C000CDE900101946184602F040FA6078012869
:1017D0000ED1012241020748FEF784FF09A018211B
:1017E0003223C822CDE900106421184602F02EFAF7
:1017F0001CBD0000001402404C454431204F4E21D6
:101800000D0A00004C454431204F46210D0A0000CE
:1018100070B5044601211848FEF75CFF064625789E
:10182000002229463046FEF7B7FD207008211348F4
:10183000FEF750FF06466578012229463046FEF73E
:10184000ABFD607010210D48FEF744FF0646A578F9
:10185000012229463046FEF79FFDA070042107486B
:10186000FEF738FF0646E578012229463046FEF7A6
:1018700093FDE07070BD00000000024000100240C7
:1018800070B506460F484088401E83B20D48008858
:10189000401E82B20021084600F0A2F800240CE0AD
:1018A000002504E0304600F0E7F8681C85B20548E2
:1018B0004088A842F6DC601C84B202480088A0423E
:1018C000EEDC70BD2200002000B5024682B94FF464
:1018D000585000F0C5F8002000F0C8F84FF44870E8
:1018E0000C4948804FF4F0700880002088710FE0A8
:1018F0004FF4585000F0B4F8602000F0B7F84FF4FF
:10190000F070044948804FF44870088001208871C5
:1019100000BD00002200002000B587B0142102A8FD
:10192000FEF786FC00BF002001902548006840F0CB
:101930000100234908600846006800F0010001909A
:1019400000BF00BF88140290022003900120049081
:10195000022005900C20069002A91A48FEF7BAFD55
:101960004FF6807002900220039001200490022024
:1019700005900C20069002A91348FEF7ABFD4CF22F
:101980003370029002200390012004900220059001
:101990000C20069002A90D48FEF79CFD4FF48050E4
:1019A00002900220039001200490022005900C2058
:1019B000069002A90648FEF78DFD07B000BD0000A5
:1019C000383802400014024000100240000C02406F
:1019D0000018024001480088704700008000006C39
:1019E00030B504460D464FF4285000F039F8201267
:1019F00000F03CF842F6012000F032F8E0B200F0CE
:101A000035F842F6022000F02BF8101200F02EF804
:101A100042F6032000F024F8D0B200F027F84FF48B
:101A20002C5000F01DF8281200F020F842F601308A
:101A300000F016F8E8B200F019F842F6023000F0B3
:101A40000FF8181200F012F842F6033000F008F810
:101A5000D8B200F00BF84FF4305000F001F830BD70
:101A600001490880704700007E00006C0149088031
:101A7000704700008000006C01490880704700003A
:101A80008000006C00B58FB01C2108A8FEF7D0FBC9
:101A90001C2101A8FEF7CCFB4FF020402049086034
:101AA000204848600620886000211D48C16001610F
:101AB0001021416100218161C161016241624FF4E5
:101AC000805181620021C1624FF480410163002195
:101AD000416381634164032008900F200990042032
:101AE0000A9001200B9010200C9011200D900020E6
:101AF0000E9001900F20029004200390012004908A
:101B000010200590112006900020079001AA08A936
:101B10000348FFF72BFA08B1FEF7C9FB0FB000BD71
:101B2000AC000020040100A000B587B0142102A879
:101B3000FEF77EFB00BF002001904048006840F0A7
:101B400010003E4908600846006800F0100001904F
:101B500000BF00BF00BF002001900846006840F0B1
:101B6000200008600846006800F02000019000BFD7
:101B700000BF00BF002001900846006840F08000D0
:101B800008600846006800F08000019000BF00BFB8
:101B900000BF002001900846006840F00100086086
:101BA0000846006800F00100019000BF00BF00BFC0
:101BB000002001900846006840F0080008600846D0
:101BC000006800F00800019000BF00BF00BF0020C7
:101BD00001900846006840F0400008600846006830
:101BE00000F04000019000BF00BF01224FF4E0610F
:101BF0001348FEF777FD1C2002900020039001207F
:101C0000049002A90F48FEF765FC4FF4E0600290D3
:101C10000120039004900220059002A90848FEF7D5
:101C200059FC01200290002003900220049002A998
:101C30000548FEF74FFC07B000BD000030380240F9
:101C40000014024000100240000002401CB50020B9
:101C5000009001900C480D49086000204860002168
:101C60000A488160C1608161FFF70BFA08B1FEF795
:101C70001EFB00200090019069460448FFF7D7F949
:101C800008B1FEF714FB1CBD001400402C0000201E
:101C900010B50B480B4908604FF4E1304860002153
:101CA00008488160C16001610C21416100218161AE
:101CB000C161FFF7BDFB08B1FEF7F9FA10BD0000E6
:101CC000001001406C00002000BFFEE77047704725
:101CD0007047000010B5FEF711FD03488068401CF6
:101CE0000149886010BD0000FC00002010B50446CA
:101CF0000020FFF76CF9E11704EB5171C1F3C70144
:101D0000074A11701046007800EB4001C1EBC0108B
:101D10004FF6FF7101EAC0000249088010BD0000C3
:101D2000180000201A00002000B593B0302107A849
:101D3000FEF77EFA142102A8FEF77AFA00BF00200F
:101D400001902448006840F080502249086008460D
:101D5000006800F08050019000BF00BF00BF00206D
:101D600001901D48006840F480401B490860084607
:101D7000006800F48040019000BF00BF0120079080
:101D80000004089002200D9041050E9104210F914E
:101D9000A8211091022111910421129107A8FEF7A8
:101DA000C1FE08B1FEF783FA0F20029002200390D3
:101DB000002004904FF4A05005904FF480500690FE
:101DC000052102A8FEF770FD08B1FEF770FA13B006
:101DD00000BD000040380240007000401448006818
:101DE00040F47000124908601248006840F0010099
:101DF0001049086000200F49083108600D4800684C
:101E00000D4908400B4908600C48091D0860081F6F
:101E1000006820F48020091F0860002005490C316B
:101E200008604FF000600249803908607047000088
:101E300088ED00E000380240FFFFF6FE103000247D
:101E400010B5FFF769FD322001F0F3FD4FF45A4061
:101E5000FFF706FEFFF7BEFDFE4988804FF45B40AA
:101E6000FFF7FEFDFFF7B6FDFA4988800846808837
:101E70004FF6FF7101EA0020F64988804FF45C407C
:101E8000FFF7EEFDFFF7A6FDF24989880843F14907
:101E900088804FF47040FFF7E3FD5520FFF7E6FD23
:101EA0004FF20100FFF7DCFDAA20FFF7DFFD4FF244
:101EB0000200FFF7D5FD5220FFF7D8FD4FF20300D7
:101EC000FFF7CEFD0820FFF7D1FD4FF20400FFF72A
:101ED000C7FD0120FFF7CAFD4FF43040FFF7C0FDFA
:101EE0000020FFF7C3FD4BF20100FFF7B9FD002012
:101EF000FFF7BCFD4BF20200FFF7B2FD0020FFF739
:101F0000B5FD4FF43640FFF7ABFD3420FFF7AEFDD3
:101F10004BF20160FFF7A4FD3420FFF7A7FD4BF261
:101F20000260FFF79DFD3420FFF7A0FD4FF4314024
:101F3000FFF796FD0020FFF799FD4BF20110FFF728
:101F40008FFD0020FFF792FD4BF20210FFF788FD96
:101F50000020FFF78BFD4FF43740FFF781FD342061
:101F6000FFF784FD4BF20170FFF77AFD3420FFF795
:101F70007DFD4BF20270FFF773FD3420FFF776FD15
:101F80004FF43240FFF76CFD0020FFF76FFD4BF27E
:101F90000120FFF765FD0020FFF768FD4BF20220EE
:101FA000FFF75EFD0020FFF761FD4FF43840FFF7BB
:101FB00057FD0520FFF75AFD4BF60100FFF750FDD6
:101FC0000520FFF753FD4BF60200FFF749FD052002
:101FD000FFF74CFD4FF43F40FFF742FD0120FFF7B4
:101FE00045FD4FF43340FFF73BFD0F20FFF73EFD6B
:101FF0004BF20130FFF734FD0F20FFF737FD4BF2B6
:102000000230FFF72DFD0F20FFF730FD4FF4394070
:10201000FFF726FD2420FFF729FD4BF60110FFF7FF
:102020001FFD2420FFF722FD4BF60210FFF718FDDD
:102030002420FFF71BFD4FF43540FFF711FD08206A
:10204000FFF714FD4BF20150FFF70AFD0820FFF7E0
:102050000DFD4BF20250FFF703FD0820FFF706FDD0
:102060004FF43A40FFF7FCFC1420FFF7FFFC4BF65F
:102070000120FFF7F5FC1420FFF7F8FC4BF60220D7
:10208000FFF7EEFC1420FFF7F1FC4FF43C40FFF7A4
:10209000E7FC0020FFF7EAFC4BF60140FFF7E0FC0D
:1020A000BC20FFF7E3FC4BF60240FFF7D9FC002011
:1020B000FFF7DCFC4FF43D40FFF7D2FC0020FFF7B8
:1020C000D5FC4BF60150FFF7CBFCBC20FFF7CEFC54
:1020D0004BF60250FFF7C4FC0020FFF7C7FC4FF49B
:1020E0003E40FFF7BDFC0020FFF7C0FC4BF601604F
:1020F000FFF7B6FC2D20FFF7B9FC4FF45140FFF776
:10210000AFFC0020FFF7B2FC4DF20110FFF7A8FC76
:102110003720FFF7ABFC4DF20210FFF7A1FC0020C7
:10212000FFF7A4FC4DF20310FFF79AFC4920FFF7DC
:102130009DFC4DF20410FFF793FC0020FFF796FC86
:102140004DF20510FFF78CFC6B20FFF78FFC4DF272
:102150000610FFF785FC0020FFF788FC4DF2071002
:10216000FFF77EFC8620FFF781FC4DF20810FFF799
:1021700077FC0020FFF77AFC4DF20910FFF770FCA6
:102180009D20FFF773FC4DF20A10FFF769FC002059
:10219000FFF76CFC4DF20B10FFF762FCC320FFF75A
:1021A00065FC4DF20C10FFF75BFC0020FFF75EFCB6
:1021B0004DF20D10FFF754FCE020FFF757FC4DF2F5
:1021C0000E10FFF74DFC0120FFF750FC4DF20F10F1
:1021D000FFF746FC0D20FFF749FC4DF21010FFF70A
:1021E0003FFC0120FFF742FC4DF21110FFF738FCD5
:1021F0002F20FFF73BFC4DF21210FFF731FC0120BE
:10220000FFF734FC4DF21310FFF72AFC6120FFF7B3
:102210002DFC4DF21410FFF723FC0120FFF726FCE4
:102220004DF21510FFF71CFC8620FFF71FFC4DF246
:102230001610FFF715FC0120FFF718FC4DF21710E0
:10224000FFF70EFCBD20FFF711FC4DF21810FFF751
:1022500007FC01E0220000200120FFF707FC4DF2FF
:102260001910FFF7FDFBE720FFF700FC4DF21A10F5
:10227000FFF7F6FB0120FFF7F9FB4DF21B10FFF70C
:10228000EFFBE820FFF7F2FB4DF21C10FFF7E8FB35
:102290000220FFF7EBFB4DF21D10FFF7E1FB0C20D6
:1022A000FFF7E4FB4DF21E10FFF7DAFB0220FFF709
:1022B000DDFB4DF21F10FFF7D3FB3020FFF7D6FBFD
:1022C0004DF22010FFF7CCFB0220FFF7CFFB4DF2C1
:1022D0002110FFF7C5FB4520FFF7C8FB4DF2221088
:1022E000FFF7BEFB0220FFF7C1FB4DF22310FFF703
:1022F000B7FB6320FFF7BAFB4DF22410FFF7B0FBEA
:102300000220FFF7B3FB4DF22510FFF7A9FB7E205B
:10231000FFF7ACFB4DF22610FFF7A2FB0220FFF700
:10232000A5FB4DF22710FFF79BFBB120FFF79EFBAB
:102330004DF22810FFF794FB0220FFF797FB4DF2B8
:102340002910FFF78DFBE020FFF790FB4DF22A10DC
:10235000FFF786FB0320FFF789FB4DF22B10FFF7F9
:102360007FFB2620FFF782FB4DF22C10FFF778FB56
:102370000320FFF77BFB4DF22D10FFF771FB602070
:10238000FFF774FB4DF22E10FFF76AFB0320FFF7F7
:102390006DFB4DF22F10FFF763FBB420FFF766FBD8
:1023A0004DF23010FFF75CFB0320FFF75FFB4DF2AF
:1023B0003110FFF755FBB920FFF758FB4DF23210F3
:1023C000FFF74EFB0320FFF751FB4DF23310FFF7F1
:1023D00047FBC120FFF74AFB4FF45240FFF740FB99
:1023E0000020FFF743FB4DF20120FFF739FB3720B8
:1023F000FFF73CFB4DF20220FFF732FB0020FFF716
:1024000035FB4DF20320FFF72BFB4920FFF72EFB96
:102410004DF20420FFF724FB0020FFF727FB4DF2CD
:102420000520FFF71DFB6B20FFF720FB4DF2062078
:10243000FFF716FB0020FFF719FB4DF20720FFF70F
:102440000FFB8620FFF712FB4DF20820FFF708FB79
:102450000020FFF70BFB4DF20920FFF701FB9D2049
:10246000FFF704FB4DF20A20FFF7FAFA0020FFF70E
:10247000FDFA4DF20B20FFF7F3FAC320FFF7F6FA4F
:102480004DF20C20FFF7ECFA0020FFF7EFFA4DF2C7
:102490000D20FFF7E5FAE020FFF7E8FA4DF20E20F5
:1024A000FFF7DEFA0120FFF7E1FA4DF20F20FFF708
:1024B000D7FA0D20FFF7DAFA4DF21020FFF7D0FA25
:1024C0000120FFF7D3FA4DF21120FFF7C9FA2F20B0
:1024D000FFF7CCFA4DF21220FFF7C2FA0120FFF706
:1024E000C5FA4DF21320FFF7BBFA6120FFF7BEFAE1
:1024F0004DF21420FFF7B4FA0120FFF7B7FA4DF2BE
:102500001520FFF7ADFA8620FFF7B0FA4DF216203E
:10251000FFF7A6FA0120FFF7A9FA4DF21720FFF7FF
:102520009FFABD20FFF7A2FA4DF21820FFF798FAA4
:102530000120FFF79BFA4DF21920FFF791FAE720EF
:10254000FFF794FA4DF21A20FFF78AFA0120FFF7FD
:102550008DFA4DF21B20FFF783FAE820FFF786FA89
:102560004DF21C20FFF77CFA0220FFF77FFA4DF2B4
:102570001D20FFF775FA0C20FFF778FA4DF21E20A8
:10258000FFF76EFA0220FFF771FA4DF21F20FFF7F6
:1025900067FA3020FFF76AFA4DF22020FFF760FA61
:1025A0000220FFF763FA4DF22120FFF759FA452088
:1025B000FFF75CFA4DF22220FFF752FA0220FFF7F4
:1025C00055FA4DF22320FFF74BFA6320FFF74EFA3E
:1025D0004DF22420FFF744FA0220FFF747FA4DF2AC
:1025E0002520FFF73DFA7E20FFF740FA4DF2262026
:1025F000FFF736FA0220FFF739FA4DF22720FFF7EE
:102600002FFAB120FFF732FA4DF22820FFF728FA0F
:102610000220FFF72BFA4DF22920FFF721FAE020E4
:10262000FFF724FA4DF22A20FFF71AFA0320FFF7EA
:102630001DFA4DF22B20FFF713FA2620FFF716FAAA
:102640004DF22C20FFF70CFA0320FFF70FFA4DF2A2
:102650002D20FFF705FA6020FFF708FA4DF22E2033
:10266000FFF7FEF90320FFF701FA4DF22F20FFF7E5
:10267000F7F9B420FFF7FAF94DF23020FFF7F0F93F
:102680000320FFF7F3F94DF23120FFF7E9F9B92004
:10269000FFF7ECF94DF23220FFF7E2F90320FFF7E4
:1026A000E5F94DF23320FFF7DBF9C120FFF7DEF942
:1026B0004FF45340FFF7D4F90020FFF7D7F94DF25C
:1026C0000130FFF7CDF93720FFF7D0F94DF2023096
:1026D000FFF7C6F90020FFF7C9F94DF20330FFF705
:1026E000BFF94920FFF7C2F94DF20430FFF7B8F9FE
:1026F0000020FFF7BBF94DF20530FFF7B1F96B2071
:10270000FFF7B4F94DF20630FFF7AAF90020FFF702
:10271000ADF94DF20730FFF7A3F98620FFF7A6F9D0
:102720004DF20830FFF79CF90020FFF79FF94DF2BA
:102730000930FFF795F99D20FFF798F94DF20A301F
:10274000FFF78EF90020FFF791F94DF20B30FFF7FC
:1027500087F9C320FFF78AF94DF20C30FFF780F9B3
:102760000020FFF783F94DF20D30FFF779F9E020F3
:10277000FFF77CF94DF20E30FFF772F90120FFF7F9
:1027800075F94DF20F30FFF76BF90D20FFF76EF979
:102790004DF21030FFF764F90120FFF767F94DF2B1
:1027A0001130FFF75DF92F20FFF760F94DF212307D
:1027B000FFF756F90120FFF759F94DF21330FFF7F3
:1027C0004FF96120FFF752F94DF21430FFF748F945
:1027D0000120FFF74BF94DF21530FFF741F9862044
:1027E000FFF744F94DF21630FFF73AF90120FFF7F1
:1027F0003DF94DF21730FFF733F9BD20FFF736F9F9
:102800004DF21830FFF72CF90120FFF72FF94DF2A8
:102810001930FFF725F9E720FFF728F94DF21A30B4
:10282000FFF71EF90120FFF721F94DF21B30FFF7EA
:1028300017F9E820FFF71AF94DF21C30FFF710F9ED
:102840000220FFF713F94DF21D30FFF709F90C20B4
:10285000FFF70CF94DF21E30FFF702F90220FFF7E7
:1028600005F94DF21F30FFF7FBF83020FFF7FEF8B7
:102870004DF22030FFF7F4F80220FFF7F7F84DF2A1
:102880002130FFF7EDF84520FFF7F0F84DF2223048
:10289000FFF7E6F80220FFF7E9F84DF22330FFF7E3
:1028A000DFF86320FFF7E2F84DF22430FFF7D8F8A5
:1028B0000220FFF7DBF84DF22530FFF7D1F87E203C
:1028C000FFF7D4F84DF22630FFF7CAF80220FFF7E1
:1028D000CDF84DF22730FFF7C3F8B120FFF7C6F867
:1028E0004DF22830FFF7BCF80220FFF7BFF84DF299
:1028F0002930FFF7B5F8E020FFF7B8F84DF22A309D
:10290000FFF7AEF80320FFF7B1F84DF22B30FFF7D9
:10291000A7F82620FFF7AAF84DF22C30FFF7A0F811
:102920000320FFF7A3F84DF22D30FFF799F8602050
:10293000FFF79CF84DF22E30FFF792F80320FFF7D7
:1029400095F84DF22F30FFF78BF8B420FFF78EF893
:102950004DF23030FFF784F80320FFF787F84DF28F
:102960003130FFF77DF8B920FFF780F84DF23230B3
:10297000FFF776F80320FFF779F84DF23330FFF7D1
:102980006FF8C120FFF772F84FF45440FFF768F872
:102990000020FFF76BF84DF20140FFF761F8372098
:1029A000FFF764F84DF20240FFF75AF80020FFF7F6
:1029B0005DF84DF20340FFF753F84920FFF756F852
:1029C0004DF20440FFF74CF80020FFF74FF84DF2AE
:1029D0000540FFF745F86B20FFF748F84DF2064039
:1029E000FFF73EF80020FFF741F84DF20740FFF7F0
:1029F00037F88620FFF73AF84DF20840FFF730F835
:102A00000020FFF733F84DF20940FFF729F89D2029
:102A1000FFF72CF84DF20A40FFF722F80020FFF7ED
:102A200025F84DF20B40FFF71BF8C320FFF71EF807
:102A30004DF20C40FFF714F80020FFF717F84DF2A5
:102A40000D40FFF70DF8E020FFF710F84DF20E40B3
:102A5000FFF706F80120FFF709F84DF20F40FEF7E7
:102A6000FFFF0D20FFF702F84DF21040FEF7F8FFD0
:102A70000120FEF7FBFF4DF21140FEF7F1FF2F2082
:102A8000FEF7F4FF4DF21240FEF7EAFF0120FEF7D9
:102A9000EDFF4DF21340FEF7E3FF6120FEF7E6FF86
:102AA0004DF21440FEF7DCFF0120FEF7DFFF4DF290
:102AB0001540FEF7D5FF8620FEF7D8FF4DF21640F1
:102AC000FEF7CEFF0120FEF7D1FF4DF21740FEF7D3
:102AD000C7FFBD20FEF7CAFF4DF21840FEF7C0FF4A
:102AE0000120FEF7C3FF4DF21940FEF7B9FFE720C2
:102AF000FEF7BCFF4DF21A40FEF7B2FF0120FEF7D1
:102B0000B5FF4DF21B40FEF7ABFFE820FEF7AEFF2E
:102B10004DF21C40FEF7A4FF0220FEF7A7FF4DF286
:102B20001D40FEF79DFF0C20FEF7A0FF4DF21E405A
:102B3000FEF796FF0220FEF799FF4DF21F40FEF7C9
:102B40008FFF3020FEF792FF4DF22040FEF788FF06
:102B50000220FEF78BFF4DF22140FEF781FF45205A
:102B6000FEF784FF4DF22240FEF77AFF0220FEF7C7
:102B70007DFF4DF22340FEF773FF6320FEF776FFE3
:102B80004DF22440FEF76CFF0220FEF76FFF4DF27E
:102B90002540FEF765FF7E20FEF768FF4DF22640D8
:102BA000FEF75EFF0220FEF761FF4DF22740FEF7C1
:102BB00057FFB120FEF75AFF4DF22840FEF750FFB5
:102BC0000220FEF753FF4DF22940FEF749FFE020B7
:102BD000FEF74CFF4DF22A40FEF742FF0320FEF7BE
:102BE00045FF4DF22B40FEF73BFF2620FEF73EFF50
:102BF0004DF22C40FEF734FF0320FEF737FF4DF275
:102C00002D40FEF72DFF6020FEF730FF4DF22E40E5
:102C1000FEF726FF0320FEF729FF4DF22F40FEF7B7
:102C20001FFFB420FEF722FF4DF23040FEF718FFE1
:102C30000320FEF71BFF4DF23140FEF711FFB920D4
:102C4000FEF714FF4DF23240FEF70AFF0320FEF7B5
:102C50000DFF4DF23340FEF703FFC120FEF706FFE4
:102C60004FF45540FEF7FCFE0020FEF7FFFE4DF24C
:102C70000150FEF7F5FE3720FEF7F8FE4DF2025048
:102C8000FEF7EEFE0020FEF7F1FE4DF20350FEF7D8
:102C9000E7FE4920FEF7EAFE4DF20450FEF7E0FEA3
:102CA0000020FEF7E3FE4DF20550FEF7D9FE6B2043
:102CB000FEF7DCFE4DF20650FEF7D2FE0020FEF7D6
:102CC000D5FE4DF20750FEF7CBFE8620FEF7CEFE76
:102CD0004DF20850FEF7C4FE0020FEF7C7FE4DF28D
:102CE0000950FEF7BDFE9D20FEF7C0FE4DF20A50D2
:102CF000FEF7B6FE0020FEF7B9FE4DF20B50FEF7D0
:102D0000AFFEC320FEF7B2FE4DF20C50FEF7A8FE58
:102D10000020FEF7ABFE4DF20D50FEF7A1FEE020C5
:102D2000FEF7A4FE4DF20E50FEF79AFE0120FEF7CC
:102D30009DFE4DF20F50FEF793FE0D20FEF796FE1E
:102D40004DF21050FEF78CFE0120FEF78FFE4DF283
:102D50001150FEF785FE2F20FEF788FE4DF212502F
:102D6000FEF77EFE0120FEF781FE4DF21350FEF7C6
:102D700077FE6120FEF77AFE4DF21450FEF770FEEA
:102D80000120FEF773FE4DF21550FEF769FE862016
:102D9000FEF76CFE4DF21650FEF762FE0120FEF7C4
:102DA00065FE4DF21750FEF75BFEBD20FEF75EFE9E
:102DB0004DF21850FEF754FE0120FEF757FE4DF27B
:102DC0001950FEF74DFEE720FEF750FE4DF21A5067
:102DD000FEF746FE0120FEF749FE4DF21B50FEF7BE
:102DE0003FFEE820FEF742FE4DF21C50FEF738FE93
:102DF0000220FEF73BFE4DF21D50FEF731FE0C2087
:102E0000FEF734FE4DF21E50FEF72AFE0220FEF7BA
:102E10002DFE4DF21F50FEF723FE3020FEF726FE5A
:102E20004DF22050FEF71CFE0220FEF71FFE4DF271
:102E30002150FEF715FE4520FEF718FE4DF22250F8
:102E4000FEF70EFE0220FEF711FE4DF22350FEF7B4
:102E500007FE6320FEF70AFE4DF22450FEF700FE47
:102E60000220FEF703FE4DF22550FEF7F9FD7E200D
:102E7000FEF7FCFD4DF22650FEF7F2FD0220FEF7B4
:102E8000F5FD4DF22750FEF7EBFDB120FEF7EEFD0C
:102E90004DF22850FEF7E4FD0220FEF7E7FD4DF26B
:102EA0002950FEF7DDFDE020FEF7E0FD4DF22A504F
:102EB000FEF7D6FD0320FEF7D9FD4DF22B50FEF7AD
:102EC000CFFD2620FEF7D2FD4DF22C50FEF7C8FDB7
:102ED0000320FEF7CBFD4DF22D50FEF7C1FD602023
:102EE000FEF7C4FD4DF22E50FEF7BAFD0320FEF7AB
:102EF000BDFD4DF22F50FEF7B3FDB420FEF7B6FD39
:102F00004DF23050FEF7ACFD0320FEF7AFFD4DF261
:102F10003150FEF7A5FDB920FEF7A8FD4DF2325065
:102F2000FEF79EFD0320FEF7A1FD4DF23350FEF7A4
:102F300097FDC120FEF79AFD4FF45640FEF790FD35
:102F40000020FEF793FD4DF20160FEF789FD37206A
:102F5000FEF78CFD4DF20260FEF782FD0020FEF7C9
:102F600085FD4DF20360FEF77BFD4920FEF77EFDF7
:102F70004DF20460FEF774FD0020FEF777FD4DF280
:102F80000560FEF76DFD6B20FEF770FD4DF20660EB
:102F9000FEF766FD0020FEF769FD4DF20760FEF7C3
:102FA0005FFD8620FEF762FD4DF20860FEF758FDDA
:102FB0000020FEF75BFD4DF20960FEF751FD9D20FC
:102FC000FEF754FD4DF20A60FEF74AFD0020FEF7C1
:102FD0004DFD4DF20B60FEF743FDC320FEF746FDAD
:102FE0004DF20C60FEF73CFD0020FEF73FFD4DF278
:102FF0000D60FEF735FDE020FEF738FD4DF20E6066
:10300000FEF72EFD0120FEF731FD4DF20F60FEF7B9
:1030100027FD0D20FEF72AFD4DF21060FEF720FD82
:103020000120FEF723FD4DF21160FEF719FD2F2060
:10303000FEF71CFD4DF21260FEF712FD0120FEF7B7
:1030400015FD4DF21360FEF70BFD6120FEF70EFD3E
:103050004DF21460FEF704FD0120FEF707FD4DF26E
:103060001560FEF7FDFC8620FEF700FD4DF21660B0
:10307000FEF7F6FC0120FEF7F9FC4DF21760FEF7B3
:10308000EFFCBD20FEF7F2FC4DF21860FEF7E8FC05
:103090000120FEF7EBFC4DF21960FEF7E1FCE720A2
:1030A000FEF7E4FC4DF21A60FEF7DAFC0120FEF7B1
:1030B000DDFC4DF21B60FEF7D3FCE820FEF7D6FCEA
:1030C0004DF21C60FEF7CCFC0220FEF7CFFC4DF267
:1030D0001D60FEF7C5FC0C20FEF7C8FC4DF21E601B
:1030E000FEF7BEFC0220FEF7C1FC4DF21F60FEF7AA
:1030F000B7FC3020FEF7BAFC4DF22060FEF7B0FCC2
:103100000220FEF7B3FC4DF22160FEF7A9FC45203A
:10311000FEF7ACFC4DF22260FEF7A2FC0220FEF7A7
:10312000A5FC4DF22360FEF79BFC6320FEF79EFC9E
:103130004DF22460FEF794FC0220FEF797FC4DF25E
:103140002560FEF78DFC7E20FEF790FC4DF2266098
:10315000FEF786FC0220FEF789FC4DF22760FEF7A1
:103160007FFCB120FEF782FC4DF22860FEF778FC70
:103170000220FEF77BFC4DF22960FEF771FCE02097
:10318000FEF774FC4DF22A60FEF76AFC0320FEF79E
:103190006DFC4DF22B60FEF763FC2620FEF766FC0B
:1031A0004DF22C60FEF75CFC0320FEF75FFC4DF255
:1031B0002D60FEF755FC6020FEF758FC4DF22E60A6
:1031C000FEF74EFC0320FEF751FC4DF22F60FEF798
:1031D00047FCB420FEF74AFC4DF23060FEF740FC9D
:1031E0000320FEF743FC4DF23160FEF739FCB920B5
:1031F000FEF73CFC4DF23260FEF732FC0320FEF796
:1032000035FC4DF23360FEF72BFCC120FEF72EFC9F
:103210004FF47040FEF724FC5520FEF727FC4FF2D8
:103220000100FEF71DFCAA20FEF720FC4FF2020071
:10323000FEF716FC5220FEF719FC4FF20300FEF7D2
:103240000FFC0820FEF712FC4FF20400FEF708FC0A
:103250000020FEF70BFC4FF43540FEF701FC502038
:10326000FEF704FC4FF43140FEF7FAFBCC20FEF7EA
:10327000FDFB4FF43640FEF7F3FB0220FEF7F6FBB2
:103280004FF43840FEF7ECFB0120FEF7EFFB4BF666
:103290000100FEF7E5FB0320FEF7E8FB4BF602001A
:1032A000FEF7DEFB0320FEF7E1FB4BF60300FEF723
:1032B000D7FB0320FEF7DAFB4FF43C40FEF7D0FBD0
:1032C0000520FEF7D3FB4BF60140FEF7C9FB0520B6
:1032D000FEF7CCFB4BF60240FEF7C2FB0520FEF7E3
:1032E000C5FB4BF60250FEF7BBFB0720FEF7BEFB0B
:1032F0004BF60350FEF7B4FB3120FEF7B7FB4BF65D
:103300000260FEF7ADFB0720FEF7B0FB4BF6036053
:10331000FEF7A6FB3120FEF7A9FB4BF60270FEF785
:103320009FFB0720FEF7A2FB4BF60360FEF798FB1E
:103330003120FEF79BFB4FF47F40FEF791FBAA2064
:10334000FEF794FB4FF60170FEF78AFB5520FEF75F
:103350008DFB4FF60270FEF783FB2520FEF786FB00
:103360004FF60370FEF77CFB0120FEF77FFB4FF268
:103370000630FEF775FB1020FEF778FB4FF2084091
:10338000FEF76EFB0020FEF771FB4FF45850FEF77E
:1033900067FBC020FEF76AFB4FF45450FEF760FB5A
:1033A0000020FEF763FB4FF46850FEF759FB052041
:1033B000FEF75CFB4FF48850FEF752FB782000F0DC
:1033C00038FB4FF42450FEF74BFB322000F031FB6A
:1033D0000020FEF779FA4FF6FF70FEF751FA10BDA4
:1033E00010B50248FDF7A2FE10BD00002C00002021
:1033F00010B50268294B98420ED0B0F1804F0BD027
:10340000274B984208D0274B984205D0264B98422C
:1034100002D0264B984203D122F070024B681A4327
:103420001E4B984220D0B0F1804F1DD01C4B9842CB
:103430001AD01C4B984217D01B4B984214D01B4BF0
:10344000984211D01A4B98420ED01A4B98420BD08A
:10345000194B984208D0194B984205D0184B984206
:1034600002D0184B984203D122F44072CB681A4321
:1034700022F080034C6943EA040202608B68C36255
:103480000B688362054B984202D0084B984201D1E9
:103490000B6903630123436110BD0000000001407C
:1034A0000004004000080040000C004000040140FF
:1034B0000040014000440140004801400018004025
:1034C000001C00400020004070B50546AC6B002099
:1034D000E085E0842046FDF704FF70BD0168C968FF
:1034E00021F490710268D1600168496921F00101FD
:1034F00002685161202180F83A10704710B50446E7
:103500002068C06820F040002168C860202084F84E
:1035100039002046FEF724F9002010BD70B504469E
:1035200094F83A0022284AD1A068B0F5805F13D100
:10353000A56A206940B920684068C0F30800288067
:10354000A06A801CA06219E020684068C0B2288090
:10355000A06A401CA06211E0206938B92068406868
:10356000C1B2A26A501CA062117007E020684068D6
:1035700000F07F01A26A501CA0621170E08D401E15
:1035800080B2E085C8B92068C06820F020002168BA
:10359000C8602068C06820F480702168C860206816
:1035A000406920F0010021684861202084F83A0039
:1035B0002046FDF7FBFF002070BD0020FCE7022045
:1035C000FAE700002DE9F04104462068006920F484
:1035D0004050E1680843216808612169A0680843F8
:1035E00061690843E16940EA01052068C06849F261
:1035F0000C61884328432168C8602068406920F432
:103600004070A169084321684861E069B0F5004F46
:103610007ED1C4492068884203D0C34920688842CB
:103620005DD1FDF717FA00EBC00101EB00106168F6
:103630004900B0FBF1F06421B0FBF1F00601FDF7A9
:1036400009FA00EBC00101EB001061684900B0FB12
:10365000F1F7FDF7FFF900EBC00101EB0010616825
:103660004900B0FBF1F06421B0FBF1F000EBC001C8
:1036700001EB0010A7EB8000322101EBC0006421B8
:10368000B0FBF1F000F0F80006EB4006FDF7E2F9C0
:1036900000EBC00101EB001061684900B0FBF1F7DD
:1036A000FDF7D8F900EBC00101EB0010616849009B
:1036B000B0FBF1F06421B0FBF1F000EBC00101EBD5
:1036C0000010A7EB8000322101EBC0006421B0FBA9
:1036D000F1F000F0070030442168886020E1FDF738
:1036E000A9F900EBC00101EB001061684900B0FBD3
:1036F000F1F06421B0FBF1F00601FDF79BF900EB5E
:10370000C00101EB001061684900B0FBF1F700E077
:1037100045E0FDF78FF900EBC00101EB0010616897
:103720004900B0FBF1F06421B0FBF1F000EBC00107
:1037300001EB0010A7EB8000322101EBC0006421F7
:10374000B0FBF1F000F0F80006EB4006FDF772F96F
:1037500000EBC00101EB001061684900B0FBF1F71C
:10376000FDF768F900EBC00101EB0010616849004A
:10377000B0FBF1F06421B0FBF1F000EBC00101EB14
:103780000010A7EB8000322101EBC0006421B0FBE8
:10379000F1F000F00700304421688860C0E0614922
:1037A0002068884203D06049206888425CD1FDF7D8
:1037B00051F900EBC00101EB001061688900B0FB1A
:1037C000F1F6FDF747F900EBC00101EB001061686D
:1037D0008900B0FBF1F06421B0FBF1F000EBC00117
:1037E00001EB0010A6EB8000322101EB00106421F8
:1037F000B0FBF1F000F0F006FDF72CF900EBC00192
:1038000001EB001061688900B0FBF1F06421B0FBAE
:10381000F1F006EB0016FDF71DF900EBC00101EB1E
:10382000001061688900B0FBF1F7FDF713F900EBB8
:10383000C00101EB001061688900B0FBF1F0642168
:10384000B0FBF1F000EBC00101EB0010A7EB800032
:10385000322101EB00106421B0FBF1F000F00F0009
:103860003044216888605BE0FDF7E4F800EBC001BC
:1038700001EB001061688900B0FBF1F6FDF7DAF8A2
:1038800000EBC00101EB001061688900B0FBF1F0B2
:103890006421B0FBF1F000EBC00101EB0010A6EBDE
:1038A0008000322101EB00106421B0FBF1F000F048
:1038B000F006FDF7BFF800EBC00101EB00106168F6
:1038C0008900B0FBF1F06421B0FBF1F006EB0016CB
:1038D000FDF7B0F800EBC00101EB00106168890052
:1038E000B0FBF1F7FDF7A6F800EBC00101EB00100B
:1038F00061688900B0FBF1F06421B0FBF1F000EBEE
:10390000C00101EB0010A7EB8000322101EB001099
:103910006421B0FBF1F000F00F00304421688860B2
:10392000BDE8F0810010014000140140014691F80B
:10393000390021282CD18868B0F5805F0FD10A6A40
:103940001088C0F308000B685860086918B9086A45
:10395000801C086209E0086A401C086205E00B6AE6
:10396000581C086218780B685860C88C401E80B2DA
:10397000C88458B90868C06820F080000B68D86017
:103980000868C06840F040000B68D86000207047AD
:103990000220FCE710B50248FDF7A4FC10BD0000B2
:1039A0006C00002070B504460D46064806490860C4
:1039B00008464460C560FDF764FB08B1FCF777FC7E
:1039C00070BD0000001400402C00002000BFFEE786
:1039D00002480068C0F30220704700000CED00E0D0
:1039E00010B5002804DB0A07130E054A135406E03D
:1039F0000A07140E034A00F00F031B1FD45410BD16
:103A000000E400E018ED00E002E008C8121F08C161
:103A1000002AFAD170477047002001E001C1121F4F
:103A2000002AFBD1704710B500F044F9FDF79CFE69
:103A300010BD70B504464FF4077094FBF0F0C6B2A9
:103A40004FF4077094FBF0F100FB114085B205E0E4
:103A50004FF4077000F00AF8701EC6B2002EF7D1BE
:103A600015B1284600F002F870BD00000146114A69
:103A700012884A434FF0E0235A6100229A611A46A5
:103A8000126942F001021A6100BF4FF0E022106992
:103A900000F001021AB100F48032002AF5D04FF094
:103AA000E022126922F001024FF0E0231A610022A5
:103AB0009A6170471A000020FCF72CFEFEF734F9DB
:103AC000FEF732F8FEF7E4F8FEF7C0F8FDF7DAFF8C
:103AD00000F004F801E0FFF7A6FFFCE710B5A8200E
:103AE000FEF704F9FEF7ACF9632142F2CF00FFF7CD
:103AF00059FF0348FDF704FB0248FDF749FE10BDDE
:103B00002C000020A002002070B504460D46164689
:103B10002B46224629462046FDF762FF3046FDF738
:103B2000ABFF70BD2DE9F84F80460E4617461C4688
:103B3000B3462046E31704EB5373DB1021464FEAEC
:103B4000E47C04EB5C7C4FEAEC0CA4EBCC0CBCF109
:103B5000000F02D04FF0010C01E04FF0000C634465
:103B6000224604EBD27C4FEA6C0C03FB0CF3DBB275
:103B70000093A7F12000C7B2002556E00C2C07D116
:103B800007EB47002B4901EB800010F8059013E08C
:103B9000102C05D1284800EB071010F805900BE019
:103BA000182C07D107EBC700244901EB800010F85F
:103BB000059001E0BDE8F88F4FF0000A2FE009F012
:103BC000800030B11E48028831464046FFF79CFF16
:103BD00007E00A9828B91B48028831464046FFF79B
:103BE00093FF4FEA49604FEA1069701C86B216488D
:103BF0004088B04200DCDDE7A6EB0B00A0420AD112
:103C00005E4608F101001FFA80F80F480088404521
:103C100000DCCFE706E00AF1010000F0FF0ABAF18C
:103C2000080FCCDB00BF681CC5B200988542A5DB3D
:103C300000BFBFE73C3D0008B0410008A0470008B6
:103C40001E00002020000020220000202DE9F84F57
:103C500004460D4690469946DDE90A6704F0FF0ADE
:103C600008EB04001FFA80F809EB05001FFA80F941
:103C700016E0444502DB5446A81985B24D4500DBE9
:103C800014E0002000903A78334629462046FFF79A
:103C900049FF304606EBD07104EB61018CB27F1C0A
:103CA00038787E2802DC38782028E2DA00BFBDE8C8
:103CB000F88F000010B5194890F88201012800DA49
:103CC00010BD0020154981F88201084690F80301D3
:103CD000012806D002280BD003280FD004281AD1BF
:103CE00013E000224FF400710D48FCF7FBFC12E0DA
:103CF000012251020A48FCF7F5FC0CE000224FF4C7
:103D000080610748FCF7EEFC05E0012291020448BF
:103D1000FCF7E8FC00BF00BF00BFD1E714010020A2
:103D20000014024000000000000000000102030433
:103D3000060708090000000001020304000000005B
:103D40000000000000000000000000003F400000F4
:103D50000000000000003000400030004000000083
:103D600009000BC03D000BC03D00090018C02440F5
:103D70007FE0224031800000180024C01B000D802D
:103D80003240018003801C4027401C8007400040D7
:103D900010006000000000000000000000000000B3
:103DA00000001F80204040200000402020401F8055
:103DB00000000000090006001F8006000900000046
:103DC000040004003F8004000400000000100060B4
:103DD00000000000000000000400040004000400D3
:103DE000040000000000004000000000000000008F
:103DF000002001C006003800400000001F80204065
:103E0000204020401F800000000010403FC00040C4
:103E10000000000018C0214022402440184000004B
:103E200010802040244024401B80000002000D0030
:103E300011003FC0014000003C8024402440244049
:103E4000238000001F802440244034400380000071
:103E50003000200027C03800200000001B802440D4
:103E6000244024401B8000001C0022C0224022402D
:103E70001F8000000000000008400000000000005B
:103E800000000000046000000000000000000400CA
:103E90000A001100208040400900090009000900C3
:103EA0000900000000004040208011000A000400CA
:103EB0001800200023402400180000001F8020402C
:103EC000274029401F400000004007C039000F0074
:103ED00001C0004020403FC0244024401B8000001F
:103EE0001F802040204020403080000020403FC004
:103EF000204020401F80000020403FC024402E4032
:103F000030C0000020403FC024402E0030000000A0
:103F10000F001080204022403380020020403FC02C
:103F2000040004003FC02040204020403FC020400B
:103F3000204000000060202020203FC02000200002
:103F400020403FC024400B0030C0204020403FC0F4
:103F500020400040004000C03FC03C0003C03C0087
:103F60003FC0000020403FC00C4023003FC0200065
:103F70001F802040204020401F80000020403FC084
:103F800024402400180000001F802140214020E030
:103F90001FA0000020403FC02440260019C0004060
:103FA00018C02440244022403180000030002040CE
:103FB0003FC020403000000020003F800040004013
:103FC0003F80200020003E0001C007003800200094
:103FD000380007C03C0007C038000000204039C04E
:103FE000060039C0204000002000384007C038409B
:103FF00020000000304021C02640384020C0000092
:10400000000000007FE04020402000000000700021
:104010000C000380004000000000402040207FE0B2
:104020000000000000002000400020000000000010
:104030000010001000100010001000100000000020
:104040004000000000000000000002800540054024
:1040500003C0004020003FC0044004400380000033
:10406000000003800440044006400000000003807C
:10407000044024403FC0004000000380054005404C
:1040800003400000000004401FC0244024402000E2
:10409000000002E0055005500650042020403FC0BB
:1040A0000440040003C000400000044027C000405A
:1040B0000000000000100010041027E000000000C5
:1040C00020403FC00140070004C004402040204081
:1040D0003FC000400040000007C0040007C00400CB
:1040E00003C00000044007C00440040003C00040B7
:1040F000000003800440044003800000041007F027
:104100000450044003800000000003800440045079
:1041100007F00010044007C0024004000400000043
:10412000000006400540054004C0000000000400F7
:104130001F8004400040000004000780004004404D
:1041400007C000400400070004C00180060004000E
:10415000060001C0070001C006000000044006C0C0
:10416000010006C0044000000410071004E00180B4
:10417000060004000000044005C0064004400000A2
:104180000000000004007BE0402000000000000070
:104190000000FFF000000000000040207BE0040071
:1041A000000000004000800040002000200040008F
:1041B00000000000000000000000000000000000FF
:1041C0000000000000001FCC000C000000000000F8
:1041D00000000800300060000800300060000000AF
:1041E000022003FC1E20022003FC1E2002200000EF
:1041F00000000E1811043FFF10840C78000000002E
:104200000F0010840F3800C0077818840078000071
:1042100000780F8410C411240E9800E40084000874
:1042200008006800700000000000000000000000AE
:1042300000000000000007E0181820044002000001
:10424000000040022004181807E0000000000000F1
:104250000240024001800FF0018002400240000055
:104260000080008000800FF8008000800080000047
:104270000001000D000E0000000000000000000022
:1042800000000080008000800080008000800080AE
:104290000000000C000C0000000000000000000006
:1042A00000000006001800600180060018002000D1
:1042B000000007F0080810041004080807F00000C8
:1042C0000000080408041FFC0004000400000000B3
:1042D00000000E0C10141024104411840E0C000069
:1042E00000000C1810041104110412880C70000056
:1042F000000000E00320042408241FFC0024000028
:1043000000001F9810841104110410881070000020
:10431000000007F0088811041104188800700000DC
:1043200000001C00100010FC13001C001000000016
:1043300000000E3811441084108411440E3800001F
:1043400000000700088C10441044088807F00000A3
:10435000000000000000030C030C0000000000003F
:104360000000000000010106000000000000000045
:104370000000008001400220041008081004000022
:10438000022002200220022002200220022000003F
:104390000000100408080410022001400080000002
:1043A00000000E001200100C106C10800F000000B6
:1043B00003E00C1813E4142417C4082807D00000E5
:1043C0000004003C03C41C40074000E4001C00043F
:1043D00010041FFC1104110411040E880070000069
:1043E00003E00C1810041004100410081C10000046
:1043F00010041FFC100410041004080807F000004B
:1044000010041FFC1104110417C410040818000044
:1044100010041FFC1104110017C010000800000058
:1044200003E00C181004100410441C780040000035
:1044300010041FFC10840080008010841FFC1004F6
:104440000000100410041FFC100410040000000001
:1044500000030001100110011FFE100010000000F9
:1044600010041FFC110403801464181C10040000C5
:1044700010041FFC1004000400040004000C0000E1
:1044800010041FFC1F0000FC1F001FFC1004000094
:1044900010041FFC0C04030000E010181FFC1000A7
:1044A00007F00808100410041004080807F00000C2
:1044B00010041FFC10841080108010800F0000007A
:1044C00007F0081810241024101C080A07F2000036
:1044D00010041FFC1104110011C011300E0C000457
:1044E00000000E1C11041084108410441C380000BD
:1044F0001800100010041FFC100410001800000029
:1045000010001FF810040004000410041FF810002D
:1045100010001E0011E0001C007013801C00100031
:104520001FC0103C00E01F0000E0103C1FC0000056
:104530001004180C163401C001C01634180C1004F5
:1045400010001C00130400FC13041C0010000000E9
:104550000804101C1064108413041C0410180000BC
:104560000000000000007FFE400240024002000008
:10457000000030000C0003800060001C00030000FD
:1045800000004002400240027FFE000000000000E8
:10459000000000002000400040004000200000001B
:1045A0000001000100010001000100010001000103
:1045B000000040004000200000000000000000005B
:1045C00000000098012401440144014400FC00045F
:1045D00010001FFC00880104010400880070000026
:1045E000000000700088010401040104008800003C
:1045F0000000007000880104010411081FFC000481
:10460000000000F8014401440144014400C80000D6
:104610000000010401040FFC110411041100180032
:10462000000000D601290129012901C90106000065
:1046300010041FFC008401000100010400FC0004C0
:1046400000000104190419FC00040004000000002B
:104650000000000300010101190119FE0000000023
:1046600010041FFC0024004001B4010C01040000F0
:104670000000100410041FFC0004000400000000EF
:10468000010401FC0104010001FC0104010000FC23
:10469000010401FC008401000100010400FC00048D
:1046A000000000F8010401040104010400F8000006
:1046B000010101FF00850104010400880070000071
:1046C00000000070008801040104010501FF0001E1
:1046D0000104010401FC00840104010001800000C8
:1046E000000000CC012401240124012401980000D1
:1046F00000000100010007F80104010400000000AF
:10470000010001F8000400040004010801FC000499
:10471000010001800170000C0010016001800100A7
:1047200001F0010C003001C00030010C01F001006B
:1047300000000104018C00740170018C0104000070
:10474000010101810171000E00180160018001006A
:1047500000000184010C013401440184010C0000BB
:10476000000000000000000001003EFC400240028A
:104770000000000000000000FFFF0000000000003B
:104780000000400240023EFC01000000000000006A
:1047900000006000800080004000400020002000F9
:1047A0000000000000000000000000000000000009
:1047B00000000000000000000000000000000000F9
:1047C00000000000000000000000000000000000E9
:1047D0000000000F80380FFE380F80380000000006
:1047E00000000000000000000000000000000100C8
:1047F000000600000C000038000031000006000038
:104800000C00003800003000000000000000000034
:1048100061800067F807F9800061800061800061B5
:10482000800061800067F807F98000618000000067
:1048300000000000000001C0E003E0F006300804C2
:1048400018081FFFFE040E080787F00381E0000030
:104850000000000001F000060C00040408060C70C3
:1048600001F9C0000E00003BE000EC180708080446
:104870000C180003E00000000001E00007F003F85E
:1048800018041C0804170807E1D003C0E00023B097
:10489000003C08002008000010000000000000019B
:1048A00000003100003200001C0000000000000089
:1048B00000000000000000000000000000000000F8
:1048C00000000000000000000000000000000000E8
:1048D0007F0001FFC00780F00C00181000042000CA
:1048E000020000000000002000021000040C00186C
:1048F0000780F001FFC0007F000000000000000002
:1049000000000000000000000000000042000066FF
:1049100000006600003C0000180003FFC000180003
:10492000003C00006600006600004200000000003D
:10493000080000080000080000080000080001FF4F
:10494000C00008000008000008000008000008007F
:1049500000000000000100003100003200001C00D7
:104960000000000000000000000000000000000047
:10497000000000000000000008000008000008001F
:1049800000080000080000080000080000080000FF
:104990000800000800000000000000000000000007
:1049A000380000380000380000000000000000005F
:1049B00000000000000000000000000000000000F7
:1049C000000600001C000070000180000E0000388E
:1049D0000000C0000700001C0000300000000000C4
:1049E000000000007F8001FFE003807006001804D3
:1049F000000804000806001803807001FFE0007F33
:104A00008000000000000000000001000801000814
:104A100001000803FFF807FFF80000080000080085
:104A2000000800000000000000000001C03802C0C3
:104A300058040098040118040218040418061C18ED
:104A400003F81801E0F80000000000000000000179
:104A5000C0E003C0F00400080408080408080618B1
:104A60000803F41801E7F00001E000000000000076
:104A7000000000000300000D0000110000610000B4
:104A8000810803010807FFF80FFFF8000108000183
:104A9000080000000000000000E007FCD006080845
:104AA000061008061008061008061838060FF0064B
:104AB00007C0000000000000000000003F8001FF70
:104AC000E0038430020818041008041008041008D9
:104AD000071810030FF00007C000000000000000DE
:104AE000000003C0000700000600000600F80607EB
:104AF000F806180006E000070000060000000000AD
:104B000000000001E1E003F7F00634100418080487
:104B10001808040C08040C0806161803F3F001C169
:104B2000E000000000000000F80003FC300306383D
:104B30000402080402080402080404100308F00137
:104B4000FFC0007F00000000000000000000000027
:104B5000000000000000000070380070380070385D
:104B60000000000000000000000000000000000045
:104B7000000000000000000000000000301A0030BB
:104B80001C00000000000000000000000000000009
:104B900000000000000000080000140000220000D7
:104BA0004100008080010040020020040010080045
:104BB000080000000000000021000021000021008A
:104BC0000021000021000021000021000021000040
:104BD000210000210000000000000000000008008B
:104BE0000804001002002001004000808000410005
:104BF0000022000014000008000000000000000374
:104C0000C00004C000040000080038080F3808087D
:104C1000380810000C300007E00003C0000000005E
:104C2000000000003F8000FFE0038070020F1006CC
:104C3000708804C088048308047F8802C090030140
:104C40002000FE400000080000180001F8003E08A7
:104C500001C20007020007E20000FE00001FC800BA
:104C600001F800003800000804000807FFF807FFFB
:104C7000F8040808040808040808040808061808C6
:104C800003F41801E7F00001E0000000000000005C
:104C90003F8001FFE0038070020018040008040058
:104CA000080400080400100600200780C00000006F
:104CB00004000807FFF807FFF804000804000804D0
:104CC000000804001802001003807001FFE0007F5C
:104CD0008000000004000807FFF807FFF804080838
:104CE000040808040808040808043E08040008062C
:104CF000001801006000000004000807FFF807FF2B
:104D0000F8040808040800040800040800043E0031
:104D10000600000600000180000000000000000006
:104D20003F8001FFE00380700600180400080402C1
:104D3000080402080203F00783F0000200000200EA
:104D400004000807FFF807FFF8040808000800003F
:104D5000080000080000080004080807FFF807FF23
:104D6000F804000800000000000004000804000827
:104D700004000807FFF807FFF8040008040008040F
:104D80000008000000000000000000000006000015
:104D90000700000104000104000104000307FFFEF6
:104DA00007FFFC04000004000004000004000807E2
:104DB000FFF807FFF8040C08001800003E0004C7C5
:104DC000800503C80600F804003804001800000835
:104DD00004000807FFF807FFF804000800000800B7
:104DE000000800000800000800000800001800008B
:104DF0006000000004000807FFF807800807FC00B7
:104E0000007FC00003F80007C00078000780080793
:104E1000FFF807FFF804000804000807FFF8070080
:104E20000803C00000E000003800001E000007007A
:104E30000001C00400F007FFF804000000000000BB
:104E40007F8001FFE0038070060018040008040062
:104E50000806001803003001FFE0007F800000001A
:104E600004000807FFF807FFF8040408040400041E
:104E70000400040400040400060C0003F80001F020
:104E800000000000000000007F8001FFE003807050
:104E90000600880400880400C806003C03003E01A8
:104EA000FFE6007F8400000004000807FFF807FF0A
:104EB000F8040808040800040C00040F00040BC0E8
:104EC0000610F003F03801E00800000800000001BF
:104ED000E0F803F030063010041808041808040C39
:104EE00008040C080206180207F00781E000000021
:104EF0000180000600000400000400000400080710
:104F0000FFF807FFF8040008040000040000060092
:104F10000001800004000007FFE007FFF004001814
:104F20000000080000080000080000080000080455
:104F3000001007FFE004000004000006000007E086
:104F40000007FE00041FE00001F80000380001E047
:104F5000043E0007C0000600000400000400000733
:104F6000E00007FFC0041FF80007C007F80007FFB4
:104F700080043FF80007C004F800070000040000A8
:104F800000000004000806001807C07805F1C800FA
:104F90003E00001F800463E80780F8060018040044
:104FA0000800000004000006000007800007E00879
:104FB000047C08001FF80007F800180804E0080740
:104FC00000000600000400000000000100080600C8
:104FD000380400F80403E8040F08047C0805F0080E
:104FE00007C008070018040060000000000000006F
:104FF00000000000000000000000003FFFFE200055
:105000000220000220000220000220000200000016
:1050100000000000000008000007000000C00000C1
:1050200038000006000001C000003000000E000043
:10503000010000000000000000002000022000022B
:105040002000022000022000023FFFFE00000000BE
:105050000000000000000000000000000000000050
:1050600000080000100000300000200000300000A8
:105070001000000800000000000000000000010017
:10508000000100000100000100000100000100001B
:10509000010000010000010000010000010000010A
:1050A00000000000000000000020000020000010B0
:1050B00000001000000000000000000000000000E0
:1050C000000000000000000000F00019F8001B18AC
:1050D000002208002608002408002410003FF800E1
:1050E0001FF800000800001800000004000007FF7F
:1050F000F80FFFF000181800100800200800200822
:10510000003018001FF0000FC00000000000000079
:1051100007C0001FF0001830002008002008002001
:1051200008003C08001C10000060000000000000A7
:105130000000000007C0001FF00038180020080021
:10514000200800200804101007FFF80FFFF00000EF
:10515000100000000000000000000007C0001FF069
:105160000012300022180022080022080032080035
:105170001E10000E20000000000000002000002093
:105180000800200801FFF803FFF8062008042008A3
:1051900004200807200003000000000000000000B9
:1051A000000E000E6E001FF30031B10020B1002090
:1051B000B1003191001F13002E1E00200E003000A0
:1051C00000000004000807FFF80FFFF800100800B7
:1051D0002000002000002008003FF8001FF8000019
:1051E0000800000000000000000000200800200867
:1051F000002008063FF8063FF800000800000800FD
:105200000008000000000000000000000000000096
:1052100003000003002001002001002003063FFEE0
:10522000063FFC0000000000000000000000000439
:10523000000807FFF80FFFF8000188000300002FA7
:10524000C00038F8002038002008000008000000E6
:105250000000000000000400080400080400080723
:10526000FFF80FFFF8000008000008000008000029
:1052700000000000002008003FF8003FF800100880
:10528000002000003FF8003FF80010080020000058
:105290003FF8003FF8000008000000002008003F31
:1052A000F8003FF80010080010000020000020085F
:1052B000003FF8001FF80000080000000000000098
:1052C00007C0000FF0001830003008002008002050
:1052D00008003008001830000FF00007C000000080
:1052E000000000002001003FFF003FFF0010110000
:1052F0002009002008002008003038001FF0000FAF
:10530000C00000000000000007C0001FF0003818B7
:10531000002008002008002009001011001FFF00D5
:105320003FFF0000010000000020080020080020CE
:1053300008003FF8003FF8000808001008002008A7
:1053400000200000300000300000000000000000DD
:105350000000000C78001E1800330800230800210C
:10536000080021880021980030F00038600000001B
:1053700000000000200000200000200000FFF003DB
:10538000FFF800200800200800200800003000007E
:1053900000000000000000002000003FF0007FF847
:1053A000000018000008000008002010003FF8006E
:1053B0007FF000001000000000000000200000301E
:1053C00000003C00003F800023F0000078000070E7
:1053D000002380003C00003000002000002000007E
:1053E0003C00003FE00023F80000E0002700003E02
:1053F00000003FE00021F80001E0003E0000200036
:10540000000000002008002008003838003E680036
:1054100027800003C8002CF800383800201800202E
:1054200008000000000000002000003003003C01E4
:10543000003F830023EC000070002380003C00004C
:1054400020000020000000000000000000000038E4
:10545000080020380020F80023E8002F88003E08CC
:105460000038080020180000700000000000000054
:105470000000000000000000000000000800001410
:10548000001FF7FC300006200002000000000000B2
:10549000000000000000000000000000000000000C
:1054A0000000FFFFFF0000000000000000000000FF
:1054B0000000000000000000000020000230000694
:1054C0001FF7FC00140000080000000000000000AE
:1054D0000000000000000000000000180000600054
:1054E0000040000040000020000010000008000004
:1054F0000400000400000C00001000001C5500080F
:10550000000000202C000000083A00084855000860
:105510002C00002084060000183A0008000000005B
:10552000000000000000000010000000010000006A
:105530000024F4000000000000000000FFFF000055
:08554000000000000000000063
:040000050800018965
:00000001FF
