:020000040800F2
:10000000F80500209D010008BD3D000825310008CD
:10001000B93D0008C10400086D6C00080000000034
:10002000000000000000000000000000BF420008C7
:1000300003080008000000009D3F0008C1420008BE
:10004000B7010008B7010008B7010008B7010008B0
:10005000B7010008B7010008B7010008B7010008A0
:10006000B7010008B7010008B7010008B701000890
:10007000B7010008B7010008B7010008B701000880
:10008000B7010008B7010008B7010008B701000870
:10009000B7010008B7010008B7010008B701000860
:1000A000B7010008B7010008B7010008B701000850
:1000B000B7010008B7010008B7010008B701000840
:1000C000B7010008B7010008B7010008B701000830
:1000D000B7010008B7010008B7010008B701000820
:1000E000B7010008B7010008B7010008B701000810
:1000F000B7010008B7010008B7010008B701000800
:10010000B7010008B7010008B7010008B7010008EF
:10011000B7010008B7010008B7010008B7010008DF
:10012000B7010008C9060008B7010008B7010008B8
:10013000B7010008B7010008B7010008B7010008BF
:10014000B7010008B7010008B7010008B7010008AF
:10015000B7010008B7010008B7010008B70100089F
:10016000B7010008B7010008B7010008B70100088F
:10017000B7010008B70100086D0600080000000084
:10018000B7010008B7010008DFF80CD000F086F9CD
:1001900000480047596E0008F805002006488047CF
:1001A00006480047FEE7FEE7FEE7FEE7FEE7FEE75C
:1001B000FEE7FEE7FEE7FEE77D4300088901000851
:1001C0002DE9F05F0546002092469B46884606468C
:1001D000814640241BE0284641464746224600F01F
:1001E000EFF853465A46C01A914110D311461846AB
:1001F000224600F0D6F82D1A67EB01084F4622463A
:100200000120002100F0CDF817EB00094E41201E1F
:10021000A4F10104DFDC484631462A464346BDE8E6
:10022000F09FD2B201E000F8012B491EFBD27047CB
:100230000022F6E710B513460A4604461946FFF7B2
:10024000F0FF204610BD2DE9FE4F81EA030404F0C3
:10025000004421F0004100944FF0000B23F00043D4
:1002600050EA01045ED052EA03045BD0C3F30A549F
:10027000C1F30A552C44A4F2F3340194A0FB0254B8
:10028000C1F3130141F48011C3F3130343F480134A
:1002900001FB024400FB034E840A970A44EA81549E
:1002A00047EA8357A4FB076802958D0A05FB07857B
:1002B0004FEA932C04FB0C542705029D4FEA065885
:1002C00047EA1637B5EB08056EEB070C870E920E62
:1002D00047EA811742EA8312A7FB0201B6EB0B0142
:1002E00064EB00042B0D43EA0C335E1844EB1C5006
:1002F000DA465146E7FB0201C5F313044FEA0B331C
:1003000043EA14534FEA0432019C43EA0603A4F182
:100310000C040294009CCDE900B400F070F803B026
:10032000BDE8F08F00200146F9E70EB540F23341F9
:1003300002910021CDE900110A460B4600F05FF85A
:1003400003B000BDC1F30A5210B5C1F3130140F26E
:10035000FF3341F480119A4201DA002010BD40F2CF
:1003600033439A42A2F2334203DC524200F028F8AF
:1003700010BD904010BD30B50B4601460020202234
:10038000012409E021FA02F59D4205D303FA02F5A2
:10039000491B04FA02F52844151EA2F10102F1DC02
:1003A00030BD202A04DB203A00FA02F10020704719
:1003B0009140C2F1200320FA03F3194390407047A3
:1003C000202A04DB203A21FA02F00021704721FAAA
:1003D00002F3D040C2F12002914008431946704711
:1003E00010B5141E73F1000408DA401C41F100013D
:1003F00092185B411A4301D120F0010010BD2DE994
:10040000F04D92469B4611B1B1FA81F202E0B0FA8A
:1004100080F220329046FFF7C4FF04460F4640EAC0
:100420000A0041EA0B0153465A46084313D01146CD
:1004300053EA010019D0C8F140025046FFF7C0FF4F
:1004400005460E46504659464246FFF7AAFF084366
:1004500005D0012004E020463946BDE8F08D00209B
:10046000054346EAE0762C4337430A986305E40ADD
:10047000A0EB08000022FD0A44EA47540A3002D5E6
:1004800000200146E9E7010510196941DDE9084549
:1004900000196941BDE8F04DA2E70000064C074D88
:1004A00006E0E06840F0010394E807009847103444
:1004B000AC42F6D3FFF76CFE98B80008B8B8000855
:1004C00000BFFEE770B50546AC6BA06B406D02281F
:1004D00002D0012084F82500204600F009FA70BD02
:1004E00070B506460025B46BA06A68B3A06B0068BF
:1004F000006800F40025A06A00F0010078B975B129
:10050000A06B0068C568E26A082303FB0251002261
:10051000A06B00F0D6FBA06A401EA0622FE0A06B8B
:100520000068006800F4002048BBA06B0068056903
:10053000E26A082303FB02510122A06B00F0C1FB19
:10054000A06A401EA0621AE0A06B0068006800F478
:10055000002020B1D4E90D010968C8600FE0A06B4C
:100560000068006800F4002048B9656BE06A042167
:1005700001FB0050A16B09680861206BA062A06AB2
:10058000216B88420ED12068C06840F001002168CC
:10059000C8602068006800F00200022802D1012033
:1005A00084F8250070BD00002DE9F8430446884614
:1005B00015461E46089F00BF002000902648006890
:1005C00040F48000244908600846006800F4800078
:1005D000009000BF00BF00BF204821498863084643
:1005E0001E49886300BF1F4808604FF000704860D4
:1005F00000211A488160C16007614FF48051416158
:1006000086610911C161490201620421416201212F
:1006100081620021C162016301F05CFB0F4801F0BF
:10062000B1FC0E4801F0AEFC08B100F0EBF800BFE1
:100630000A480B49886308460849886300BF00BF21
:10064000002081F8340000BF2B46224606490348AB
:1006500001F00EFDBDE8F883303802406400002050
:1006600024000020286402402800055010B50248EC
:1006700000F040F910BD00002400002010B500215A
:10068000084603F079F803F0FDF9094800680068AE
:1006900040F001000649096808600648006840F01B
:1006A00001000449086004A006F0E2FA10BD000051
:1006B000640000200000055044434D495F537461BD
:1006C0007274204F4B0A000010B5024801F03AFB4B
:1006D00010BD00006400002001460878103818237F
:1006E000B0FBF3F20848805CC865032A05D90868A6
:1006F0006FF30900001D886503E008686FF30900C7
:100700008865886D7047000078B8000801460020B1
:100710008A6A8B69CBB932B1012A0DD0022A03D083
:10072000032A10D10EE000BFCB6A03F08073B3F14F
:10073000807F00D1012007E0CB6AB3F1C07F00D1F8
:10074000012001E000E000BF34E08B69B3F5005FF9
:100750001AD132B1012A07D0022A03D0032A11D1BB
:100760000AE000BF01200EE0CB6A03F08073B3F112
:10077000807F00D1012006E0CB6AB3F1C07F00D1B9
:10078000012000E000BF15E032B1012A05D0022AA5
:1007900004D0032A0CD103E000BF00BF012008E011
:1007A000CB6A03F08073B3F1807F00D1012000E0B9
:1007B00000BF00BF704710B5046863608468402CB8
:1007C00004D10468A2600468E16003E00468A160E9
:1007D0000468E26010BD30B50468246824F4802405
:1007E00005682C60046863608468402C04D1046848
:1007F000A2600468E16003E00468A1600468E2604C
:1008000030BD70477047000070B504461D46002398
:10081000B5F5804F13D154F822300C480340D1E98C
:10082000000640EA06108E6840EA06208E8940EAFB
:1008300006408E693043034344F8223003E06FF0F2
:10084000704044F82200002070BD00000000F0CF8E
:1008500010B503460022086853F8202012480240D1
:10086000D1E901042043CC6820430C6920434C6942
:1008700020438C692043CC6920430C6A20434C6A96
:1008800020438C6A2043CC6A2043CC6B20430C6B02
:10089000204302438868082801D142F040020868DA
:1008A00043F82020002010BD8000F0FF30B5034643
:1008B0000024501C53F8204004F04044D1E90005C6
:1008C00040EA05108D6840EA05208D8940EA05451B
:1008D000088A401E45EA0055087D801E45EA0060F2
:1008E0008D6928430443501C43F82040002030BD4C
:1008F0007047704770B504462068056905F004002C
:1009000004280ED121684861E06B40F00200E063EA
:10091000042084F825002248A16B0865A06B01F033
:10092000C5F905F0020002280ED121684861E06B8C
:1009300040F00100E063042084F825001848A16B12
:100940000865A06B01F0B2F905F01000102804D181
:1009500021684861204600F068F805F00800082882
:1009600004D121684861204600F0AAF905F0010091
:10097000A0B12068006800F00200022805D12068BC
:10098000C06820F01E002168C8602068C06820F0A0
:1009900001002168C8602046FFF7ABFF70BD000072
:1009A000C504000810B504460CB9012010BD94F828
:1009B000250010B9204600F039F8022084F82500FF
:1009C0002068006840F6F871884321680860616912
:1009D00060680843E168084321690843A168084347
:1009E000A1690843216A084321680968084321680E
:1009F0000860606810280BD1217F607F41EA0021E8
:100A0000A07F41EA0041E07F41EA006021688861FF
:100A10002068C06840F01E002168C8600020E063C4
:100A2000012084F825000020C0E7704710B586B08B
:100A30000446142101A8FFF7FBFB5E4920688842A9
:100A40007ED100BF002000905B48006840F00100AC
:100A5000594908600846006800F00100009000BF96
:100A600000BF00BF00200090081F006840F0100089
:100A7000091F08600846006800F01000009000BFE1
:100A800000BF00BF002000900846006840F0010051
:100A900008600846006800F00100009000BF00BF39
:100AA00000BF002000900846006840F00400086085
:100AB0000846006800F00400009000BF00BF00BFBF
:100AC000002000900846006840F0020008600846D8
:100AD000006800F00200009000BF00BF602001909D
:100AE0000220029001200390032004900D20059025
:100AF00001A9324801F0B4FB50200190022002907D
:100B000001200390032004900D20059001A92C489A
:100B100001F0A6FB4FF43C600190022002900120FE
:100B20000390032004900D20059001A9254801F0B1
:100B300097FBC0200190022002900120039000E06A
:100B400035E0032004900D20059001A91E4801F016
:100B500087FB1E481E4908604FF000704860002166
:100B60001B488160C1604FF480610161890041616F
:100B7000890081618911C161002101620421416202
:100B8000012181620021C162016301F0FBF908B11A
:100B9000FFF738FE00BF0E48A063846300BF002249
:100BA00011464E2001F0F4FC4E2001F0E1FC06B0AD
:100BB00010BD000000000550343802400010024013
:100BC0000000024000080240000402402864024085
:100BD000640000202DE9F84304460F4615461E46E2
:100BE0004FF0000800BF94F82400012802D1022031
:100BF000BDE8F883012084F8240000BF022084F8B7
:100C000025002068006840F4804021680860206862
:100C1000006820F0020021680860206800683843FE
:100C2000216808602448A16BC8632448A16BC8648C
:100C30000020A16B0865A0622063B6F5803F08D252
:100C4000226802F1280133462A46A06B01F043FADC
:100C500024E01948A16B48640120A062E662656344
:100C600005E0E06A4008E062A06A4000A062E06A35
:100C7000B0F5803FF5D2A06A801EA062A06A206312
:100C8000E06A042101FB0058E06A0090226802F14A
:100C9000280143462A46A06B00F01CF82068006833
:100CA00040F001002168086000BF002084F82400A3
:100CB00000BF00BF9CE70000E1040008C504000875
:100CC0007047034612B91868C16001E018680161F5
:100CD000002070472DE9F04704460E4617461D4692
:100CE000DDF820804FF00009A068802804D1400082
:100CF00060650120BDE8F087E06B18B1606C08B159
:100D0000E06C18B9402060650120F3E700BF94F85B
:100D10003400012801D10220ECE7012084F83400DE
:100D200000BF94F83500012873D1022084F8350003
:100D3000002060652068006840F480202168086019
:100D40002068056143463A4631462046FFF733FDA9
:100D5000FA49206888425DD9F9492068884201D162
:100D6000202052E0F54948392068884201D12020EE
:100D70004BE0F34960312068884201D1202044E0F3
:100D8000EE4918312068884201D120203DE0EC492D
:100D900018312068884201D1C01436E0E749303963
:100DA0002068884201D1C0142FE0E54978312068DD
:100DB000884201D1C01428E0E049303120688842DF
:100DC00001D1C01421E0DE4930312068884202D1CF
:100DD0004FF4001019E0D94918392068884202D12F
:100DE0004FF4001011E0D64990312068884202D1BA
:100DF0004FF4001009E0D14948312068884202D1FF
:100E00004FF4001001E04FF00060CC494C3908600D
:100E100020E1EFE3CA49A831206888425CD9C8497B
:100E20002068884201D1202052E0C4494839206816
:100E3000884201D120204BE0C149603120688842BE
:100E400001D1202044E0BD4918312068884201D1F9
:100E500020203DE0BA4918312068884201D1C014F1
:100E600036E0B64930392068884201D1C0142FE0FD
:100E7000B34978312068884201D1C01428E0AF49D5
:100E800030312068884201D1C01421E0AC493031B2
:100E90002068884202D14FF4001019E0A7491839A0
:100EA0002068884202D14FF4001011E0A44990312B
:100EB0002068884202D14FF4001009E09F49483170
:100EC0002068884202D14FF4001001E04FF000602A
:100ED0009A4950390860BDE09949483120688842F4
:100EE0005CD997492068884201D1202052E093497B
:100EF00048392068884201D120204BE09049603178
:100F00002068884201D1202044E08C4918312068B3
:100F1000884201D120203DE089491831206888426B
:100F200001D1C01436E0854930392068884201D1AA
:100F3000C0142FE0824978312068884201D1C01462
:100F400028E07E4930312068884201D1C01421E078
:100F50007B4930312068884202D14FF4001019E0FB
:100F6000764918392068884202D14FF4001011E008
:100F7000734990312068884202D14FF4001009E093
:100F80006E4948312068884202D14FF4001001E0D8
:100F90004FF000606A491039C8605BE0684920681A
:100FA000884201D1202052E06449483920688842B3
:100FB00001D120204BE0624960312068884201D194
:100FC000202044E05D4918312068884201D120206A
:100FD0003DE05B4918312068884201D1C01436E0F9
:100FE000564930392068884201D1C0142FE0544955
:100FF00078312068884201D1C01428E04F4930314F
:101000002068884201D1C01421E04D493031206868
:10101000884202D14FF4001019E04849183920687D
:10102000884202D14FF4001011E045499031206808
:10103000884202D14FF4001009E04049483120684D
:10104000884202D14FF4001001E04FF000603C49AB
:10105000103988603949206888425CD9384920684D
:10106000884201D1102052E0344948392068884232
:1010700001D110204BE0324960312068884201D113
:10108000102044E02D4918312068884201D11020F9
:101090003DE02B4918312068884201D1001536E027
:1010A000264930392068884201D100152FE02449B3
:1010B00078312068884201D1001528E01F4930317D
:1010C0002068884201D1001521E01D493031206897
:1010D000884202D14FF4801019E01849183920686D
:1010E000884202D14FF4801011E0154990312068F8
:1010F000884202D14FF4801009E01049483120683D
:10110000884202D14FF4801001E04FF080600B491B
:101110004C39086020E10A49A831206888425FD92B
:1011200007492068884201D1102055E00349483919
:101130002068884206D110204EE00000586402402A
:1011400010600240F8492068884201D1102043E035
:10115000F6492068884201D110203DE0F249483923
:101160002068884201D1001536E0F04948392068EE
:10117000884201D100152FE0EB49183120688842E0
:1011800001D1001528E0E94918312068884201D1D1
:10119000001521E0E44930392068884202D14FF43B
:1011A000801019E0E14930392068884202D14FF4BB
:1011B000801011E0DC4930312068884202D14FF4C0
:1011C000801009E0D94930312068884202D14FF4BB
:1011D000801001E04FF08060D44968390860BBE0BE
:1011E000D1491839206888425BD9CF4960392068D5
:1011F000884201D1102050E0CC49603920688842F3
:1012000001D1102049E0C8492068884201D110204E
:1012100043E0C6492068884201D110203DE0C24920
:1012200048392068884201D1001536E0BF49483965
:101230002068884201D100152FE0BB491831206891
:10124000884201D1001528E0B84918312068884249
:1012500001D1001521E0B44930392068884202D11B
:101260004FF4801019E0B14930392068884202D12A
:101270004FF4801011E0AC4930312068884202D12F
:101280004FF4801009E0A94930312068884202D12A
:101290004FF4801001E04FF08060A3497039C860BE
:1012A0005AE0A14960392068884201D1102050E0FD
:1012B0009E4960392068884201D1102049E09A494E
:1012C0002068884201D1102043E098492068884274
:1012D00001D110203DE0944948392068884201D16D
:1012E000001536E0914948392068884201D100153F
:1012F0002FE08D4918312068884201D1001528E07F
:101300008A4918312068884201D1001521E08649B8
:1013100030392068884202D14FF4801019E08349A7
:1013200030392068884202D14FF4801011E07E49A4
:1013300030312068884202D14FF4801009E07B49A7
:1013400030312068884202D14FF4801001E04FF024
:1013500080607549703988607449183920688842FE
:101360005BD9714960392068884201D1082050E07A
:101370006E4960392068884201D1082049E06A49F5
:101380002068884201D1082043E0684920688842EB
:1013900001D108203DE0644948392068884201D1E4
:1013A000401536E0614948392068884201D140152E
:1013B0002FE05D4918312068884201D1401528E0AE
:1013C0005A4918312068884201D1401521E0564918
:1013D00030392068884202D14FF4002019E0534987
:1013E00030392068884202D14FF4002011E04E4984
:1013F00030312068884202D14FF4002009E04B4987
:1014000030312068884202D14FF4002001E04FF0D3
:1014100000704649643908601FE14349483120683B
:1014200088425BD9404960392068884201D1082050
:1014300050E03E4960392068884201D1082049E0E7
:1014400039492068884201D1082043E037492068A3
:10145000884201D108203DE033494839206888425C
:1014600001D1401536E0314948392068884201D120
:1014700040152FE02C4918312068884201D14015D1
:1014800028E02A4918312068884201D1401521E01E
:10149000254930392068884202D14FF4002019E0F4
:1014A000224930392068884202D14FF4002011E0EF
:1014B0001D4930312068884202D14FF4002009E0F4
:1014C0001A4930312068884202D14FF4002001E0EF
:1014D0004FF00070154968390860BEE012491839AC
:1014E000206888425DD9104960392068884201D15E
:1014F000082052E00D4960392068884201D1082057
:101500004BE009492068884201D1082045E007499D
:101510002068884201D108203FE00349483920680B
:10152000884205D1401538E0706002407064024086
:10153000FA492068884201D140152EE0F849206818
:10154000884201D1401528E0F44960312068884282
:1015500001D1401521E0F24948392068884202D182
:101560004FF4002019E0ED4918312068884202D17B
:101570004FF4002011E0EA4918312068884202D176
:101580004FF4002009E0E54978312068884202D113
:101590004FF4002001E04FF00070E1498839C86045
:1015A0005BE0DF4978392068884201D1082051E0AA
:1015B000DA4918392068884201D108204AE0D84920
:1015C00018392068884201D1082043E0D3494831C6
:1015D0002068884201D108203CE0D1496039206868
:1015E000884201D1401535E0CC492068884202D1BB
:1015F00040152FE04CE3CA492068884201D14015CC
:1016000028E0C64960312068884201D1401521E0B8
:10161000C34948392068884202D14FF4002019E0BC
:10162000BE4918312068884202D14FF4002011E0F1
:10163000BB4918312068884202D14FF4002009E0EC
:10164000B64978312068884202D14FF4002001E089
:101650004FF00070B24988398860B0493031206855
:1016600088425BD9AE4978392068884201D104208C
:1016700050E0AA4918392068884201D1042049E085
:10168000A74918392068884201D1042042E0A349C3
:1016900048312068884201D104203BE0A0496039EC
:1016A0002068884201D1801534E09C492068884236
:1016B00001D180152EE09A492068884201D1801519
:1016C00028E0964960312068884201D1801521E0E8
:1016D000934948392068884202D14FF4802019E0AC
:1016E0008E4918312068884202D14FF4802011E0E1
:1016F0008B4918312068884202D14FF4802009E0DC
:10170000864978312068884202D14FF4802001E078
:101710004FF0807081491C3908601EE180493031EA
:10172000206888425BD97E4978392068884201D197
:10173000042050E0794918392068884201D10420FA
:1017400049E0774918392068884201D1042042E0F5
:10175000724948312068884201D104203BE0704939
:1017600060392068884201D1801534E06B492068D7
:10177000884201D180152EE069492068884201D154
:10178000801528E0654960312068884201D18015C4
:1017900021E0634948392068884202D14FF4802013
:1017A00019E05E4918312068884202D14FF4802048
:1017B00011E05B4918312068884202D14FF4802043
:1017C00009E0564978312068884202D14FF48020E0
:1017D00001E04FF08070514920390860BDE0504968
:1017E0003039206888425BD94D4978392068884271
:1017F00001D1042050E0494918392068884201D1BC
:10180000042049E0464918392068884201D1042063
:1018100042E0424948312068884201D104203BE03F
:101820003F4960392068884201D1801534E03B4946
:101830002068884201D180152EE03949206888420D
:1018400001D1801528E0354960312068884201D1F6
:10185000801521E0324948392068884202D14FF48E
:10186000802019E02D4918312068884202D14FF4B8
:10187000802011E02A4918312068884202D14FF4B3
:10188000802009E0254978312068884202D14FF450
:10189000802001E04FF0807021498839C8605CE009
:1018A0001F4978392068884201D1042052E01B4941
:1018B00018392068884201D104204BE018491839B2
:1018C0002068884201D1042044E01449483120684E
:1018D000884201D104203DE01149603920688842E6
:1018E00001D1801536E00D492068884201D180156C
:1018F00030E00B492068884201D180152AE0074971
:1019000060312068884201D1801523E004494839BC
:101910002068884206D14FF480201BE028640240F2
:1019200088600240DF492068884202D14FF480205D
:1019300010E0DD492068884202D14FF4802009E0A0
:10194000D84960312068884202D14FF4802001E0FC
:101950004FF08070D449A0398860D249183120688E
:1019600088425BD9D04990392068884201D1012052
:1019700050E0CC4930392068884201D1012049E04B
:10198000C94930392068884201D1012042E0C54967
:1019900030312068884201D101203BE0C2497839CA
:1019A0002068884201D1402034E0BE4918392068BF
:1019B000884201D140202DE0BB4918392068884277
:1019C00001D1402026E0B74948312068884201D142
:1019D00040201FE0B44960392068884202D14FF4AA
:1019E000803017E0AF492068884202D14FF4803040
:1019F00010E0AD492068884202D14FF4803009E000
:101A0000A84960312068884202D14FF4803001E05B
:101A10004FF48000A349343908601CE1A249183111
:101A2000206888425BD9A04990392068884201D15A
:101A3000012050E09B4930392068884201D10120C3
:101A400049E0994930392068884201D1012042E0BB
:101A5000944930312068884201D101203BE092490D
:101A600078392068884201D1402034E08D49183906
:101A70002068884201D140202DE08B491839206828
:101A8000884201D1402026E08649483120688842BA
:101A900001D140201FE0844960392068884202D18A
:101AA0004FF4803017E07F492068884202D14FF41C
:101AB000803010E07C492068884202D14FF48030A9
:101AC00009E0784960312068884202D14FF48030C3
:101AD00001E04FF48000734938390860BBE0724977
:101AE0004839206888425BD96F499039206888421C
:101AF00001D1012050E06B4930392068884201D182
:101B0000012049E0684930392068884201D101202C
:101B100042E0644930312068884201D101203BE035
:101B2000614978392068884201D1402034E05D491C
:101B300018392068884201D140202DE05A491839CF
:101B40002068884201D1402026E05649483120686B
:101B5000884201D140201FE0534960392068884203
:101B600002D14FF4803017E04E492068884202D1FC
:101B70004FF4803010E04C492068884202D14FF485
:101B8000803009E0474960312068884202D14FF433
:101B9000803001E04FF480004349A039C8605AE02A
:101BA000414990392068884201D1012050E03D49E7
:101BB00030392068884201D1012049E03A49303962
:101BC0002068884201D1012042E036493031206846
:101BD000884201D101203BE03349783920688842AE
:101BE00001D1402034E02F4918392068884201D1C2
:101BF00040202DE02C4918392068884201D140202E
:101C000026E0284948312068884201D140201FE061
:101C1000254960392068884202D14FF4803017E0AE
:101C200020492068884202D14FF4803010E01E49DC
:101C30002068884202D14FF4803009E019496031B0
:101C40002068884202D14FF4803001E04FF48000D8
:101C50001549A03988602068006840F016002168A6
:101C600008602068406940F0800021684861206C6D
:101C700008B9A06C28B12068006840F0080021680D
:101C800008602068006840F001002168086006E0F4
:101C900000BF002084F8340000BF4FF0020948461E
:101CA000FFF728B840640240A0600240014691F866
:101CB0003500022803D080204865012070470520A8
:101CC00081F835000868006820F001000A6810609B
:101CD0000020F3E770B504460CB9012070BD94F8FC
:101CE0003500022800D1F9E72068006820F00100E3
:101CF0002168086000202168086021684860216828
:101D000088602168C86021680861212021684861D5
:101D10002046FEF7E1FC05460020E0632064606495
:101D2000A064E064206594F85C103F208840A860BF
:101D30000020606584F8350000BF84F8340000BFDF
:101D400000BFCBE7F8B50446002000908C4800683F
:101D50004FF41651B0FBF1F7A56D2E6894F85C10A6
:101D600008208840304098B12068006800F00400E6
:101D700070B12068006820F004002168086094F8C1
:101D80005C1008208840A860606D40F0010060652C
:101D900094F85C1001208840304068B120684069A8
:101DA00000F0800040B194F85C1001208840A860E9
:101DB000606D40F00200606594F85C10042088407B
:101DC000304068B12068006800F0020040B194F82B
:101DD0005C1004208840A860606D40F004006065DD
:101DE00094F85C1010208840304078B32068006878
:101DF00000F0080050B394F85C1010208840A860F0
:101E00002068006800F4802080B12068006800F439
:101E1000002028B9206CC8B12046216C884715E005
:101E2000A06C98B12046A16C88470FE0206800683C
:101E300000F4807028B92068006820F0080021684C
:101E40000860206C10B12046216C884794F85C1023
:101E5000202088403040002865D02068006800F0CD
:101E6000100000285FD094F85C1020208840A86003
:101E700094F83500052828D12068006820F0160065
:101E8000216808602068406920F08000216848616E
:101E9000206C08B9A06C28B12068006820F0080008
:101EA0002168086094F85C103F208840A86000BF5B
:101EB000002084F8340000BF012084F83500206D34
:101EC00010B12046216D8847F8BD2068006800F4F5
:101ED000802080B12068006800F4002028B9606C80
:101EE00010B12046616C88471DE0E06BD8B12046F8
:101EF000E16B884717E02068006800F4807068B9DB
:101F00002068006820F010002168086000BF0020F1
:101F100084F8340000BF012084F83500E06B10B174
:101F20002046E16B8847606D38B3606D00F00100BA
:101F3000F0B1052084F835002068006820F0010029
:101F40002168086000BF0098401C0090B84200D98A
:101F500005E02068006800F001000028F3D100BF10
:101F600000BF002084F8340000BF012084F8350051
:101F7000E06C10B12046E16C884700BFA4E7000088
:101F80001C0000202DE9F0410446002500F076FAFF
:101F9000074614B90120BDE8F081606A00B100BFB6
:101FA00000BF002084F8340000BF022084F8350010
:101FB0002068006820F00100216808600AE000F055
:101FC0005DFAC01B052805D920206065032084F830
:101FD0003500E0E72068006800F001000028EED13D
:101FE0002068056821480540D4E901010843E168FB
:101FF00008432169084361690843A1690843E1690D
:102000000843216A08430543606A042803D1D4E9E0
:102010000B0108430543206805602068456925F0E9
:102020000705606A0543606A04280DD1A06A05436C
:10203000E06A48B12046FEF769FB28B140206065A0
:10204000012084F83500A6E7206845612046FEF7A8
:1020500043FB064694F85C103F208840B0600020A7
:102060006065012084F83500002094E73F8010F07F
:102070002DE9F04104460D4616461F464FF0000874
:1020800000BF94F83400012802D10220BDE8F0819D
:10209000012084F8340000BF94F83500012811D1E4
:1020A000022084F83500002060653B463246294610
:1020B0002046FEF790FB2068006840F00100216890
:1020C000086006E000BF002084F8340000BF4FF035
:1020D00002084046DAE72DE9F04704460D46164669
:1020E0001F464FF00008D4F8589000BF94F8340011
:1020F000012802D10220BDE8F087012084F83400D5
:1021000000BF94F83500012825D1022084F835005D
:10211000002060653B46324629462046FEF75BFBC1
:1021200094F85C103F208840C9F8080020680068D7
:1021300040F0160021680860206C28B12068006813
:1021400040F00800216808602068006840F0010045
:102150002168086006E000BF002084F8340000BF5A
:102160004FF002084046C6E770B5044600F086F915
:1021700006462546681C10B104480078054400BF97
:1021800000F07CF9801BA842FAD370BD1800002033
:1021900000B587B0142102A8FEF74AF82A48006863
:1021A00008B107B000BD01202749086000BF00202A
:1021B00001902648006840F0010024490860084664
:1021C000006800F00100019000BF00BF8814029079
:1021D0000220039000200490032005900C2006901C
:1021E00002A91B4800F03CF84FF6807002900220D4
:1021F000039000200490032005900C20069002A973
:10220000144800F02DF84CF2337002900220039035
:1022100000200490032005900C20069002A90E488F
:1022200000F01EF84FF4805002900220039000202E
:102230000490032005900C20069002A9074800F0A6
:102240000FF800BFADE70000000000203838024062
:102250000014024000100240000C0240001802402E
:10226000F8B502460B460025002400200021DCE0E2
:10227000012606FA01F51E6806EA0504AC4273D190
:102280005E68012E08D05E68022E05D05E68112EB1
:1022900002D05E68122E13D190684F000326BE4014
:1022A000B0434F00DE68BE40304390605068012666
:1022B0008E40B0431E79C6F300168E403043506006
:1022C000D0684F000326BE40B0434F009E68BE401A
:1022D0003043D0605E68022E02D05E68122E13D1A9
:1022E000CF0802F1200656F827004E07F70E0F26FA
:1022F000BE40B0434F07FF0E1E69BE403043CF08BB
:1023000002F1200646F8270010684F000326BE4061
:10231000B0431E7906F003064F00BE403043106004
:102320005E6806F08056B6F1805F7DD100BF002662
:102330000096404E366846F480463E4F3E603E462C
:10234000366806F48046009600BF00BF3A4E8F08FC
:1023500056F827008E07370F0F26BE40B043374E82
:10236000B24202D1002624E05EE0354EB24201D1F5
:1023700001261EE0334EB24201D1022619E0324E50
:10238000B24201D1032614E0304EB24201D10426FC
:102390000FE02F4EB24201D105260AE02D4EB24287
:1023A00001D1062605E02C4EB24201D1072600E0FD
:1023B00008268F073F0FBE4030431F4E8F0846F858
:1023C0002700264E3068A0435E6806F48036B6F5D6
:1023D000803F00D12043214E3060361D3068A0433D
:1023E0005E6806F40036B6F5003F00D120431B4E70
:1023F000361D3060361D3068A0435E6806F48016D6
:10240000B6F5801F00D12043144E08363060361DCB
:102410003068A0435E6806F40016B6F5001F00D1D0
:1024200020430E4E0C363060491C1029FFF420AFBB
:10243000F8BD000044380240083801400000024066
:102440000004024000080240000C0240001002405C
:102450000014024000180240001C0240003C0140F1
:10246000024613690B400BB1012000E000207047C9
:102470000AB1816101E00B04836170470148006883
:1024800070470000100000200348006803490978E5
:10249000084401490860704710000020180000201F
:1024A00010B50D48006840F400700B4908600846FC
:1024B000006840F4806008600846006840F480705E
:1024C0000860032000F0A2F8002000F007F800F0F8
:1024D0002BF8002010BD0000003C024070B50446FF
:1024E0000E4800784FF47A71B1FBF0F00C4909689E
:1024F000B1FBF0F5284600F052FC08B1012070BD98
:10250000102C07D200222146501E00F041F8054849
:10251000046001E00120F2E70020F0E7180000204D
:102520001C0000201400002008B500BF002000900F
:102530000E48006840F480400C4908600846006876
:1025400000F48040009000BF00BF00BF002000905A
:10255000081F006840F08050091F086008460068A6
:1025600000F08050009000BF00BF08BD443802401A
:1025700001460846002809DB00F01F0301229A40AB
:1025800043099B0003F1E023C3F8002100BF70471B
:102590002DE9F05F80460D461646002704F078FBD3
:1025A000074639462A46334601F00700C0F1070ABC
:1025B000BAF1040F02D94FF0040A01E0C0F1070A92
:1025C000D14600F1040ABAF1070F02D24FF0000A17
:1025D00001E0A0F1030AD4464FF0010A0AFA09FA11
:1025E000AAF1010A0AEA020A0AFA0CFA4FF0010BF0
:1025F0000BFA0CFBABF1010B0BEA030B4AEA0B04E1
:102600002146404604F04CFBBDE8F09F00BF00F0BF
:102610000702064B19684FF6FF031940044B0B43A2
:1026200043EA0221014B196000BF70470CED00E046
:102630000000FA0570B504460D460CB9012070BDC6
:102640005848006800F00F00A84209D255490D70A3
:102650000846006800F00F00A84201D00120EEE714
:10266000207800F0020002281DD1207800F004003C
:10267000042805D14C48006840F4E0504A490860FD
:10268000207800F00800082805D14748006840F489
:102690006040454908604448006820F0F000A168A7
:1026A000084341490860207800F00100A8B3606841
:1026B000012807D13C4808380068C0F34040B8B949
:1026C0000120BCE76068022802D06068032807D1B7
:1026D000354808380068C0F3406048B90120AEE7CB
:1026E000314808380068C0F3400008B90120A6E767
:1026F0002D48006820F00300616808432A490860FB
:10270000FFF7BCFE064609E0FFF7B8FE801B41F26A
:102710008831884202D9032091E707E02248006807
:1027200000F00C006168B0EB810FEDD11D4800682E
:1027300000F00F00A84209D91A490D700846006838
:1027400000F00F00A84201D0012078E7207800F0C7
:102750000400042807D11448006820F4E050E16820
:10276000084311490860207800F00800082808D1C3
:102770000D48006820F46040216940EAC1000A4920
:10278000086000F03FF808490968C1F30311074ADF
:10279000515CC8400649086006480068FFF79EFE85
:1027A00000204CE7003C02400838024080B8000896
:1027B0001C00002014000020014800687047000041
:1027C0001C00002000B5FFF7F7FF04490968C1F3BA
:1027D0008221034A515CC84000BD00000838024015
:1027E00090B8000800B5FFF7E7FF04490968C1F396
:1027F0004231034A515CC84000BD00000838024025
:1028000090B800082DE9F047002400250026A146D5
:102810002548006800F00C0020B1042805D00828E5
:102820003AD105E0DFF8849039E0DFF8849036E0B3
:102830001D48001F006800F03F041B48001F00688F
:1028400000F4800078B11A481749091F0968C1F3DC
:102850008811A0FB01700146224600233846FDF78F
:10286000AFFC05460EE011480F49091F0968C1F386
:102870008811A0FB01700146224600233846FDF76F
:102880009FFC05460848001F0068C0F30140401C3B
:102890004600B5FBF6F902E0DFF8109000BF00BF7C
:1028A0004846BDE8F0870000083802400024F400E4
:1028B00000127A00F8B504460CB90120F8BD207862
:1028C00000F00100002874D0F948006800F00C0006
:1028D00004280DD0F648006800F00C00082813D139
:1028E000F348001F006800F48000B0F5800F0BD1A2
:1028F000EF4808380068C0F34040002859D06068AD
:10290000002856D10120D9E700BF6068B0F5803FAC
:1029100008D1E7480838006840F48030E4490839B5
:1029200008601EE06068B0F5A02F0DD1E0480838BF
:10293000006840F48020DE490839086008460068D5
:1029400040F4803008600CE0D9480838006820F472
:102950008030D749083908600846006820F4802094
:10296000086000BF606890B1FFF788FD054606E08B
:10297000FFF784FD401B642801D903209EE7CC4863
:1029800008380068C0F340400028F1D011E0FFF79C
:1029900075FD054606E0FFF771FD401B642801D96F
:1029A00003208BE7C24808380068C0F34040002885
:1029B000F1D1207800F0020002285FD1BC48006805
:1029C00000F00C0058B1BA48006800F00C0008286C
:1029D0001CD1B748001F006800F48000B0B9B448AB
:1029E00008380068C0F3400020B1E068012801D039
:1029F000012063E7AE480838006820F0F80021693C
:102A000040EAC100AA490839086037E0E06800B32D
:102A10000120A8490860FFF731FD054606E0FFF7F1
:102A20002DFD401B022801D9032047E7A0480838A4
:102A30000068C0F340000028F1D09D4808380068C5
:102A400020F0F800216940EAC1009949083908607E
:102A500014E0002097490860FFF710FD054606E0E6
:102A6000FFF70CFD401B022801D9032026E7904800
:102A700008380068C0F340000028F1D1207800F049
:102A8000080008282CD16069A8B101208A49086093
:102A9000FFF7F4FC054606E0FFF7F0FC401B0228B8
:102AA00001D903200AE782486C300068C0F3400077
:102AB0000028F1D014E000207F490860FFF7DEFC19
:102AC000054606E0FFF7DAFC401B022801D9032087
:102AD000F4E677486C300068C0F340000028F1D17C
:102AE000207800F00400042870D1002770483830A6
:102AF000006800F0805090B900BF002000906C4842
:102B00003830006840F08050694938310860084624
:102B1000006800F08050009000BF00BF01276748A8
:102B2000006800F48070B0B96448006840F48070B8
:102B300062490860FFF7A2FC054606E0FFF79EFC2D
:102B4000401B022801D90320B8E65C48006800F465
:102B500080700028F2D000BFA068012808D1544836
:102B60006830006840F001005149683108601DE09C
:102B7000A06805280DD14E486830006840F0040078
:102B80004B49683108600846006840F00100086061
:102B90000CE047486830006820F001004449683183
:102BA00008600846006820F00400086000BFA068C4
:102BB000A8B1FFF763FC054609E0FFF75FFC401B87
:102BC00041F28831884202D9032077E626E038486E
:102BD00068300068C0F340000028EED013E0FFF733
:102BE0004DFC054608E0FFF749FC401B41F28831E7
:102BF000884201D9032061E62D4868300068C0F39F
:102C000040000028EFD1012F07D129483830006853
:102C100020F0805026493831086000BFA0690028A4
:102C200045D02348006800F00C0008285DD0A0695A
:102C3000022845D100201F490866FFF71FFC054602
:102C400006E0FFF71BFC401B022801D9032035E6F4
:102C5000174808380068C0F340600028F1D1D4E973
:102C600007010843616A40EA81110122A06AC2EBB0
:102C7000500041EA00412C20005D41EA00600C490F
:102C8000091F086001200B490866FFF7F7FB05469E
:102C900006E0FFF7F3FB401B022801D903200DE6F5
:102CA000034808380068C0F340600028F1D03FE0D6
:102CB0000838024000004742800E47420070004042
:102CC00000201C490866FFF7D9FB054606E0FFF720
:102CD000D5FB401B022801D90320EFE51648006808
:102CE000C0F340600028F2D122E0A069012800D1A1
:102CF000E4E51148001D066806F48001E0698142A0
:102D000014D106F03F01206A81420FD147F6C0700E
:102D10003040616A884209D106F44031A06A81429C
:102D200004D106F07061E06A814201D00120C5E55E
:102D30000020C3E5000047420038024070B5044659
:102D40000E4615460CB9012070BD94F8490028B90B
:102D5000002084F84800204600F01CF804F1080127
:102D60002068FDF775FD3146A2682068FDF79EFDDD
:102D70002946236BD4E90102FDF746FDA1682068CE
:102D800050F8210040F00100A268216841F82200BB
:102D90000020D9E710B50446FFF7FAF910BD70B569
:102DA00004462546681EB0F1807F01D301200FE064
:102DB000681E4FF0E02148610F214FF0FF3003F013
:102DC0006FFF00204FF0E02188610720086100209C
:102DD00070BD000030B502460B4600BF92F83C00C3
:102DE000012801D1022030BD012082F83C0000BF43
:102DF000022082F83D00106844681068816824F061
:102E000070041868044310684460184D1068A842A4
:102E10001BD01068B0F1804F17D0154D1068A84234
:102E200013D0144D1068A8420FD0134D1068A8425B
:102E30000BD0124D1068A84207D0114D1068A8425F
:102E400003D0104D1068A84205D121F080015868C8
:102E5000014310688160012082F83D0000BF00201E
:102E600082F83C0000BF00BFBDE700000000014049
:102E70000004004000080040000C00400004014035
:102E8000004001400018004010B504460CB9012074
:102E900010BD94F83D0028B9002084F83C0020467D
:102EA00000F00CF8022084F83D00211D206803F09A
:102EB00047FC012084F83D000020E9E708B50A4AF4
:102EC000016891420FD100BF0021009107490968B4
:102ED00041F02001054A11601146096801F0200106
:102EE000009100BF00BF08BD001400404038024000
:102EF0000146022081F83D000868806800F0070262
:102F0000062A05D00868006840F001000B681860C8
:102F1000012081F83D00002070470146022081F821
:102F20003D0000BF0868006A41F21112104050B91C
:102F30000868006A9210104028B90868006820F0FC
:102F400001000A68106000BF012081F83D000020E8
:102F5000704710B504460CB9012010BDA06900B13E
:102F600000E000BF94F8390028B9002084F8380048
:102F7000204600F027F8242084F839002068C06833
:102F800020F400502168C860204603F045FC20680A
:102F9000006920F49040216808612068406920F0B1
:102FA0002A00216848612068C06840F40050216808
:102FB000C8600020E063202084F8390084F83A00DB
:102FC0000020CAE710B586B00446142101A8FDF719
:102FD0002FF91B492068884230D100BF00200090A3
:102FE0001848006840F0100016490860084600685C
:102FF00000F01000009000BF00BF00BF0020009054
:1030000010481438006840F001000E491439086077
:103010000846006800F00100009000BF00BF4FF4B8
:10302000C0600190022002900020039003200490D1
:103030000720059001A90448FFF712F906B010BD5A
:103040000010014044380240000002402DE9F843DE
:1030500004460D4616461F464FF0000994F8390005
:1030600020285DD105B116B90120BDE8F88300BF65
:1030700094F83800012801D10220F6E7012084F8F5
:10308000380000BF0020E063212084F83900FFF7FA
:10309000F5F98146A684E68400BF002084F8380054
:1030A00000BF2BE0E08C401EE084A068B0F5805F9C
:1030B00016D14B46002280212046009703F0A0FD48
:1030C00008B10320D1E7A846B8F80000C0F3080013
:1030D00021684860206908B9AD1C0FE06D1C0DE047
:1030E0004B46002280212046009703F089FD08B15D
:1030F0000320BAE715F8010B21684860E08C00282E
:10310000D0D14B46002240212046009703F078FDA5
:1031100008B10320A9E7202084F839000020A4E7A3
:103120000220A2E700BFFEE770B50446002609486A
:103130000588408845430021084600F01DFB00F04B
:10314000A1FC00BF02E004490C80761CAE42FAD319
:1031500070BD0000E40100208000006C10B5044642
:1031600055488471002C51D1F020534908804FF408
:10317000A07048800846808849F24131884205D0D5
:103180004D48808845F21031884214D12C204A499C
:1031900008812A2048812B2088810846808845F2B2
:1031A0001031884206D14FF4A070434908804FF493
:1031B000F07048807BE04048808845F2105188429A
:1031C00010D14FF430503C4908814FF428504881C9
:1031D0004FF42C5088814FF4F07008804FF4487001
:1031E000488064E03448808841F6631188425ED1AB
:1031F0002C20314908812B2048812A2088814FF4D6
:10320000F07008804FF44870488050E04FF4A07090
:1032100029490880F02048800846808849F24131D9
:10322000884205D02448808845F21031884207D171
:103230002C20214908812A2048812B20888129E0DF
:103240001D48808845F21051884210D14FF430500B
:10325000194908814FF4285048814FF42C50888137
:103260004FF4487008804FF4F070488012E0124824
:10327000808841F6631188420CD12C200E490881C8
:103280002A2048812B2088814FF4487008804FF411
:10329000F07048800848808845F21031884206D195
:1032A0004FF4F070044908804FF4A070488000206B
:1032B00000F028F910BD0000E401002070B50446BC
:1032C0000D4616465B48808849F24131884205D058
:1032D0005848808845F21031884214D155494889B0
:1032E00000F0C4FB201200F0B5FBE0B200F0B2FB2E
:1032F0005049888900F0BAFB281200F0ABFBE8B215
:1033000000F0A8FB8CE04B48808845F210518842C1
:1033100020D14849488900F0A9FB201200F09AFB0F
:1033200044494989491C88B200F0A0FBE0B200F092
:1033300091FB4049888900F099FB281200F08AFB34
:103340003C498989491C88B200F090FBE8B200F042
:1033500081FB65E03748808841F66311884228D1B7
:103360003448807920B933480088401E001B84B25D
:103370003049488900F07AFB201200F06BFBE0B284
:1033800000F068FB201200F065FBE0B200F062FB89
:103390002849888900F06AFB281200F05BFBE8B23C
:1033A00000F058FB281200F055FBE8B200F052FB89
:1033B00036E02048808846F6040188421DD11D4829
:1033C0008079012804D11B480088401E001B84B26C
:1033D0001849488900F04AFB201200F03BFBE0B29C
:1033E00000F038FB1349888900F040FB281200F0F8
:1033F00031FBE8B200F02EFB12E00E488079012884
:1034000004D10C480088401E001B84B20949488939
:10341000214600F041FB07498889294600F03CFB22
:1034200004480089044908804FF0D841A1F8806021
:1034300070BD0000E40100207E00006C2DE9F04F1B
:1034400005460E4617469846DDF824A04FF0000BBF
:10345000781B401C1FFA80FB344613E021462846A7
:1034600000F08AF900F00EFB4FF0000906E0074972
:10347000A1F800A009F101001FFA80F9D945F6DB97
:10348000601C84B24445E9DDBDE8F08F8000006C2B
:1034900008B5034800880090BDF8000008BD000092
:1034A0008000006C70B52DED048B0446BE2000F04A
:1034B000DDFA052000F0CEFA2046FCF736FF41EC9D
:1034C000190B9FED0E0B53EC102BFCF7BCFE41ECDF
:1034D000180BFCF737FF85B2284600F0BBFA012035
:1034E00000F0B8FAFF2000F0B5FA002000F0B2FAC0
:1034F000002000F0AFFABDEC048B70BD6666666616
:1035000066660440F0B50546002400279948807996
:10351000012805D19748808841F66311884208D177
:1035200094488079F0B99348808841F663118842C5
:1035300018D1082D15D2DFE805F00406080A0C0E94
:10354000101206250DE007250BE0042509E00525EE
:1035500007E0012505E0002503E0032501E0022541
:1035600000BF00BF8348808849F24131884211D0B2
:103570008048808845F2103188420BD07D48808891
:1035800045F21051884205D07A48808841F663118F
:1035900088427DD1082D1CD2DFE805F00406090C15
:1035A0000F12151800BF14E044F0800411E044F03D
:1035B00040040EE044F0C0040BE044F0200408E0B6
:1035C00044F0600405E044F0A00402E044F0E004AC
:1035D00000BF00BF6748808845F21051884202D181
:1035E0004FF4585700E036276248808845F2103182
:1035F00088420DD05F48808845F21051884207D03C
:103600005C48808841F66311884201D044F0080488
:103610002146384600F040FA5648808841F663114A
:1036200088421DD004F0200068B1524800885149FA
:103630004988884214DA4F48068840884D490880F6
:10364000084646800CE04B4800884A494988884231
:1036500006DD484806884088464908800846468076
:103660004448808845F21051884254D141494889E4
:1036700000F0FCF9002000F0EDF93E494989491CB1
:1036800088B200F0F3F9002000F0E4F9394900E0D5
:103690006FE04989891C88B200F0E8F9354909884A
:1036A000491EC1F30F2000F0D5F932494989C91CE0
:1036B00088B200F0DBF92F490978491EC8B200F042
:1036C000C9F92C49888900F0D1F9002000F0C2F92D
:1036D00028498989491C88B200F0C8F9002000F007
:1036E000B9F924498989891C88B200F0BFF92149B8
:1036F0004988491EC1F30F2000F0ACF91D498989A2
:10370000C91C88B200F0B2F91A498978491EC8B2BA
:1037100000F0A0F92DE01749488900F0A7F9002032
:1037200000F098F9002000F095F912490988491E27
:10373000C1F30F2000F08EF90E490978491EC8B276
:1037400000F088F90B49888900F090F9002000F01A
:1037500081F9002000F07EF906494988491EC1F32D
:103760000F2000F077F903498978491EC8B200F0AC
:1037700071F9F0BDE401002010B502460C464B483B
:10378000808849F24131884205D04848808845F216
:103790001031884214D14549488900F067F9101268
:1037A00000F058F9D0B200F055F94049888900F08E
:1037B0005DF9201200F04EF9E0B200F04BF973E031
:1037C0003A48808841F66311884247D1374880796A
:1037D000A8B936480088401E801A82B23349488909
:1037E00000F044F9002000F035F9002000F032F933
:1037F000101200F02FF9D0B200F02CF916E02B498E
:10380000488900F033F9101200F024F9D0B200F02A
:1038100021F926490988491EC1F30F2000F01AF941
:1038200022490978491EC8B200F014F91F49888955
:1038300000F01CF9201200F00DF9E0B200F00AF9D6
:103840001A494988491EC1F30F2000F003F91749AE
:103850008978491EC8B200F0FDF825E01348808839
:1038600045F2105188421FD11049488900F0FEF8F6
:10387000101200F0EFF80D494989491C88B200F098
:10388000F5F8D0B200F0E6F80849888900F0EEF8C3
:10389000201200F0DFF805498989491C88B200F040
:1038A000E5F8E0B200F0D6F810BD0000E401002019
:1038B0002DE9F84F80460F4616461C46BB4620466B
:1038C000E31704EB5373DB1021464FEAE47C04EB6F
:1038D0005C7C4FEAEC0CA4EBCC0CBCF1000F02D0EA
:1038E0004FF0010C01E04FF0000C6344224604EB62
:1038F000D27C4FEA6C0C03FB0CF3DBB20093A6F115
:103900002000C6B200255EE00C2C07D106EB460075
:103910002F4901EB800010F805901BE0102C05D119
:103920002C4800EB061010F8059013E0182C07D176
:1039300006EBC600284901EB800010F8059009E06D
:10394000202C05D1254800EBC61010F8059001E0A9
:10395000BDE8F88F4FF0000A2FE009F0800030B189
:103960001F48394602684046FFF7A8FC07E00A985E
:1039700028B91C48394602684046FFF79FFC4FEAC9
:1039800049604FEA1069781C87B217484088B842EE
:1039900000DCDDE7A7EB0B00A0420AD15F4608F18F
:1039A00001001FFA80F810480088404500DCCFE78E
:1039B00006E00AF1010000F0FF0ABAF1080FCCDBC3
:1039C00000BF681CC5B2009885429DDB00BFBFE701
:1039D00038710008AC7500089C7B0008F888000866
:1039E000080000200C000020E40100202DE9F84729
:1039F00004460D4690469946DDE9096704F0FF0A42
:103A000008EB04001FFA80F809EB05001FFA80F9A3
:103A100016E0444502DB5446A81985B24D4500DB4B
:103A200014E0002000903A78334629462046FFF7FC
:103A30003FFF304606EBD07104EB61018CB27F1C76
:103A400038787E2802DC38782028E2DA00BFBDE82A
:103A5000F887000001B5BDF800000090BDF8000037
:103A60000149088008BD00008000006C01B5BDF868
:103A700000000090BDF800000149088008BD00006A
:103A80007E00006C024800890249088070470000EF
:103A9000E40100207E00006C034A10804FF0D84201
:103AA000A2F88010704700007E00006C10B50A4834
:103AB0000A490860002048602021084881600021F0
:103AC000C16001614161816108210162FCF76AFF07
:103AD00008B1FCF797FE10BD00000550240000203F
:103AE00008B500BF002000900A48006840F480003C
:103AF000084908600846006800F48000009000BF94
:103B000000BF002211463920FEF742FD3920FEF7A2
:103B10002FFD08BD3038024000B58FB01C2108A829
:103B2000FCF786FB1C2101A8FCF782FB4FF020402C
:103B300020490860204848600620886000211D4810
:103B4000C16001611021416100218161C161016297
:103B500041624FF4805181620021C1624FF4804183
:103B6000016300214163816341640F200890099043
:103B70003C200A9000200B9010200C9011200D90FA
:103B800000200E90092001900F2002900820039041
:103B9000002004901020059011200690002007902E
:103BA00001AA08A90348FFF7C9F808B1FCF72AFEE3
:103BB0000FB000BDC4000020040100A000B587B014
:103BC000142102A8FCF734FB00BF002001905648E6
:103BD000006840F01000544908600846006800F092
:103BE0001000019000BF00BF00BF002001900846F8
:103BF000006840F0800008600846006800F080001F
:103C0000019000BF00BF00BF00200190084600687F
:103C100040F0010008600846006800F001000190D3
:103C200000BF00BF00BF002001900846006840F0C0
:103C3000200008600846006800F02000019000BFE6
:103C400000BF00BF002001900846006840F002005D
:103C500008600846006800F00200019000BF00BF45
:103C600000BF002001900846006840F0080008608E
:103C70000846006800F00800019000BF00BF00BFC8
:103C8000002001900846006840F0040008600846E3
:103C9000006800F00400019000BF00BF00BF0020DA
:103CA00001900846006840F040000860084600683F
:103CB00000F04000019000BF00BF00224FF400411F
:103CC0001A48FEF7D5FB0122C0211948FEF7D0FBA8
:103CD00001224FF402411748FEF7CAFB4FF400409F
:103CE00002900120039004900220059002A90F4841
:103CF000FEF7B6FAC0200290012003900490022043
:103D0000059002A90A48FEF7ABFA4FF40240029070
:103D10000120039004900220059002A90548FEF7B7
:103D20009FFA07B000BD0000303802400004024096
:103D3000000C0240001802401CB5002000900190C9
:103D40000D480E4908605320486000210B488160EF
:103D50000121C16000218161FFF796F808B1FCF7ED
:103D600051FD00200090019069460448FFF732F8A9
:103D700008B1FCF747FD1CBD0014004014010020F1
:103D800010B50B480B4908604FF4E1304860002142
:103D900008488160C16001610C214161002181619D
:103DA000C161FFF7D6F808B1FCF72CFD10BD00008B
:103DB000001001405401002000BFFEE770470000E2
:103DC00030B587B000250024142102A8FCF730FA92
:103DD00000BF002001903D48006840F040003B4992
:103DE00008600846006800F04000019000BF00BF76
:103DF0004FF40240029001200390049002200590AD
:103E000002A93348FEF72CFA00224FF40071304823
:103E1000FEF72EFB0A20FEF7A7F900224FF400411F
:103E20002B48FEF725FB0A20FEF79EF90122D1035D
:103E30002748FEF71DFB00F0CFF80121FF2000F01E
:103E40001FFA8021122000F01BFA3220FEF78CF9B5
:103E50001C2000F05BF904464FF6FF7000EA0424D2
:103E60001D2000F053F9044347F6A270844202D0AB
:103E7000012007B030BD214616A002F0F9FE0A204D
:103E800000F044F904464FF6FF7000EA04240B20CA
:103E900000F03CF9044342F24260844201D0022027
:103EA000E7E721460EA002F0E3FE00250AE00F4AF4
:103EB00002EB450251780D4A12F8150000F0E0F9C6
:103EC000681C85B2B22DF2D30020D2E73038024010
:103ED000001802404D49443A25640D0A00000000D4
:103EE0004849443A25640D0A00000000726F00083A
:103EF0002DE9F04104460D46E11704EB917189105C
:103F0000A4EB810111B10120BDE8F081E91705EBB7
:103F100091718910A5EB810109B10220F4E72046D7
:103F2000E11704EB91718F102846E91705EB9171A9
:103F30008E100021FF2000F0A3F90421E02000F002
:103F40009FF9F9B25A2000F09BF9F1B25B2000F022
:103F500097F9C7F30128042000EA961040EA080800
:103F600041465C2000F08CF90021E02000F088F947
:103F70000020C9E710B5002400BF0AE0064A02EBA2
:103F800044025178044A12F8140000F079F9601CD8
:103F900084B20E2CF2D310BDF470000870470000FC
:103FA00070B504464FF6FF70001B401F85B20948EC
:103FB000FEF79EFF07480068456203E00548006879
:103FC000406A85B24FF6FA708542F7DB0148FEF78A
:103FD000A4FF70BD1401002000B587B0142102A811
:103FE000FCF726F900BF002001901748006840F058
:103FF0000800154908600846006800F008000190B4
:1040000000BF00BFC0200290012003900490022056
:10401000059002A90D48FEF723F9012240210B4823
:10402000FEF726FA012280210848FEF721FA074808
:10403000006820F44040054908600846006840F4E4
:104040008040086007B000BD30380240000C0240DC
:1040500010B53220FFF7A4FF012280210D48FEF7A2
:1040600007FA012240210B48FEF702FA3220FFF73F
:1040700097FF002240210748FEF7FAF93220FFF7A8
:104080008FFF002280210348FEF7F2F93220FFF76C
:1040900087FF10BD000C024070B500241A4800686C
:1040A00020F4404018490860084600680860082568
:1040B0001AE03220FFF774FF012240211248FEF778
:1040C000D7F96006040E80210F48FEF7C9F908B140
:1040D000601CC4B23220FFF763FF002240210A486F
:1040E000FEF7C6F9681EC5B2002DE2DC064800687E
:1040F00020F44040044908600846006840F48040CD
:104100000860204670BD0000000C024070B50446F7
:10411000002500F023F8602000F05AF86420FFF733
:104120003FFF204600F054F86420FFF739FF00F00D
:1041300033F86420FFF734FF00F010F8612000F03E
:1041400047F86420FFF72CFFFFF7A6FF0546FFF7AF
:104150007FFF00F021F8284670BD000010B5012255
:1041600080210C48FEF784F9012240210948FEF71E
:104170007FF93220FFF714FF002280210548FEF767
:1041800077F93220FFF70CFF002240210148FEF7AB
:104190006FF910BD000C024010B5002280210B48C1
:1041A000FEF766F93220FFF7FBFE012240210748A7
:1041B000FEF75EF93220FFF7F3FE0122802103486B
:1041C000FEF756F93220FFF7EBFE10BD000C02405F
:1041D00070B50446002621E004F0800028B10122D9
:1041E00080212648FEF744F904E00022802123487C
:1041F000FEF73EF96006040E3220FFF7D1FE0122E1
:1042000040211E48FEF734F93220FFF7C9FE002294
:1042100040211A48FEF72CF9701CC6B2082EDBDBD1
:104220001648006820F440401449086008460068B9
:1042300008603220FFF7B4FE012240210F48FEF74C
:1042400017F93220FFF7ACFE80210C48FEF708F981
:1042500008B1012500E00025002240210748FEF7B3
:1042600007F90648006820F4404004490860084601
:10427000006840F480400860284670BD000C024091
:1042800070B505460C460026FFF768FF6020FFF773
:104290009FFF00B101266420FFF782FE2846FFF74A
:1042A00097FF00B101266420FFF77AFE2046FFF752
:1042B0008FFF00B10126FFF76FFF304670BD7047DA
:1042C00010B5FEF7E1F810BD00B593B0302107A896
:1042D000FBF7AEFF142102A8FBF7AAFF00BF0020E6
:1042E00001902448006840F0805022490860084648
:1042F000006800F08050019000BF00BF00BF0020A8
:1043000001901D48006840F480401B490860084641
:10431000006800F48040019000BF00BF01200790BA
:104320000004089002200D9041050E9104210F9188
:10433000A8211091022111910421129107A8FEF7E2
:10434000B9FA08B1FCF75EFA0F2002900220039040
:10435000002004904FF4A05005904FF48050069038
:10436000052102A8FEF766F908B1FCF74BFA13B075
:1043700000BD000040380240007000400548006861
:1043800040F47000034908604FF000600149803933
:104390000860704788ED00E010B53220FDF7E4FEBC
:1043A000D320FFF763FBFFF773F8FE498880FFF720
:1043B0006FF8FC498880FFF76BF8FA498880084657
:1043C00080884FF6FF7101EA0020F6498880FFF7E8
:1043D0005FF8F44989880843F24988800846808854
:1043E00049F24131884278D0D420FFF73FFBFFF7F4
:1043F0004FF8EC498880FFF74BF8EA498880FFF7CF
:1044000047F8E8498880084680884FF6FF7101EA3E
:104410000020E4498880FFF73BF8E2498988084397
:10442000E04988800846808845F21031884254D09F
:104430004FF45A40FFF71AFBFFF72AF8D949888052
:104440004FF45B40FFF712FBFFF722F8D549888055
:10445000084680884FF6FF7101EA0020D149888024
:104460004FF45C40FFF702FBFFF712F8CD49898853
:104470000843CC49888008468088B0F5004F02D1B7
:1044800045F210508880C748808845F21051884214
:1044900023D0A120FFF7EAFAFEF7FAFFC14988808E
:1044A000FEF7F6FFBF498880084680884FF6FF7107
:1044B00001EA0020BB498880FEF7EAFFB9498988F4
:1044C0000843B84988800846808845F2617188426F
:1044D00003D141F66310B3498880B248808849F21D
:1044E000413188427ED1CF20FFF7C0FA0020FFF78C
:1044F000B1FAC120FFF7AEFA3020FFF7ABFAED209A
:10450000FFF7B4FA6420FFF7A5FA0320FFF7A2FA39
:104510001220FFF79FFA8120FFF79CFAE820FFF7AF
:10452000A5FA8520FFF796FA1020FFF793FA7A2074
:10453000FFF790FACB20FFF799FA3920FFF78AFAB4
:104540002C20FFF787FA0020FFF784FA3420FFF7CA
:1045500081FA0220FFF77EFAF720FFF787FA202082
:10456000FFF778FAEA20FFF781FA0020FFF772FAE6
:104570000020FFF76FFAC020FFF778FA1B20FFF743
:1045800069FAC120FFF772FA0120FFF763FAC5202C
:10459000FFF76CFA3020FFF75DFA3020FFF75AFA88
:1045A000C720FFF763FAB720FFF754FA3620FFF76A
:1045B0005DFA4820FFF74EFA3A20FFF757FA5520E8
:1045C000FFF748FAB120FFF751FA0020FFF742FA4F
:1045D0001A20FFF73FFAB620FFF748FA0A20FFF744
:1045E00039FA00E097E0A220FFF734FAF220FFF753
:1045F0003DFA0020FFF72EFA2620FFF737FA0120B8
:10460000FFF728FAE020FFF731FA0F20FFF722FA30
:104610002A20FFF71FFA2820FFF71CFA0820FFF7CF
:1046200019FA0E20FFF716FA0820FFF713FA5420A4
:10463000FFF710FAA920FFF70DFA4320FFF70AFA57
:104640000A20FFF707FA0F20FFF704FA0020FFF710
:1046500001FA0020FFF7FEF90020FFF7FBF9002028
:10466000FFF7F8F9E120FFF701FA0020FFF7F2F970
:104670001520FFF7EFF91720FFF7ECF90720FFF7F8
:10468000E9F91120FFF7E6F90620FFF7E3F92B20FF
:10469000FFF7E0F95620FFF7DDF93C20FFF7DAF9E4
:1046A0000520FFF7D7F91020FFF7D4F90F20FFF707
:1046B000D1F93F20FFF7CEF93F20FFF7CBF90F20CC
:1046C000FFF7C8F92B20FFF7D1F90020FFF7C2F957
:1046D0000020FFF7BFF90120FFF7BCF93F20FFF7EB
:1046E000B9F92A20FFF7C2F90020FFF7B3F900203B
:1046F000FFF7B0F90020FFF7ADF9EF20FFF7AAF9B7
:104700001120FFF7B3F97820FDF72EFD2920FFF7E0
:10471000ADF901F0CBBF2348808845F210318842C3
:1047200040F07C87ED20FFF7A1F90120FFF792F917
:10473000FE20FFF78FF9EE20FFF798F9DE20FFF754
:1047400089F92120FFF786F9F120FFF78FF9012081
:10475000FFF780F9DF20FFF789F91020FFF77AF9DA
:10476000C420FFF783F98F20FFF774F9C620FFF705
:104770007DF90020FFF76EF9E220FFF76BF9E220E8
:10478000FFF768F9E220FFF765F9BF20FFF76EF940
:10479000AA20FFF75FF9B020FFF768F90D20FFF7B7
:1047A00059F901E0E40100200020FFF753F90D2042
:1047B000FFF750F90020FFF74DF91120FFF74AF9F4
:1047C0000020FFF747F91920FFF744F90020FFF711
:1047D00041F92120FFF73EF90020FFF73BF92D209A
:1047E000FFF738F90020FFF735F93D20FFF732F9E0
:1047F0000020FFF72FF95D20FFF72CF90020FFF7CD
:1048000029F95D20FFF726F90020FFF723F9B120F1
:10481000FFF72CF98020FFF71DF90020FFF71AF9A8
:104820008B20FFF717F90020FFF714F99620FFF708
:1048300011F90020FFF70EF9B220FFF717F9002059
:10484000FFF708F90020FFF705F90220FFF702F94A
:104850000020FFF7FFF80320FFF7FCF80020FFF728
:10486000F9F8B320FFF702F90020FFF7F3F8002072
:10487000FFF7F0F80020FFF7EDF80020FFF7EAF867
:104880000020FFF7E7F80020FFF7E4F80020FFF72B
:10489000E1F80020FFF7DEF80020FFF7DBF800204A
:1048A000FFF7D8F80020FFF7D5F80020FFF7D2F87F
:1048B0000020FFF7CFF80020FFF7CCF80020FFF72B
:1048C000C9F80020FFF7C6F80020FFF7C3F8002062
:1048D000FFF7C0F80020FFF7BDF80020FFF7BAF897
:1048E0000020FFF7B7F80020FFF7B4F80020FFF72B
:1048F000B1F80020FFF7AEF8B420FFF7B7F88B202F
:10490000FFF7A8F80020FFF7A5F89620FFF7A2F818
:104910000020FFF79FF8A120FFF79CF80020FFF789
:1049200099F8B520FFF7A2F80220FFF793F80020CE
:10493000FFF790F80320FFF78DF80020FFF78AF8C3
:104940000420FFF787F80020FFF784F8B620FFF770
:104950008DF80020FFF77EF80020FFF77BF8B720E6
:10496000FFF784F80020FFF775F80020FFF772F8D2
:104970003F20FFF76FF80020FFF76CF85E20FFF78D
:1049800069F80020FFF766F86420FFF763F800205D
:10499000FFF760F88C20FFF75DF80020FFF75AF86A
:1049A000AC20FFF757F80020FFF754F8DC20FFF7A2
:1049B00051F80020FFF74EF87020FFF74BF8002069
:1049C000FFF748F89020FFF745F80020FFF742F87E
:1049D000EB20FFF73FF80020FFF73CF8DC20FFF763
:1049E00039F80020FFF736F8B820FFF73FF800202D
:1049F000FFF730F80020FFF72DF80020FFF72AF826
:104A00000020FFF727F80020FFF724F80020FFF729
:104A100021F80020FFF71EF80020FFF71BF8BA204E
:104A2000FFF724F82420FFF715F80020FFF712F80D
:104A30000020FFF70FF80020FFF70CF8C120FFF768
:104A400015F82020FFF706F80020FFF703F85420A0
:104A5000FFF700F80020FEF7FDFFFF20FEF7FAFF4A
:104A60000020FEF7F7FFC220FFF700F80A20FEF74C
:104A7000F1FF0020FEF7EEFF0420FEF7EBFF002021
:104A8000FEF7E8FFC320FEF7F1FF3C20FEF7E2FF50
:104A90000020FEF7DFFF3A20FEF7DCFF0020FEF7E4
:104AA000D9FF3920FEF7D6FF0020FEF7D3FF3720CD
:104AB000FEF7D0FF0020FEF7CDFF3C20FEF7CAFF37
:104AC0000020FEF7C7FF3620FEF7C4FF0020FEF7E8
:104AD000C1FF3220FEF7BEFF0020FEF7BBFF2F20F4
:104AE000FEF7B8FF0020FEF7B5FF2C20FEF7B2FF5F
:104AF0000020FEF7AFFF2920FEF7ACFF0020FEF7F5
:104B0000A9FF2620FEF7A6FF0020FEF7A3FF242022
:104B1000FEF7A0FF0020FEF79DFF2420FEF79AFF7E
:104B20000020FEF797FF2320FEF794FF0020FEF7FA
:104B300091FF3C20FEF78EFF0020FEF78BFF362012
:104B4000FEF788FF0020FEF785FF3220FEF782FF88
:104B50000020FEF77FFF2F20FEF77CFF0020FEF7EE
:104B600079FF2C20FEF776FF0020FEF773FF292047
:104B7000FEF770FF0020FEF76DFF2620FEF76AFFAC
:104B80000020FEF767FF2420FEF764FF0020FEF7F9
:104B900061FF2420FEF75EFF0020FEF75BFF23206D
:104BA000FEF758FF0020FEF755FFC420FEF75EFF1A
:104BB0006220FEF74FFF0020FEF74CFF0520FEF7B6
:104BC00049FF0020FEF746FF8420FEF743FF002048
:104BD000FEF740FFF020FEF73DFF0020FEF73AFF12
:104BE0001820FEF737FF0020FEF734FFA420FEF761
:104BF00031FF0020FEF72EFF1820FEF72BFF0020CC
:104C0000FEF728FF5020FEF725FF0020FEF722FFC9
:104C10000C20FEF71FFF0020FEF71CFF1720FEF7F9
:104C200019FF0020FEF716FF9520FEF713FF002066
:104C3000FEF710FFF320FEF70DFF0020FEF70AFF3E
:104C4000E620FEF707FF0020FEF704FFC520FEF771
:104C50000DFF3220FEF7FEFE0020FEF7FBFE442093
:104C6000FEF7F8FE0020FEF7F5FE6520FEF7F2FEE7
:104C70000020FEF7EFFE7620FEF7ECFE0020FEF7A8
:104C8000E9FE8820FEF7E6FE0020FEF7E3FEC620E0
:104C9000FEF7ECFE2020FEF7DDFE0020FEF7DAFE38
:104CA0001720FEF7D7FE0020FEF7D4FE0120FEF706
:104CB000D1FE0020FEF7CEFEC720FEF7D7FE002073
:104CC000FEF7C8FE0020FEF7C5FE0020FEF7C2FE7C
:104CD0000020FEF7BFFEC820FEF7C8FE0020FEF74A
:104CE000B9FE0020FEF7B6FE0020FEF7B3FE00205E
:104CF000FEF7B0FEC920FEF7B9FE0020FEF7AAFEBF
:104D00000020FEF7A7FE0020FEF7A4FE0020FEF71D
:104D1000A1FE0020FEF79EFE0020FEF79BFE002075
:104D2000FEF798FE0020FEF795FE0020FEF792FEAB
:104D30000020FEF78FFE0020FEF78CFE0020FEF71D
:104D400089FE0020FEF786FE0020FEF783FE00208D
:104D5000FEF780FE0020FEF77DFEE020FEF786FED7
:104D60001620FEF777FE0020FEF774FE1C20FEF7EB
:104D700071FE0020FEF76EFE2120FEF76BFE002084
:104D8000FEF768FE3620FEF765FE0020FEF762FEA5
:104D90004620FEF75FFE0020FEF75CFE5220FEF785
:104DA00059FE0020FEF756FE6420FEF753FE002059
:104DB000FEF750FE7A20FEF74DFE0020FEF74AFE79
:104DC0008B20FEF747FE0020FEF744FE9920FEF7F9
:104DD00041FE0020FEF73EFEA820FEF73BFE00202D
:104DE000FEF738FEB920FEF735FE0020FEF732FE52
:104DF000C420FEF72FFE0020FEF72CFECA20FEF78F
:104E000029FE0020FEF726FED220FEF723FE00201A
:104E1000FEF720FED920FEF71DFE0020FEF71AFE49
:104E2000E020FEF717FE0020FEF714FEF320FEF749
:104E300011FE0020FEF70EFEE120FEF717FE162001
:104E4000FEF708FE0020FEF705FE1C20FEF702FE1E
:104E50000020FEF7FFFD2220FEF7FCFD0020FEF7FC
:104E6000F9FD3620FEF7F6FD0020FEF7F3FD4520A4
:104E7000FEF7F0FD0020FEF7EDFD5220FEF7EAFD03
:104E80000020FEF7E7FD6420FEF7E4FD0020FEF7BA
:104E9000E1FD7A20FEF7DEFD0020FEF7DBFD8B2032
:104EA000FEF7D8FD0020FEF7D5FD9920FEF7D2FDD4
:104EB0000020FEF7CFFDA820FEF7CCFD0020FEF776
:104EC000C9FDB920FEF7C6FD0020FEF7C3FDC420D2
:104ED000FEF7C0FD0020FEF7BDFDCA20FEF7BAFDBB
:104EE0000020FEF7B7FDD220FEF7B4FD0020FEF74C
:104EF000B1FDD820FEF7AEFD0020FEF7ABFDE020AF
:104F0000FEF7A8FD0020FEF7A5FDF320FEF7A2FDA9
:104F10000020FEF79FFDE220FEF7A8FD0520FEF72A
:104F200099FD0020FEF796FD0B20FEF793FD002073
:104F3000FEF790FD1B20FEF78DFD0020FEF78AFD99
:104F40003420FEF787FD0020FEF784FD4420FEF7A5
:104F500081FD0020FEF77EFD4F20FEF77BFD002047
:104F6000FEF778FD6120FEF775FD0020FEF772FD6B
:104F70007920FEF76FFD0020FEF76CFD8820FEF71C
:104F800069FD0020FEF766FD9720FEF763FD002017
:104F9000FEF760FDA620FEF75DFD0020FEF75AFD3E
:104FA000B720FEF757FD0020FEF754FDC220FEF7A4
:104FB00051FD0020FEF74EFDC720FEF74BFD0020FF
:104FC000FEF748FDD120FEF745FD0020FEF742FD2B
:104FD000D620FEF73FFD0020FEF73CFDDD20FEF76A
:104FE00039FD0020FEF736FDF320FEF733FD0020EB
:104FF000FEF730FDE320FEF739FD0520FEF72AFD20
:105000000020FEF727FD0A20FEF724FD0020FEF712
:1050100021FD1C20FEF71EFD0020FEF71BFD3320A6
:10502000FEF718FD0020FEF715FD4420FEF712FDE7
:105030000020FEF70FFD5020FEF70CFD0020FEF7CC
:1050400009FD6220FEF706FD0020FEF703FD782033
:10505000FEF700FD0020FEF7FDFC8820FEF7FAFCBD
:105060000020FEF7F7FC9720FEF7F4FC0020FEF787
:10507000F1FCA620FEF7EEFC0020FEF7EBFCB720CB
:10508000FEF7E8FC0020FEF7E5FCC220FEF7E2FC9C
:105090000020FEF7DFFCC720FEF7DCFC0020FEF757
:1050A000D9FCD120FEF7D6FC0020FEF7D3FCD5209A
:1050B000FEF7D0FC0020FEF7CDFCDD20FEF7CAFC99
:1050C0000020FEF7C7FCF320FEF7C4FC0020FEF72B
:1050D000C1FCE420FEF7CAFC0120FEF7BBFC002067
:1050E000FEF7B8FC0120FEF7B5FC0020FEF7B2FC8D
:1050F0000220FEF7AFFC0020FEF7ACFC2A20FEF7F2
:10510000A9FC0020FEF7A6FC3C20FEF7A3FC002033
:10511000FEF7A0FC4B20FEF79DFC0020FEF79AFC5A
:105120005D20FEF797FC0020FEF794FC7420FEF74C
:1051300091FC0020FEF78EFC8420FEF78BFC002003
:10514000FEF788FC9320FEF785FC0020FEF782FC2A
:10515000A220FEF77FFC0020FEF77CFCB320FEF7C8
:1051600079FC0020FEF776FCBE20FEF773FC0020E1
:10517000FEF770FCC420FEF76DFC0020FEF76AFC11
:10518000CD20FEF767FC0020FEF764FCD320FEF77D
:1051900061FC0020FEF75EFCDD20FEF75BFC0020DA
:1051A000FEF758FCF320FEF755FC0020FEF752FCFA
:1051B000E520FEF75BFC0020FEF74CFC0020FEF72C
:1051C00049FC0020FEF746FC0020FEF743FC0220CD
:1051D000FEF740FC0020FEF73DFC2920FEF73AFCDC
:1051E0000020FEF737FC3C20FEF734FC0020FEF7E1
:1051F00031FC4B20FEF72EFC0020FEF72BFC5D203F
:10520000FEF728FC0020FEF725FC7420FEF722FCA8
:105210000020FEF71FFC8420FEF71CFC0020FEF798
:1052200019FC9320FEF716FC0020FEF713FCA220C9
:10523000FEF710FC0020FEF70DFCB320FEF70AFC81
:105240000020FEF707FCBE20FEF704FC0020FEF75E
:1052500001FCC420FEF7FEFB0020FEF7FBFBCD2087
:10526000FEF7F8FB0020FEF7F5FBD320FEF7F2FB7C
:105270000020FEF7EFFBDC20FEF7ECFB0020FEF742
:10528000E9FBF320FEF7E6FB0020FEF7E3FBE62058
:10529000FEF7ECFB1120FEF7DDFB0020FEF7DAFB4A
:1052A0003420FEF7D7FB0020FEF7D4FB5620FEF794
:1052B000D1FB0020FEF7CEFB7620FEF7CBFB0020D3
:1052C000FEF7C8FB7720FEF7C5FB0020FEF7C2FB08
:1052D0006620FEF7BFFB0020FEF7BCFB8820FEF730
:1052E000B9FB0020FEF7B6FB9920FEF7B3FB0020C8
:1052F000FEF7B0FBBB20FEF7ADFB0020FEF7AAFBDC
:105300009920FEF7A7FB0020FEF7A4FB6620FEF71E
:10531000A1FB0020FEF79EFB5520FEF79BFB002023
:10532000FEF798FB5520FEF795FB0020FEF792FB59
:105330004520FEF78FFB0020FEF78CFB4320FEF795
:1053400089FB0020FEF786FB4420FEF783FB00204C
:10535000FEF780FBE720FEF789FB3220FEF77AFBA1
:105360000020FEF777FB5520FEF774FB0020FEF7C8
:1053700071FB7620FEF76EFB0020FEF76BFB6620CC
:10538000FEF768FB0020FEF765FB6720FEF762FB77
:105390000020FEF75FFB6720FEF75CFB0020FEF7B6
:1053A00059FB8720FEF756FB0020FEF753FB9920A0
:1053B000FEF750FB0020FEF74DFBBB20FEF74AFB3B
:1053C0000020FEF747FB9920FEF744FB0020FEF784
:1053D00041FB7720FEF73EFB0020FEF73BFB44201D
:1053E000FEF738FB0020FEF735FB5620FEF732FBB8
:1053F0000020FEF72FFB2320FEF72CFB0020FEF7FA
:1054000029FB3320FEF726FB0020FEF723FB452077
:10541000FEF720FB0020FEF71DFBE820FEF726FB31
:105420000020FEF717FB0020FEF714FB9920FEF783
:1054300011FB0020FEF70EFB8720FEF70BFB002080
:10544000FEF708FB8820FEF705FB0020FEF702FBB5
:105450007720FEF7FFFA0020FEF7FCFA6620FEF741
:10546000F9FA0020FEF7F6FA8820FEF7F3FA00209A
:10547000FEF7F0FAAA20FEF7EDFA0020FEF7EAFAAE
:10548000BB20FEF7E7FA0020FEF7E4FA9920FEF7CA
:10549000E1FA0020FEF7DEFA6620FEF7DBFA0020D4
:1054A000FEF7D8FA5520FEF7D5FA0020FEF7D2FA1B
:1054B0005520FEF7CFFA0020FEF7CCFA4420FEF785
:1054C000C9FA0020FEF7C6FA4420FEF7C3FA00200E
:1054D000FEF7C0FA5520FEF7BDFA0020FEF7BAFA33
:1054E000E920FEF7C3FAAA20FEF7B4FA0020FEF77F
:1054F000B1FA0020FEF7AEFA0020FEF7ABFA00206A
:10550000FEF7B4FAAA20FEF7A5FACF20FEF7AEFA0E
:105510000020FEF79FFA0020FEF79CFA0020FEF71D
:1055200099FA0020FEF796FA0020FEF793FA002081
:10553000FEF790FA0020FEF78DFA0020FEF78AFAB7
:105540000020FEF787FA0020FEF784FA0020FEF71D
:1055500081FA0020FEF77EFA0020FEF77BFA002099
:10556000FEF778FA0020FEF775FA0020FEF772FACF
:105570000020FEF76FFAF020FEF778FA0020FEF721
:1055800069FA5020FEF766FA0020FEF763FA002061
:10559000FEF760FA0020FEF75DFAF320FEF766FAE8
:1055A0000020FEF757FAF920FEF760FA0620FEF712
:1055B00051FA1020FEF74EFA2920FEF74BFA002090
:1055C000FEF748FA3A20FEF751FA5520FEF742FA64
:1055D0001120FEF74BFA6420FCF7C6FD2920FEF7E8
:1055E00045FA3520FEF742FA0020FEF733FA512043
:1055F000FEF73CFAFF20FEF72DFA5320FEF736FAAD
:105600002C20FEF727FA5520FEF730FA8220FEF70D
:1056100021FA2C20FEF72AFA01F048B8FE488088CB
:1056200045F2105188427DD155214FF47040FEF76C
:1056300033FAAA214FF20100FEF72EFA52214FF25F
:105640000200FEF729FA08214FF20300FEF724FAC0
:1056500001214FF20400FEF71FFA0D214FF43040F4
:10566000FEF71AFA0D214BF20100FEF715FA0D2193
:105670004BF20200FEF710FA34214FF43640FEF7E9
:105680000BFA34214BF20160FEF706FA34214BF29B
:105690000260FEF701FA0D214FF43140FEF7FCF9EC
:1056A0000D214BF20110FEF7F7F90D214BF202101C
:1056B000FEF7F2F934214FF43740FEF7EDF93421CB
:1056C0004BF20170FEF7E8F934214BF20270FEF75D
:1056D000E3F900214FF43240FEF7DEF900214BF2EE
:1056E0000120FEF7D9F900214BF20220FEF7D4F990
:1056F00024214FF43840FEF7CFF924214BF6010066
:10570000FEF7CAF924214BF60200FEF7C5F9012184
:105710004FF43F40FEF7C0F90F214FF43340FEF73E
:10572000BBF900E0FDE30F214BF20130FEF7B4F9C5
:105730000F214BF20230FEF7AFF934214FF439401C
:10574000FEF7AAF934214BF60110FEF7A5F9342132
:105750004BF60210FEF7A0F908214FF43540FEF792
:105760009BF908214BF20150FEF796F908214BF204
:105770000250FEF791F903214FF44240FEF78CF9F5
:1057800024214FF43A40FEF787F924214BF60120FB
:10579000FEF782F924214BF60220FEF77DF9002165
:1057A0004FF43C40FEF778F978214BF60140FEF7C4
:1057B00073F900214BF60240FEF76EF900214FF419
:1057C0003D40FEF769F978214BF60150FEF764F988
:1057D00000214BF60250FEF75FF900214FF43E40E6
:1057E000FEF75AF964214BF60160FEF755F90021E6
:1057F0004FF45140FEF750F933214DF20110FEF7FE
:105800004BF900214DF20210FEF746F934214DF21A
:105810000310FEF741F900214DF20410FEF73CF9A8
:105820003A214DF20510FEF737F900214DF206102E
:10583000FEF732F94A214DF20710FEF72DF900214B
:105840004DF20810FEF728F95C214DF20910FEF721
:1058500023F900214DF20A10FEF71EF981214DF2C5
:105860000B10FEF719F900214DF20C10FEF714F998
:10587000A6214DF20D10FEF70FF900214DF20E108A
:10588000FEF70AF9E5214DF20F10FEF705F90121A7
:105890004DF21010FEF700F913214DF21110FEF732
:1058A000FBF801214DF21210FEF7F6F854214DF2EB
:1058B0001310FEF7F1F801214DF21410FEF7ECF889
:1058C00082214DF21510FEF7E7F801214DF2161076
:1058D000FEF7E2F8CA214DF21710FEF7DDF80221BB
:1058E0004DF21810FEF7D8F800214DF21910FEF70E
:1058F000D3F802214DF21A10FEF7CEF801214DF235
:105900001B10FEF7C9F802214DF21C10FEF7C4F877
:1059100034214DF21D10FEF7BFF802214DF21E108A
:10592000FEF7BAF867214DF21F10FEF7B5F8022115
:105930004DF22010FEF7B0F884214DF22110FEF751
:10594000ABF802214DF22210FEF7A6F8A4214DF289
:105950002310FEF7A1F802214DF22410FEF79CF867
:10596000B7214DF22510FEF797F802214DF22610CF
:10597000FEF792F8CF214DF22710FEF78DF80221A5
:105980004DF22810FEF788F8DE214DF22910FEF7BF
:1059900083F802214DF22A10FEF77EF8F2214DF233
:1059A0002B10FEF779F802214DF22C10FEF774F857
:1059B000FE214DF22D10FEF76FF803214DF22E104F
:1059C000FEF76AF810214DF22F10FEF765F803215B
:1059D0004DF23010FEF760F833214DF23110FEF732
:1059E0005BF803214DF23210FEF756F86D214DF2AF
:1059F0003310FEF751F800214FF45240FEF74CF8F7
:105A000033214DF20120FEF747F800214DF202202C
:105A1000FEF742F8342101E0E40100204DF20320BA
:105A2000FEF73AF800214DF20420FEF735F83A214E
:105A30004DF20520FEF730F800214DF20620FEF76A
:105A40002BF84A214DF20720FEF726F800214DF2EF
:105A50000820FEF721F85C214DF20920FEF71CF822
:105A600000214DF20A20FEF717F881214DF20B209C
:105A7000FEF712F800214DF20C20FEF70DF8A621DA
:105A80004DF20D20FEF708F800214DF20E20FEF732
:105A900003F8E5214DF20F20FDF7FEFF01214DF245
:105AA0001020FDF7F9FF13214DF21120FDF7F4FF4F
:105AB00001214DF21220FDF7EFFF54214DF213208A
:105AC000FDF7EAFF01214DF21420FDF7E5FF8221E9
:105AD0004DF21520FDF7E0FF01214DF21620FDF7F4
