:020000040800F2
:10000000380600209D010008453D00081332000815
:10001000ED3B0008A9020008695F0008000000002D
:10002000000000000000000000000000D3410008B4
:10003000EB040008000000008F3E0008D5410008D6
:10004000B7010008B7010008B7010008B7010008B0
:10005000B7010008B7010008B7010008B7010008A0
:10006000B7010008B7010008B7010008B701000890
:10007000B7010008B7010008B7010008B701000880
:10008000B7010008B7010008B7010008B701000870
:10009000B7010008B7010008B7010008B701000860
:1000A000B7010008B7010008B7010008B701000850
:1000B000B7010008B7010008B7010008B701000840
:1000C000B7010008B7010008B7010008B701000830
:1000D000B7010008315F0008B7010008B701000848
:1000E000B7010008B7010008B7010008B701000810
:1000F000B7010008B7010008B7010008B701000800
:10010000B7010008B7010008B7010008B7010008EF
:10011000B7010008B7010008B7010008E958000856
:10012000B7010008A1030008B7010008B7010008E3
:10013000B7010008B7010008B7010008B7010008BF
:10014000B7010008B7010008B7010008B7010008AF
:10015000B7010008B7010008B1030008B7010008A3
:10016000B7010008B7010008B7010008B70100088F
:10017000B7010008B7010008910300080000000063
:10018000B7010008B7010008DFF80CD000F07AF8DA
:1001900000480047A1600008380600200648804754
:1001A00006480047FEE7FEE7FEE7FEE7FEE7FEE75C
:1001B000FEE7FEE7FEE7FEE7E142000889010008EE
:1001C0002DE9F05F0546002092469B46884606468C
:1001D000814640241BE0284641464746224600F01F
:1001E00041F853465A46C01A914110D31146184659
:1001F000224600F028F82D1A67EB01084F462246E8
:100200000120002100F01FF817EB00094E41201ECD
:10021000A4F10104DFDC484631462A464346BDE8E6
:10022000F09FD2B201E000F8012B491EFBD27047CB
:100230000022F6E710B513460A4604461946FFF7B2
:10024000F0FF204610BD202A04DB203A00FA02F11C
:10025000002070479140C2F1200320FA03F31943B4
:1002600090407047202A04DB203A21FA02F0002156
:10027000704721FA02F3D040C2F1200291400843B6
:1002800019467047064C074D06E0E06840F0010350
:1002900094E8070098471034AC42F6D3FFF778FF94
:1002A000707D0008907D000800BFFEE770B5054630
:1002B000AC6BA06B406D022802D0012084F82500B1
:1002C000204600F0AAF970BD70B506460025B46B53
:1002D000A06A68B3A06B0068006800F40025A06AFB
:1002E00000F0010078B975B1A06B0068C568E26ADA
:1002F000082303FB02510022A06B00F0BAFBA06AA6
:10030000401EA0622FE0A06B0068006800F400208F
:1003100048BBA06B00680569E26A082303FB025131
:100320000122A06B00F0A5FBA06A401EA0621AE0AB
:10033000A06B0068006800F4002020B1D4E90D0132
:100340000968C8600FE0A06B0068006800F4002036
:1003500048B9656BE06A042101FB0050A16B096894
:100360000861206BA062A06A216B88420ED12068D0
:10037000C06840F001002168C8602068006800F093
:100380000200022802D1012084F8250070BD00007F
:1003900010B5024800F044F910BD000048000020EC
:1003A00010B5024801F0C4FB10BD00008800002019
:1003B00010B5024801F0BCFB10BD00006801002030
:1003C0000146087810381823B0FBF3F20848805C27
:1003D000C865032A05D908686FF30900001D886500
:1003E00003E008686FF309008865886D70470000B6
:1003F000F2620008014600208A6A8B69CBB932B1EB
:10040000012A0DD0022A03D0032A10D10EE000BF2A
:10041000CB6A03F08073B3F1807F00D1012007E045
:10042000CB6AB3F1C07F00D1012001E000E000BF42
:1004300034E08B69B3F5005F1AD132B1012A07D0DD
:10044000022A03D0032A11D10AE000BF01200EE0E6
:10045000CB6A03F08073B3F1807F00D1012006E006
:10046000CB6AB3F1C07F00D1012000E000BF15E0EE
:1004700032B1012A05D0022A04D0032A0CD103E0AC
:1004800000BF00BF012008E0CB6A03F08073B3F126
:10049000807F00D1012000E000BF00BF704710B591
:1004A000046863608468402C04D10468A260046816
:1004B000E16003E00468A1600468E26010BD30B54B
:1004C0000468246824F4802405682C600468636050
:1004D0008468402C04D10468A2600468E16003E0F1
:1004E0000468A1600468E26030BD70477047000096
:1004F00070B504461D460023B5F5804F13D154F85E
:1005000022300C480340D1E9000640EA06108E680C
:1005100040EA06208E8940EA06408E693043034354
:1005200044F8223003E06FF0704044F822000020CD
:1005300070BD00000000F0CF10B50346002208682F
:1005400053F8202012480240D1E901042043CC682E
:1005500020430C6920434C6920438C692043CC69BB
:1005600020430C6A20434C6A20438C6A2043CC6AA7
:100570002043CC6B20430C6B20430243886808283F
:1005800001D142F04002086843F82020002010BD4D
:100590008000F0FF30B503460024501C53F8204083
:1005A00004F04044D1E9000540EA05108D6840EAB6
:1005B00005208D8940EA0545088A401E45EA005518
:1005C000087D801E45EA00608D6928430443501C65
:1005D00043F82040002030BD03467AB9012B06D1F4
:1005E00009B1032901D1012016E0022014E009B16C
:1005F000032901D100200FE003200DE033B909B138
:10060000032901D1012007E0022005E009B10329F7
:1006100001D1002000E003207047704770470000C0
:1006200070B504462068056905F0040004280ED161
:1006300021684861E06B40F00200E063042084F828
:1006400025002248A16B0865A06B01F05CFA05F05B
:10065000020002280ED121684861E06B40F00100E1
:10066000E063042084F825001848A16B0865A06B9E
:1006700001F049FA05F01000102804D12168486102
:10068000204600F068F805F00800082804D1216829
:100690004861204600F0ECF905F00100A0B12068A7
:1006A000006800F00200022805D12068C06820F030
:1006B0001E002168C8602068C06820F00100216821
:1006C000C8602046FFF7AAFF70BD0000AD02000819
:1006D00010B504460CB9012010BD94F8250010B9DE
:1006E000204600F039F8022084F8250020680068D0
:1006F00040F6F871884321680860616960680843C2
:10070000E168084321690843A1680843A1690843D7
:10071000216A084321680968084321680860606805
:1007200010280BD1217F607F41EA0021A07F41EAA0
:100730000041E07F41EA0060216888612068C0686C
:1007400040F01E002168C8600020E063012084F8AA
:1007500025000020C0E7704710B586B0044614217C
:1007600001A8FFF765FD5C49206888427ED100BF83
:10077000002000905948006840F001005749086087
:100780000846006800F00100009000BF00BF00BFF5
:1007900000200090081F006840F01000091F08604A
:1007A0000846006800F01000009000BF00BF00BFC6
:1007B000002000900846006840F0010008600846EC
:1007C000006800F00100009000BF00BF00BF0020E3
:1007D00000900846006840F0040008600846006881
:1007E00000F00400009000BF00BF00BF0020009098
:1007F0000846006840F0020008600846006800F003
:100800000200009000BF00BF602001900220029013
:100810000020039004900D20059001A9304801F0BC
:10082000D5FB50200190022002900120039000206F
:1008300004900D20059001A92A4801F0C7FB4FF450
:100840003C600190022002900020039004900D2053
:10085000059001A9244801F0B9FBC02001900220B5
:1008600002900020039004900D2000E031E00590FC
:1008700001A91E4801F0AAFB1D481E4908604FF05F
:100880000070486000211B488160C16001614FF425
:1008900080514161490081614911C1614902016290
:1008A00004214162032181620021C162016301F0E0
:1008B0005FFA08B1FFF71AFE00BF0E48A063846319
:1008C00000BF002202214E2001F018FD4E2001F051
:1008D00005FD06B010BD0000000005503438024090
:1008E00000100240000002400008024000040240E4
:1008F00028640240880000202DE9F84304460F4692
:1009000015461E464FF0000800BF94F82400012849
:1009100002D10220BDE8F883012084F8240000BF42
:10092000022084F825002068006840F48040216897
:1009300008602068006820F00200216808602068D4
:1009400000683843216808602448A16BC8632448C4
:10095000A16BC8640020A16B0865A0622063B6F596
:10096000803F08D2226802F1280133462A46A06B54
:1009700001F074FA24E01948A16B48640120A062D8
:10098000E662656305E0E06A4008E062A06A400054
:10099000A062E06AB0F5803FF5D2A06A801EA06236
:1009A000A06A2063E06A042101FB0058E06A00901D
:1009B000226802F1280143462A46A06B00F062F843
:1009C0002068006840F001002168086000BF002036
:1009D00084F8240000BF00BF9CE70000C9020008A3
:1009E000AD02000838B50446204800680E21B0FB6F
:1009F000F1F00090002500BF94F82400012801D1F7
:100A0000022038BD012084F8240000BF022084F8B1
:100A100025002068006820F001002168086000BF00
:100A20000098411E009128B9E06B40F02000E0637F
:100A3000032505E02068006800F001000028EFD1E0
:100A400000BF2068006820F4804021680860A06B27
:100A500001F004F8E06BE063012084F8250000BF9A
:100A6000002084F8240000BF2846CAE714000020B4
:100A70007047034612B91868C16001E01868016147
:100A8000002070472DE9F04704460E4617461D46E4
:100A9000DDF820804FF00009A068802804D14000D4
:100AA00060650120BDE8F087E06B18B1606C08B1AB
:100AB000E06C18B9402060650120F3E700BF94F8AE
:100AC0003400012801D10220ECE7012084F8340031
:100AD00000BF94F83500012873D1022084F8350056
:100AE000002060652068006840F48020216808606C
:100AF0002068056143463A4631462046FFF7CFFC61
:100B0000FA49206888425DD9F9492068884201D1B4
:100B1000202052E0F54948392068884201D1202040
:100B20004BE0F34960312068884201D1202044E045
:100B3000EE4918312068884201D120203DE0EC497F
:100B400018312068884201D1C01436E0E7493039B5
:100B50002068884201D1C0142FE0E549783120682F
:100B6000884201D1C01428E0E04930312068884231
:100B700001D1C01421E0DE4930312068884202D121
:100B80004FF4001019E0D94918392068884202D181
:100B90004FF4001011E0D64990312068884202D10C
:100BA0004FF4001009E0D14948312068884202D151
:100BB0004FF4001001E04FF00060CC494C39086060
:100BC00020E1EFE3CA49A831206888425CD9C849CE
:100BD0002068884201D1202052E0C4494839206869
:100BE000884201D120204BE0C14960312068884211
:100BF00001D1202044E0BD4918312068884201D14C
:100C000020203DE0BA4918312068884201D1C01443
:100C100036E0B64930392068884201D1C0142FE04F
:100C2000B34978312068884201D1C01428E0AF4927
:100C300030312068884201D1C01421E0AC49303104
:100C40002068884202D14FF4001019E0A7491839F2
:100C50002068884202D14FF4001011E0A44990317D
:100C60002068884202D14FF4001009E09F494831C2
:100C70002068884202D14FF4001001E04FF000607C
:100C80009A4950390860BDE0994948312068884246
:100C90005CD997492068884201D1202052E09349CD
:100CA00048392068884201D120204BE090496031CA
:100CB0002068884201D1202044E08C491831206806
:100CC000884201D120203DE08949183120688842BE
:100CD00001D1C01436E0854930392068884201D1FD
:100CE000C0142FE0824978312068884201D1C014B5
:100CF00028E07E4930312068884201D1C01421E0CB
:100D00007B4930312068884202D14FF4001019E04D
:100D1000764918392068884202D14FF4001011E05A
:100D2000734990312068884202D14FF4001009E0E5
:100D30006E4948312068884202D14FF4001001E02A
:100D40004FF000606A491039C8605BE0684920686C
:100D5000884201D1202052E0644948392068884205
:100D600001D120204BE0624960312068884201D1E6
:100D7000202044E05D4918312068884201D12020BC
:100D80003DE05B4918312068884201D1C01436E04B
:100D9000564930392068884201D1C0142FE05449A7
:100DA00078312068884201D1C01428E04F493031A1
:100DB0002068884201D1C01421E04D4930312068BB
:100DC000884202D14FF4001019E0484918392068D0
:100DD000884202D14FF4001011E04549903120685B
:100DE000884202D14FF4001009E0404948312068A0
:100DF000884202D14FF4001001E04FF000603C49FE
:100E0000103988603949206888425CD9384920689F
:100E1000884201D1102052E0344948392068884284
:100E200001D110204BE0324960312068884201D165
:100E3000102044E02D4918312068884201D110204B
:100E40003DE02B4918312068884201D1001536E079
:100E5000264930392068884201D100152FE0244905
:100E600078312068884201D1001528E01F493031CF
:100E70002068884201D1001521E01D4930312068E9
:100E8000884202D14FF4801019E0184918392068BF
:100E9000884202D14FF4801011E01549903120684A
:100EA000884202D14FF4801009E01049483120688F
:100EB000884202D14FF4801001E04FF080600B496E
:100EC0004C39086020E10A49A831206888425FD97E
:100ED00007492068884201D1102055E0034948396C
:100EE0002068884206D110204EE00000586402407D
:100EF00010600240F8492068884201D1102043E088
:100F0000F6492068884201D110203DE0F249483975
:100F10002068884201D1001536E0F0494839206840
:100F2000884201D100152FE0EB4918312068884232
:100F300001D1001528E0E94918312068884201D123
:100F4000001521E0E44930392068884202D14FF48D
:100F5000801019E0E14930392068884202D14FF40D
:100F6000801011E0DC4930312068884202D14FF412
:100F7000801009E0D94930312068884202D14FF40D
:100F8000801001E04FF08060D44968390860BBE010
:100F9000D1491839206888425BD9CF496039206827
:100FA000884201D1102050E0CC4960392068884245
:100FB00001D1102049E0C8492068884201D11020A1
:100FC00043E0C6492068884201D110203DE0C24973
:100FD00048392068884201D1001536E0BF494839B8
:100FE0002068884201D100152FE0BB4918312068E4
:100FF000884201D1001528E0B8491831206888429C
:1010000001D1001521E0B44930392068884202D16D
:101010004FF4801019E0B14930392068884202D17C
:101020004FF4801011E0AC4930312068884202D181
:101030004FF4801009E0A94930312068884202D17C
:101040004FF4801001E04FF08060A3497039C86010
:101050005AE0A14960392068884201D1102050E04F
:101060009E4960392068884201D1102049E09A49A0
:101070002068884201D1102043E0984920688842C6
:1010800001D110203DE0944948392068884201D1BF
:10109000001536E0914948392068884201D1001591
:1010A0002FE08D4918312068884201D1001528E0D1
:1010B0008A4918312068884201D1001521E086490B
:1010C00030392068884202D14FF4801019E08349FA
:1010D00030392068884202D14FF4801011E07E49F7
:1010E00030312068884202D14FF4801009E07B49FA
:1010F00030312068884202D14FF4801001E04FF077
:101100008060754970398860744918392068884250
:101110005BD9714960392068884201D1082050E0CC
:101120006E4960392068884201D1082049E06A4947
:101130002068884201D1082043E06849206888423D
:1011400001D108203DE0644948392068884201D136
:10115000401536E0614948392068884201D1401580
:101160002FE05D4918312068884201D1401528E000
:101170005A4918312068884201D1401521E056496A
:1011800030392068884202D14FF4002019E05349D9
:1011900030392068884202D14FF4002011E04E49D6
:1011A00030312068884202D14FF4002009E04B49D9
:1011B00030312068884202D14FF4002001E04FF026
:1011C00000704649643908601FE14349483120688E
:1011D00088425BD9404960392068884201D10820A3
:1011E00050E03E4960392068884201D1082049E03A
:1011F00039492068884201D1082043E037492068F6
:10120000884201D108203DE03349483920688842AE
:1012100001D1401536E0314948392068884201D172
:1012200040152FE02C4918312068884201D1401523
:1012300028E02A4918312068884201D1401521E070
:10124000254930392068884202D14FF4002019E046
:10125000224930392068884202D14FF4002011E041
:101260001D4930312068884202D14FF4002009E046
:101270001A4930312068884202D14FF4002001E041
:101280004FF00070154968390860BEE012491839FE
:10129000206888425DD9104960392068884201D1B0
:1012A000082052E00D4960392068884201D10820A9
:1012B0004BE009492068884201D1082045E00749F0
:1012C0002068884201D108203FE00349483920685E
:1012D000884205D1401538E07060024070640240D9
:1012E000FA492068884201D140152EE0F84920686B
:1012F000884201D1401528E0F449603120688842D5
:1013000001D1401521E0F24948392068884202D1D4
:101310004FF4002019E0ED4918312068884202D1CD
:101320004FF4002011E0EA4918312068884202D1C8
:101330004FF4002009E0E54978312068884202D165
:101340004FF4002001E04FF00070E1498839C86097
:101350005BE0DF4978392068884201D1082051E0FC
:10136000DA4918392068884201D108204AE0D84972
:1013700018392068884201D1082043E0D349483118
:101380002068884201D108203CE0D14960392068BA
:10139000884201D1401535E0CC492068884202D10D
:1013A00040152FE04CE3CA492068884201D140151E
:1013B00028E0C64960312068884201D1401521E00B
:1013C000C34948392068884202D14FF4002019E00F
:1013D000BE4918312068884202D14FF4002011E044
:1013E000BB4918312068884202D14FF4002009E03F
:1013F000B64978312068884202D14FF4002001E0DC
:101400004FF00070B24988398860B04930312068A7
:1014100088425BD9AE4978392068884201D10420DE
:1014200050E0AA4918392068884201D1042049E0D7
:10143000A74918392068884201D1042042E0A34915
:1014400048312068884201D104203BE0A04960393E
:101450002068884201D1801534E09C492068884288
:1014600001D180152EE09A492068884201D180156B
:1014700028E0964960312068884201D1801521E03A
:10148000934948392068884202D14FF4802019E0FE
:101490008E4918312068884202D14FF4802011E033
:1014A0008B4918312068884202D14FF4802009E02E
:1014B000864978312068884202D14FF4802001E0CB
:1014C0004FF0807081491C3908601EE1804930313D
:1014D000206888425BD97E4978392068884201D1EA
:1014E000042050E0794918392068884201D104204D
:1014F00049E0774918392068884201D1042042E048
:10150000724948312068884201D104203BE070498B
:1015100060392068884201D1801534E06B49206829
:10152000884201D180152EE069492068884201D1A6
:10153000801528E0654960312068884201D1801516
:1015400021E0634948392068884202D14FF4802065
:1015500019E05E4918312068884202D14FF480209A
:1015600011E05B4918312068884202D14FF4802095
:1015700009E0564978312068884202D14FF4802032
:1015800001E04FF08070514920390860BDE05049BA
:101590003039206888425BD94D49783920688842C3
:1015A00001D1042050E0494918392068884201D10E
:1015B000042049E0464918392068884201D10420B6
:1015C00042E0424948312068884201D104203BE092
:1015D0003F4960392068884201D1801534E03B4999
:1015E0002068884201D180152EE039492068884260
:1015F00001D1801528E0354960312068884201D149
:10160000801521E0324948392068884202D14FF4E0
:10161000802019E02D4918312068884202D14FF40A
:10162000802011E02A4918312068884202D14FF405
:10163000802009E0254978312068884202D14FF4A2
:10164000802001E04FF0807021498839C8605CE05B
:101650001F4978392068884201D1042052E01B4993
:1016600018392068884201D104204BE01849183904
:101670002068884201D1042044E0144948312068A0
:10168000884201D104203DE0114960392068884238
:1016900001D1801536E00D492068884201D18015BE
:1016A00030E00B492068884201D180152AE00749C3
:1016B00060312068884201D1801523E0044948390F
:1016C0002068884206D14FF480201BE02864024045
:1016D00088600240DF492068884202D14FF48020B0
:1016E00010E0DD492068884202D14FF4802009E0F3
:1016F000D84960312068884202D14FF4802001E04F
:101700004FF08070D449A0398860D24918312068E0
:1017100088425BD9D04990392068884201D10120A4
:1017200050E0CC4930392068884201D1012049E09D
:10173000C94930392068884201D1012042E0C549B9
:1017400030312068884201D101203BE0C24978391C
:101750002068884201D1402034E0BE491839206811
:10176000884201D140202DE0BB49183920688842C9
:1017700001D1402026E0B74948312068884201D194
:1017800040201FE0B44960392068884202D14FF4FC
:10179000803017E0AF492068884202D14FF4803092
:1017A00010E0AD492068884202D14FF4803009E052
:1017B000A84960312068884202D14FF4803001E0AE
:1017C0004FF48000A349343908601CE1A249183164
:1017D000206888425BD9A04990392068884201D1AD
:1017E000012050E09B4930392068884201D1012016
:1017F00049E0994930392068884201D1012042E00E
:10180000944930312068884201D101203BE092495F
:1018100078392068884201D1402034E08D49183958
:101820002068884201D140202DE08B49183920687A
:10183000884201D1402026E086494831206888420C
:1018400001D140201FE0844960392068884202D1DC
:101850004FF4803017E07F492068884202D14FF46E
:10186000803010E07C492068884202D14FF48030FB
:1018700009E0784960312068884202D14FF4803015
:1018800001E04FF48000734938390860BBE07249C9
:101890004839206888425BD96F499039206888426E
:1018A00001D1012050E06B4930392068884201D1D4
:1018B000012049E0684930392068884201D101207F
:1018C00042E0644930312068884201D101203BE088
:1018D000614978392068884201D1402034E05D496F
:1018E00018392068884201D140202DE05A49183922
:1018F0002068884201D1402026E0564948312068BE
:10190000884201D140201FE0534960392068884255
:1019100002D14FF4803017E04E492068884202D14E
:101920004FF4803010E04C492068884202D14FF4D7
:10193000803009E0474960312068884202D14FF485
:10194000803001E04FF480004349A039C8605AE07C
:10195000414990392068884201D1012050E03D4939
:1019600030392068884201D1012049E03A493039B4
:101970002068884201D1012042E036493031206898
:10198000884201D101203BE0334978392068884200
:1019900001D1402034E02F4918392068884201D114
:1019A00040202DE02C4918392068884201D1402080
:1019B00026E0284948312068884201D140201FE0B4
:1019C000254960392068884202D14FF4803017E001
:1019D00020492068884202D14FF4803010E01E492F
:1019E0002068884202D14FF4803009E01949603103
:1019F0002068884202D14FF4803001E04FF480002B
:101A00001549A03988602068006840F016002168F8
:101A100008602068406940F0800021684861206CBF
:101A200008B9A06C28B12068006840F0080021685F
:101A300008602068006840F001002168086006E046
:101A400000BF002084F8340000BF4FF00209484670
:101A5000FFF728B840640240A060024070B5044619
:101A6000A56D00F0C1FB064694F83500022808D0A9
:101A70008020606500BF002084F8340000BF012092
:101A800070BD2068006820F016002168086020689A
:101A9000406920F0800021684861206C08B9A06C82
:101AA00028B12068006820F00800216808602068DC
:101AB000006820F00100216808600FE000F094FB4E
:101AC000801B05280AD92020606500BF002084F80B
:101AD000340000BF032084F83500D1E72068006897
:101AE00000F001000028E9D194F85C103F20884004
:101AF000A86000BF002084F8340000BF012084F8F3
:101B000035000020BCE7014691F83500022803D0DB
:101B10008020486501207047052081F8350008685D
:101B2000006820F001000A6810600020F3E7000060
:101B3000F8B50446002000908C4800684FF4165118
:101B4000B0FBF1F7A56D2E6894F85C100820884072
:101B5000304098B12068006800F0040070B120683F
:101B6000006820F004002168086094F85C100820E8
:101B70008840A860606D40F00100606594F85C10DA
:101B800001208840304068B12068406900F0800042
:101B900040B194F85C1001208840A860606D40F06E
:101BA0000200606594F85C1004208840304068B101
:101BB0002068006800F0020040B194F85C10042036
:101BC0008840A860606D40F00400606594F85C1087
:101BD00010208840304078B32068006800F008008A
:101BE00050B394F85C1010208840A860206800680A
:101BF00000F4802080B12068006800F4002028B93B
:101C0000206CC8B12046216C884715E0A06C98B1C3
:101C10002046A16C88470FE02068006800F48070BF
:101C200028B92068006820F0080021680860206C4E
:101C300010B12046216C884794F85C102020884021
:101C40003040002865D02068006800F010000028AF
:101C50005FD094F85C1020208840A86094F835008C
:101C6000052828D12068006820F016002168086047
:101C70002068406920F0800021684861206C08B924
:101C8000A06C28B12068006820F008002168086076
:101C900094F85C103F208840A86000BF002084F8C2
:101CA000340000BF012084F83500206D10B12046BB
:101CB000216D8847F8BD2068006800F4802080B15D
:101CC0002068006800F4002028B9606C10B120463C
:101CD000616C88471DE0E06BD8B12046E16B884716
:101CE00017E02068006800F4807068B92068006818
:101CF00020F010002168086000BF002084F8340044
:101D000000BF012084F83500E06B10B12046E16B84
:101D10008847606D38B3606D00F00100F0B10520B8
:101D200084F835002068006820F001002168086010
:101D300000BF0098401C0090B84200D905E0206820
:101D4000006800F001000028F3D100BF00BF0020B0
:101D500084F8340000BF012084F83500E06C10B135
:101D60002046E16C884700BFA4E700001400002073
:101D70002DE9F0410446002500F036FA074614B973
:101D80000120BDE8F081606A00B100BF00BF002003
:101D900084F8340000BF022084F835002068006811
:101DA00020F00100216808600AE000F01DFAC01B65
:101DB000052805D920206065032084F83500E0E778
:101DC0002068006800F001000028EED12068056856
:101DD00021480540D4E901010843E168084321692D
:101DE000084361690843A1690843E1690843216A1E
:101DF00008430543606A042803D1D4E90B01084372
:101E00000543206805602068456925F00705606A7C
:101E10000543606A04280DD1A06A0543E06A48B111
:101E20002046FEF7E7FA28B140206065012084F8DB
:101E30003500A6E7206845612046FEF7C1FA064650
:101E400094F85C103F208840B0600020606501205D
:101E500084F83500002094E73F8010F02DE9F0472A
:101E600004460D4616461F464FF00008D4F8589019
:101E700000BF94F83400012802D10220BDE8F087A9
:101E8000012084F8340000BF94F8350001282BD1DC
:101E9000022084F83500002060653B463246294622
:101EA0002046FEF70CFB94F85C103F208840C9F8F0
:101EB00008002068006840F016002168086020686B
:101EC000406940F0800021684861206C28B120689A
:101ED000006840F00800216808602068006840F051
:101EE00001002168086006E000BF002084F834008B
:101EF00000BF4FF002084046C0E7000000B587B0C1
:101F0000142102A8FEF794F92A48006808B107B026
:101F100000BD01202749086000BF0020019026482D
:101F2000006840F00100244908600846006800F09D
:101F30000100019000BF00BF8814029002200390AE
:101F400000200490032005900C20069002A91B4855
:101F500000F03CF84FF680700290022003900020C1
:101F60000490032005900C20069002A9144800F06C
:101F70002DF84CF233700290022003900020049060
:101F8000032005900C20069002A90E4800F01EF8D0
:101F90004FF4805002900220039000200490032010
:101FA00005900C20069002A9074800F00FF800BF2A
:101FB000ADE7000000000020383802400014024065
:101FC00000100240000C024000180240F8B5024622
:101FD0000B460025002400200021DCE0012606FA43
:101FE00001F51E6806EA0504AC4273D15E68022E54
:101FF00002D05E68122E13D1CF0802F1200656F8E7
:1020000027004E07F70E0F26BE40B0434F07FF0EC6
:102010001E69BE403043CF0802F1200646F8270073
:1020200010684F000326BE40B0431E7906F0030639
:102030004F00BE40304310605E68012E08D05E68DD
:10204000022E05D05E68112E02D05E68122E13D1CA
:1020500090684F000326BE40B0434F00DE68BE408C
:1020600030439060506801268E40B0431E79C6F31D
:1020700000168E4030435060D0684F000326BE40AB
:10208000B0434F009E68BE403043D0605E6806F0AB
:102090008056B6F1805F7DD100BF00260096404E8D
:1020A000366846F480463E4F3E603E46366806F44B
:1020B0008046009600BF00BF3A4E8F0856F82700B2
:1020C0008E07370F0F26BE40B043374EB24202D1C3
:1020D000002624E05EE0354EB24201D101261EE02A
:1020E000334EB24201D1022619E0324EB24201D142
:1020F000032614E0304EB24201D104260FE02F4EE9
:10210000B24201D105260AE02D4EB24201D1062687
:1021100005E02C4EB24201D1072600E008268F07C9
:102120003F0FBE4030431F4E8F0846F82700264E13
:102130003068A0435E6806F48036B6F5803F00D173
:102140002043214E3060361D3068A0435E6806F49F
:102150000036B6F5003F00D120431B4E361D3060DF
:10216000361D3068A0435E6806F48016B6F5801F01
:1021700000D12043144E08363060361D3068A0432D
:102180005E6806F40016B6F5001F00D120430E4E1F
:102190000C363060491C1029FFF420AFF8BD000058
:1021A0004438024008380140000002400004024068
:1021B00000080240000C02400010024000140240DF
:1021C00000180240001C0240003C01400246136916
:1021D0000B400BB1012000E0002070470AB1816183
:1021E00001E00B04836170470148006870470000FC
:1021F00008000020034800680349097808440149A1
:1022000008607047080000201000002010B50D483D
:10221000006840F400700B4908600846006840F40C
:10222000806008600846006840F480700860032001
:1022300000F0A2F8002000F007F800F02BF80020D2
:1022400010BD0000003C024070B504460E48007806
:102250004FF47A71B1FBF0F00C490968B1FBF0F56D
:10226000284600F0A4FC08B1012070BD102C07D254
:1022700000222146501E00F041F80548046001E0AC
:102280000120F2E70020F0E71000002014000020F9
:102290000C00002008B500BF002000900E48006828
:1022A00040F480400C4908600846006800F4804013
:1022B000009000BF00BF00BF00200090081F006812
:1022C00040F08050091F08600846006800F0805008
:1022D000009000BF00BF08BD4438024001460846D8
:1022E000002809DB00F01F0301229A4043099B00EC
:1022F00003F1E023C3F8002100BF70472DE9F05F30
:1023000080460D461646002703F030FE0746394644
:102310002A46334601F00700C0F1070ABAF1040F5C
:1023200002D94FF0040A01E0C0F1070AD14600F1DA
:10233000040ABAF1070F02D24FF0000A01E0A0F13F
:10234000030AD4464FF0010A0AFA09FAAAF1010A6F
:102350000AEA020A0AFA0CFA4FF0010B0BFA0CFB1C
:10236000ABF1010B0BEA030B4AEA0B042146404692
:1023700003F004FEBDE8F09F00BF00F00702064B2B
:1023800019684FF6FF031940044B0B4343EA02213F
:10239000014B196000BF70470CED00E00000FA052A
:1023A00070B504460D460CB9012070BD5848006850
:1023B00000F00F00A84209D255490D700846006888
:1023C00000F00F00A84201D00120EEE7207800F0D5
:1023D000020002281DD1207800F00400042805D155
:1023E0004C48006840F4E0504A490860207800F00A
:1023F0000800082805D14748006840F46040454976
:1024000008604448006820F0F000A1680843414992
:102410000860207800F00100A8B36068012807D1A7
:102420003C4808380068C0F34040B8B90120BCE718
:102430006068022802D06068032807D13548083850
:102440000068C0F3406048B90120AEE73148083861
:102450000068C0F3400008B90120A6E72D480068D5
:1024600020F00300616808432A490860FFF7BCFEBA
:10247000064609E0FFF7B8FE801B41F2883188422A
:1024800002D9032091E707E02248006800F00C0021
:102490006168B0EB810FEDD11D48006800F00F00BE
:1024A000A84209D91A490D700846006800F00F00CB
:1024B000A84201D0012078E7207800F00400042829
:1024C00007D11448006820F4E050E168084311493E
:1024D0000860207800F00800082808D10D4800683E
:1024E00020F46040216940EAC1000A49086000F018
:1024F0003DF808490968C1F30311074A515CC84017
:10250000064908600020FFF79FFE00204DE700000D
:10251000003C024008380240FA6200081400002023
:1025200001480068704700001400002000B5FFF764
:10253000F7FF04490968C1F38221034A515CC8408E
:1025400000BD0000083802400A63000800B5FFF72C
:10255000E7FF04490968C1F34231034A515CC840AE
:1025600000BD0000083802400A6300082DE9F0476A
:10257000002400250026A1462548006800F00C0034
:1025800020B1042805D008283AD105E0DFF884906E
:1025900039E0DFF8849036E01D48001F006800F045
:1025A0003F041B48001F006800F4800078B11A48FF
:1025B0001749091F0968C1F38811A0FB0170014682
:1025C000224600233846FDF7FBFD05460EE0114884
:1025D0000F49091F0968C1F38811A0FB017001466A
:1025E000224600233846FDF7EBFD05460848001F4C
:1025F0000068C0F30140401C4600B5FBF6F902E05C
:10260000DFF8109000BF00BF4846BDE8F08700002B
:10261000083802400024F40000127A0070B586B039
:1026200006460C46154646BB00BF002000902848D1
:10263000006840F00100264908600846006800F084
:102640000100009000BF00BF881501900220029099
:102650000320049000200390059001A91D48FFF776
:10266000B5FC1B482838006820F0EC6044EA0501FE
:10267000084317492839086027E000BF0020009070
:102680001348006840F004001149086008460068DB
:1026900000F00400009000BF00BF48150190022028
:1026A00002900320049000200390059001A90A489D
:1026B000FFF78CFC06482838006820F0784044EA90
:1026C000C501084302492839086006B070BD000002
:1026D000303802400000024000080240F8B50446CD
:1026E0000CB90120F8BD207800F00100002874D05A
:1026F000F948006800F00C0004280DD0F648006886
:1027000000F00C00082813D1F348001F006800F403
:102710008000B0F5800F0BD1EF4808380068C0F397
:102720004040002859D06068002856D10120D9E7E0
:1027300000BF6068B0F5803F08D1E74808380068FE
:1027400040F48030E449083908601EE06068B0F564
:10275000A02F0DD1E0480838006840F48020DE4901
:10276000083908600846006840F4803008600CE0D2
:10277000D9480838006820F48030D7490839086003
:102780000846006820F48020086000BF606890B1AF
:10279000FFF72AFD054606E0FFF726FD401B6428EB
:1027A00001D903209EE7CC4808380068C0F34040B8
:1027B0000028F1D011E0FFF717FD054606E0FFF70E
:1027C00013FD401B642801D903208BE7C248083859
:1027D0000068C0F340400028F1D1207800F00200EA
:1027E00002285FD1BC48006800F00C0058B1BA481C
:1027F000006800F00C0008281CD1B748001F0068D2
:1028000000F48000B0B9B44808380068C0F3400054
:1028100020B1E068012801D0012063E7AE48083804
:10282000006820F0F800216940EAC100AA4908398F
:10283000086037E0E06800B30120A8490860FFF7AE
:10284000D3FC054606E0FFF7CFFC401B022801D968
:10285000032047E7A04808380068C0F3400000287C
:10286000F1D09D480838006820F0F800216940EA5E
:10287000C10099490839086014E0002097490860B0
:10288000FFF7B2FC054606E0FFF7AEFC401B02284E
:1028900001D9032026E7904808380068C0F34000BB
:1028A0000028F1D1207800F0080008282CD16069B8
:1028B000A8B101208A490860FFF796FC054606E0AA
:1028C000FFF792FC401B022801D903200AE7824847
:1028D0006C300068C0F340000028F1D014E0002004
:1028E0007F490860FFF780FC054606E0FFF77CFCA7
:1028F000401B022801D90320F4E677486C300068B9
:10290000C0F340000028F1D1207800F00400042832
:1029100070D1002670483830006800F0805090B9BF
:1029200000BF002000906C483830006840F08050B4
:102930006949383108600846006800F0805000900E
:1029400000BF00BF01266748006800F48070B0B97E
:102950006448006840F4807062490860FFF744FCF6
:10296000054606E0FFF740FC401B022801D9032082
:10297000B8E65C48006800F480700028F2D000BF20
:10298000A068012808D154486830006840F0010070
:102990005149683108601DE0A06805280DD14E48F6
:1029A0006830006840F004004B4968310860084610
:1029B000006840F0010008600CE04748683000689B
:1029C00020F001004449683108600846006820F0A2
:1029D0000400086000BFA068A8B1FFF705FC054629
:1029E00009E0FFF701FC401B41F28831884202D91F
:1029F000032077E626E0384868300068C0F34000DE
:102A00000028EED013E0FFF7EFFB054608E0FFF7E4
:102A1000EBFB401B41F28831884201D9032061E67B
:102A20002D4868300068C0F340000028EFD1012E27
:102A300007D129483830006820F0805026493831C5
:102A4000086000BFA069B8B32348006800F00C001C
:102A500008285ED0A069022846D100201F490866D8
:102A6000FFF7C2FB054606E0FFF7BEFB401B02284E
:102A700001D9032036E6184808380068C0F34060E2
:102A80000028F1D1D4E907010843616A40EA8111C5
:102A90000122A06AC2EB500041EA00412C20005DF7
:102AA00041EA00600C49091F086001200B490866D3
:102AB000FFF79AFB054607E02DE0FFF795FB401B6B
:102AC000022801D903200DE6034808380068C0F346
:102AD00040600028F1D01EE0083802400000474264
:102AE000800E47420070004000200C490866FFF746
:102AF0007BFB054606E0FFF777FB401B022801D968
:102B00000320EFE506480068C0F340600028F2D1DA
:102B100001E00120E6E50020E4E500000000474276
:102B20000038024070B504460E4615460CB9012027
:102B300070BD94F8490028B9002084F84800204668
:102B400000F01CF804F108012068FDF7F5FC31469F
:102B5000A2682068FDF71EFD2946236BD4E9010217
:102B6000FDF7C6FCA168206850F8210040F0010084
:102B7000A268216841F822000020D9E710B5044678
:102B8000FFF7BCF910BD042808D14FF0E021096916
:102B900041F004014FF0E022116107E04FF0E02125
:102BA000096921F004014FF0E0221161704770B50E
:102BB00004462546681EB0F1807F01D301200FE056
:102BC000681E4FF0E02148610F214FF0FF3003F005
:102BD000D5F900204FF0E02188610720086100202E
:102BE00070BD7047704710B5024600BF92F83C00B8
:102BF000012801D1022010BD012082F83C0000BF55
:102C0000022082F83D00106843681068846823F051
:102C100070030868034324F0800448680443106884
:102C2000436010688460012082F83D0000BF0020EE
:102C300082F83C0000BF00BFDDE710B504460CB9C8
:102C4000012010BD94F83D0028B9002084F83C0014
:102C5000204600F00DF8022084F83D00211D206878
:102C600002F05EFE012084F83D000020E9E700004C
:102C700038B504460E492068884217D100BF0020AD
:102C800000900C48006840F020000A49086008469F
:102C9000006800F02000009000BF00BF0022114635
:102CA0003720FFF72BFB3720FFF718FB38BD00005C
:102CB000001400404038024001460868C06840F0F7
:102CC00001000B68D8600868806800F00702062AD7
:102CD00005D00868006840F001000B68186000200B
:102CE0007047704710B5044620680069C0F3400083
:102CF000D8B12068C068C0F34000B0B16FF00200E6
:102D000021680861012020772068806900F00300B5
:102D100018B12046FFF7E5FF05E0204600F0ADF8CA
:102D2000204600F0ABF80020207720680069C0F34F
:102D30008000D8B12068C068C0F38000B0B16FF0E7
:102D4000040021680861022020772068806900F46F
:102D5000407018B12046FFF7C4FF05E0204600F0A0
:102D60008CF8204600F08AF800202077206800695F
:102D7000C0F3C000D8B12068C068C0F3C000B0B1D3
:102D80006FF0080021680861042020772068C0697E
:102D900000F0030018B12046FFF7A3FF05E020462E
:102DA00000F06BF8204600F069F8002020772068DA
:102DB0000069C0F30010D8B12068C068C0F30010EB
:102DC000B0B16FF0100021680861082020772068FA
:102DD000C06900F4407018B12046FFF782FF05E09B
:102DE000204600F04AF8204600F048F800202077FE
:102DF0002068006900F0010058B12068C06800F048
:102E0000010030B16FF0010021680861204600F038
:102E100037F820680069C0F3C01058B12068C06856
:102E2000C0F3C01030B16FF0800021680861204607
:102E3000FFF7D7FE20680069C0F3801058B1206802
:102E4000C068C0F3801030B16FF0400021680861A5
:102E5000204600F021F820680069C0F3401058B106
:102E60002068C068C0F3401030B16FF020002168C6
:102E700008612046FFF7B6FE10BD7047704700009E
:102E8000034A0168914202D10121024A1170704740
:102E9000001400401D000020704770472DE9F047E6
:102EA0000446206805682068C668206847694FF0B6
:102EB0000008C14605F00F08B8F1000F0AD105F06F
:102EC000200038B106F0200020B1204602F0BEFDFF
:102ED000BDE8F087B8F1000F6ED007F0010018B917
:102EE00006F49070002867D005F0010030B106F4B8
:102EF000807018B1E06B40F00100E06305F0040061
:102F000030B107F0010018B1E06B40F00200E0635F
:102F100005F0020030B107F0010018B1E06B40F09D
:102F20000400E06305F0080030B107F0010018B1BB
:102F3000E06B40F00800E063E06B70B305F0200048
:102F400028B106F0200010B1204602F07FFD206875
:102F50004069C0F38019E06B00F0080010B9B9F1C6
:102F6000000F23D0204602F051FD2068406900F098
:102F70004000402816D12068406920F040002168B8
:102F80004861606B50B11748616B0865606BFEF774
:102F9000BAFD10B1606B016D88470CE02046FFF769
:102FA0007CFF08E02046FFF778FF04E02046FFF7AB
:102FB00074FF0020E0638BE705F0800030B106F07D
:102FC000800018B1204602F049FF81E705F040007B
:102FD00030B106F0400018B1204602F027FD77E737
:102FE00000BF75E7F959000810B504460CB9012077
:102FF00010BDA06900B100E000BF94F8390028B905
:10300000002084F83800204600F028F8242084F8B6
:1030100039002068C06820F400502168C86020464C
:1030200002F068FD2068006920F490402168086182
:103030002068406920F02A00216848612068C06843
:1030400040F400502168C8600020E063202084F82C
:10305000390084F83A000020CAE7000010B586B0B5
:103060000446142101A8FDF7E3F82E4920688842A0
:1030700056D100BF002000902B48006840F010009F
:10308000294908600846006800F01000009000BF61
:1030900000BF00BF0020009023481438006840F0B3
:1030A00001002149143908600846006800F0010059
:1030B000009000BF00BF4FF4C0600190022002905A
:1030C00001200390032004900720059001A91748D0
:1030D000FEF77CFF1648174908604FF00060486013
:1030E0004021144881600021C1604FF4806101617A
:1030F000002141618161C16101624162FEF738FED8
:1031000008B1FDF7F3F900BF0A482063846300BFEC
:10311000002203212520FFF7F1F82520FFF7DEF834
:1031200006B010BD001001404438024000000240CB
:10313000B86402406801002070472DE9F843044656
:103140000D4616461F464FF0000994F83900202816
:103150005CD105B116B90120BDE8F88300BF94F831
:103160003800012801D10220F6E7012084F8380058
:1031700000BF0020E063212084F83900FFF734F815
:103180008146A684E6842BE0E08C401EE084A068A3
:10319000B0F5805F16D14B46002280212046009773
:1031A00002F090FE08B10320D6E7A846B8F8000068
:1031B000C0F3080021684860206908B9AD1C0FE021
:1031C0006D1C0DE04B46002280212046009702F046
:1031D00079FE08B10320BFE715F8010B21684860AC
:1031E000E08C0028D0D14B46002240212046009799
:1031F00002F068FE08B10320AEE7202084F8390011
:1032000000BF002084F8380000BFA5E70220A3E734
:10321000704700BFFEE70021017041708170C170EE
:1032200081804181C18001817047000010B5044652
:10323000207801282BD11A48FDF7D4FB4FF47A707F
:1032400002F0C5FE0120174908704FF4FA730122FD
:103250001548FFF772FF00BF134800680068C0F30D
:1032600080100028F8D0FE200E4908704FF4FA7341
:1032700001220D48FFF761FF00BF0B48006800689E
:10328000C0F380100028F8D0012008490870607849
:10329000012804D100F0ACFC00200449087010BDE6
:1032A000480000201C0000202801002042000020CF
:1032B00070B5044601211848FEF788FF06462578B8
:1032C000002229463046FDF787F92070082113486F
:1032D000FEF77CFF06466578012229463046FDF759
:1032E0007BF9607010210D48FEF770FF0646A57847
:1032F000012229463046FDF76FF9A07004210748E6
:10330000FEF764FF0646E578012229463046FDF7C0
:1033100063F9E07070BD0000000002400010024040
:1033200070B50446002609480588408845430021B9
:10333000084600F0C7F900F05DFA00BF02E004485B
:103340000480761CAE42FAD370BD00002402002037
:103350008000006C00B50246CAB94FF4585000F026
:103360003DFA002000F040FA4FF430501549088132
:103370004FF4285048814FF42C5088814FF4487006
:1033800048804FF4F07008800020887118E04FF4F6
:10339000585000F023FA602000F026FA4FF4305025
:1033A000084908814FF4285048814FF42C508881F7
:1033B0004FF4F07048804FF4487008800120887105
:1033C00000BD00002402002000B58FB01C2108A819
:1033D000FCF72EFF1C2101A8FCF72AFF4FF020402C
:1033E0001C4908601C484860062088600021194874
:1033F000C16001611021416100218161C1610162EF
:1034000041624FF4805181620021C1624FF48041DA
:103410000163002141638163416401200890002021
:1034200009900F200A9000200B900C900D900E90A8
:1034300003200190002002900220039000200490BD
:1034400005900690079001AA08A90248FFF76AFBB9
:103450000FB000BDC8010020040100A000B587B076
:10346000142102A8FCF7E4FE00BF002001902548CB
:10347000006840F00100234908600846006800F039
:103480000100019000BF00BF881402900220039049
:1034900001200490022005900C20069002A91A48F1
:1034A000FEF794FD4FF680700290022003900120F9
:1034B0000490022005900C20069002A91348FEF704
:1034C00085FD4CF23370029002200390012004909D
:1034D000022005900C20069002A90D48FEF776FD0B
:1034E0004FF48050029002200390012004900220AB
:1034F00005900C20069002A90648FEF767FD07B06C
:1035000000BD0000383802400014024000100240A4
:10351000000C02400018024001480088704700007B
:103520008000006C2DE9F04104460D46002600277E
:10353000B04614480088A04203DD12484088A842E3
:1035400002DC0020BDE8F0812946204600F0BAF8F0
:103550004FF4385000F042F9FFF7DEFF0646FFF760
:10356000DBFF0646FFF7D8FF8046F7B24FF6FF7045
:1035700000EA0727F012C002B91240EA411040EAFF
:10358000E820DFE724020020F0B5064600240027EB
:10359000082E1CD2DFE806F00406090C0F121518DD
:1035A00000BF14E044F0800411E044F040040EE059
:1035B00044F0C0040BE044F0200408E044F0600450
:1035C00005E044F0A00402E044F0E00400BF00BFC6
:1035D0004FF458572146384600F016F904F0200001
:1035E00068B13748008836494988884214DA344837
:1035F0000588408832490880084645800CE03048FC
:1036000000882F494988884206DD2D480588408872
:103610002B490880084645802949488900F0D6F89A
:10362000002000F0CBF826494989491C88B200F0F7
:10363000CDF8002000F0C2F821494989891C88B2E0
:1036400000F0C4F81E490988491EC1F30F2000F09C
:10365000B5F81B494989C91C88B200F0B7F8184968
:103660000978491EC8B200F0A9F81549888900F008
:10367000ADF8002000F0A2F811498989491C88B2F0
:1036800000F0A4F8002000F099F80D498989891C00
:1036900088B200F09BF80A494988491EC1F30F20FF
:1036A00000F08CF806498989C91C88B200F08EF8B0
:1036B00003498978491EC8B200F080F8F0BD0000C7
:1036C0002402002010B502460C461049488900F03B
:1036D0007DF8101200F072F80C494989491C88B233
:1036E00000F074F8D0B200F069F80849888900F059
:1036F0006DF8201200F062F804498989491C88B2EB
:1037000000F064F8E0B200F059F810BD2402002087
:103710002DE9F04104460D461E46A018401E87B212
:10372000A819401E1FFA80F82349488900F04EF876
:10373000201200F043F820494989491C88B200F062
:1037400045F8E0B200F03AF81B494989891C88B273
:1037500000F03CF8381200F031F817494989C91CCB
:1037600088B200F033F8F8B200F028F812498889DE
:1037700000F02CF8281200F021F80F498989491C23
:1037800088B200F023F8E8B200F018F80A498989F5
:10379000891C88B200F01AF84FEA282000F00EF8D1
:1037A00005498989C91C88B200F010F808F0FF00AB
:1037B00000F004F8BDE8F0812402002001B5BDF856
:1037C00000000149088008BD8000006C01B5BDF80B
:1037D00000000149088008BD7E00006C0149088096
:1037E000704700007E00006C0149088070470000AF
:1037F0008000006C02480089024908807047000080
:10380000240200207E00006C034A10804FF0D84252
:10381000A2F88010704700007E00006C10B50A48C6
:103820000A49086000204860002108488160802122
:10383000C16000210161416181610162FCF748FFC3
:1038400008B1FCF753FE10BD0000055048000020F1
:1038500008B500BF002000900E48006840F48000CA
:103860000C4908600846006800F48000009000BF22
:1038700000BF002211463920FEF740FD3920FEF737
:103880002DFD002211464620FEF738FD4620FEF7AA
:1038900025FD08BD3038024000B58FB01C2108A8B6
:1038A000FCF7C6FC1C2101A8FCF7C2FC4FF020402D
:1038B0001F4908601F4848600620886000211C4896
:1038C000C16001611021416100218161C16101621A
:1038D00041624FF4805181620021C1624FF4804106
:1038E000016300214163816341640F2008900990C6
:1038F0000A9000200B9010200C9011200D900020B9
:103900000E900F2001900290039000200490102050
:103910000590112006900020079001AA08A90448EC
:10392000FFF700F908B1FCF7E1FD0FB000BD0000A2
:10393000C8010020040100A000B587B0142102A82E
:10394000FCF776FC00BF002001908148006840F041
:1039500010007F4908600846006800F010000190E0
:1039600000BF00BF00BF002001900846006840F083
:10397000040008600846006800F00400019000BFE1
:1039800000BF00BF002001900846006840F0200002
:1039900008600846006800F02000019000BF00BFEA
:1039A00000BF002001900846006840F080000860D9
:1039B0000846006800F08000019000BF00BF00BF13
:1039C000002001900846006840F0010008600846A9
:1039D000006800F00100019000BF00BF00BF0020A0
:1039E00001900846006840F0020008600846006840
:1039F00000F00200019000BF00BF00BF0020019056
:103A00000846006840F0080008600846006800F0BA
:103A10000800019000BF00BF00BF002001900846D1
:103A2000006840F0400008600846006800F0400070
:103A3000019000BF00BF00224FF400514548FEF73F
:103A4000CDFB01224FF4E0614348FEF7C7FB0022A3
:103A500040F207314148FEF7C1FB00224FF40061FC
:103A60003D48FEF7BBFB0022C0213D48FEF7B6FBF8
:103A700000224FF402413B48FEF7B0FB1C200290AD
:103A8000002003900120049002A93748FEF79EFA17
:103A90004FF4005002900120039000200490059004
:103AA00002A92C48FEF792FA4FF4E0600290012040
:103AB000039004900220059002A92748FEF786FA99
:103AC00001200290002003900220049002A92748C0
:103AD000FEF77CFA40F207300290012003900020AC
:103AE0000490059002A91D48FEF770FA4FF400609B
:103AF00002900120039000200490059002A916482E
:103B0000FEF764FA4FF480700290022003900020C8
:103B100004900590069002A91448FEF757FAC020B9
:103B200002900120039004900020059002A90C4807
:103B3000FEF74CFA4FF402400290012003900490EB
:103B40000020059002A90748FEF740FA07B000BD23
:103B500030380240000802400014024000040240D5
:103B6000000C024000180240001002400000024019
:103B70001CB50020009001900C480D490860002001
:103B8000486000210A488160C1608161FFF755F8F3
:103B900008B1FCF7ABFC0020009001906946044896
:103BA000FFF721F808B1FCF7A1FC1CBD0014004090
:103BB000E800002010B50B480B4908604FF47A303C
:103BC0004860002108488160C16001610C214161A9
:103BD00000218161C161FFF707FA08B1FCF786FC9B
:103BE00010BD0000001001402801002000BFFEE7CA
:103BF00010B500210846FFF765FDFFF7FBFD012327
:103C0000024A00210248FCF777FE10BD8000006CDC
:103C1000480000201CB54FF478401649088016A0D3
:103C200010210B46C822CDE9001032211E2002F0DF
:103C30002DFB00F089F816A010210B46C822CDE913
:103C4000001082211E2002F021FBC82002F0BFF9E3
:103C50004FF4A073F022B0210C2000F0CFF8042024
:103C6000FFF792FCF0234FF4A07200210846FFF703
:103C70004FFD1CBD1E0000205761697420666F72E5
:103C80002061206D6F6D656E742E2E2E0000000079
:103C90004F5637363730204F4B00000070B525485F
:103CA0000078012845D10025002419E0002514E002
:103CB000A9B2A0B2FFF736FC1F4908804FF4FA738F
:103CC00002221E48FFF739FA00BF1C48006800684E
:103CD000C0F380100028F8D06D1CF02DE8DB641CC8
:103CE000B4F5A07FE2DBFE20154908704FF4FA73AB
:103CF00001221248FFF721FA00BF1048006800684F
:103D0000C0F380100028F8D001200D4908704FF44E
:103D1000FA7301220948FFF710FA00BF074800684C
:103D20000068C0F380100028F8D000200149087016
:103D300000BF70BD42000020440000202801002088
:103D40001C0000207047000010B586B0142101A8A7
:103D5000FCF76EFA00BF002000902548006840F094
:103D60004000234908600846006800F040000090C9
:103D700000BF00BF4FF40240019001200290039069
:103D80000020049001A91B48FEF720F900224FF4FF
:103D900000711848FEF722FA012002F018F90022FB
:103DA0004FF400411348FEF719FA012002F00FF911
:103DB0000122D1030F48FEF711FA00F069F88021C3
:103DC000122000F0E7F90A2002F001F9002409E0CE
:103DD000094A02EB44025178074A12F8140000F035
:103DE000D9F9641CA62CF3D3002006B010BD000046
:103DF0003038024000180240D27A00082DE9F0471E
:103E000005460E469046994605EB48001FFA80FA93
:103E100006EB490087B2B7F5447F02DDA7F5447091
:103E200087B2032000F0D8F8044604F0F0040AF04A
:103E30000301284661F39F0004432146032000F05C
:103E4000A9F9C5F38701192000F0A4F9CAF3870185
:103E50001A2000F09FF9322000F0BEF8044604F06A
:103E6000C00407F00701304661F3DF000443214638
:103E7000322000F08FF9C6F3C701172000F08AF94D
:103E8000C7F3C701182000F085F9BDE8F087704737
:103E900000B587B0142102A8FCF7CAF900BF0020C2
:103EA00001901748006840F008001549086008466E
:103EB000006800F00800019000BF00BFC020029021
:103EC0000120039004900020059002A90D48FEF700
:103ED0007DF8012240210B48FEF780F90122802164
:103EE0000848FEF77BF90748006820F44040054980
:103EF00008600846006840F48040086007B000BDD4
:103F000030380240000C024010B54FF4FA7002F055
:103F1000A1F8012280211148FEF760F94FF4FA70F0
:103F200002F098F8012240210C48FEF757F94FF4AF
:103F3000FA7002F08FF8002240210848FEF74EF98F
:103F40004FF4FA7002F086F8002280210348FEF751
:103F500045F94FF4FA7002F07DF810BD000C0240F4
:103F600070B500241B48006820F4404019490860DF
:103F700008460068086008251CE04FF4FA7002F05B
:103F800069F8012240211348FEF728F96006040E63
:103F900080211048FEF71AF908B1601CC4B24FF432
:103FA000FA7002F057F8002240210A48FEF716F98D
:103FB000681EC5B2002DE0DC0648006820F44040D1
:103FC000044908600846006840F4804008602046C4
:103FD00070BD0000000C024070B50446002500F0E2
:103FE00035F8422000F07AF828B900F057F84FF47D
:103FF000FA7002F02FF8204600F070F828B900F0AF
:104000004DF84FF4FA7002F025F800F047F86420FC
:1040100002F020F800F01AF8432000F05FF820B911
:1040200000F03CF8642002F015F8FFF799FF054610
:104030004FF4FA7002F00EF8FFF766FF4FF4FA70D3
:1040400002F008F800F02AF8284670BD10B50122E9
:1040500080211148FEF7C2F84FF4FA7001F0FAFF20
:10406000012240210C48FEF7B9F84FF4FA7001F034
:10407000F1FF002280210848FEF7B0F84FF4FA70F3
:1040800001F0E8FF002240210348FEF7A7F84FF4B3
:10409000FA7001F0DFFF10BD000C024010B50022E5
:1040A00080210D48FEF79AF84FF4FA7001F0D2FF24
:1040B000012240210848FEF791F84FF4FA7001F010
:1040C000C9FF012280210448FEF788F84FF4FA70F6
:1040D00001F0C0FF10BD0000000C024070B50446A6
:1040E000002623E004F0800028B101228021284826
:1040F000FEF774F804E0002280212548FEF76EF8F0
:104100006006040E4FF4FA7001F0A4FF0122402172
:104110001F48FEF763F84FF4FA7001F09BFF00228E
:1041200040211B48FEF75AF8701CC6B2082ED9DB96
:104130001748006820F440401549086008460068A8
:1041400008604FF4FA7001F085FF01224021104809
:10415000FEF744F84FF4FA7001F07CFF80210C4820
:10416000FEF734F808B1012500E0002500224021C7
:104170000748FEF733F80648006820F44040044939
:1041800008600846006840F480400860284670BD1A
:10419000000C024070B505460C460026FFF756FF9E
:1041A0004220FFF79BFF00B10126642001F052FF7F
:1041B0002846FFF793FF00B10126642001F04AFF73
:1041C0002046FFF78BFF00B10126FFF767FF30465F
:1041D00070BD704710B5FEF70DF810BD10B5044660
:1041E0000020FEF7D0FCE11704EB5171C1F3C701C9
:1041F000074A11701046007800EB4001C1EBC01077
:104200004FF6FF7101EAC0000249088010BD0000AE
:10421000180000201A00002000B593B0302107A834
:10422000FCF706F8142102A8FCF702F800BF0020F2
:1042300001902948006840F08050274908600846EE
:10424000006800F08050019000BF00BF00BF002058
:1042500001902248006840F48040204908600846E8
:10426000006800F48040019000BF00BF0320079069
:104270004FF48030089001200A9010200B9002200B
:104280000D9041050E9104210F91A821109102215A
:1042900011910421129107A8FEF720FA08B1FCF74A
:1042A00025F90F20029002200390002004904FF483
:1042B000A05005904FF480500690052102A8FEF70B
:1042C0006FF808B1FCF712F9002211461046FEF70C
:1042D000A5F913B000BD0000403802400070004056
:1042E0001448006840F470001249086012480068E1
:1042F00040F001001049086000200F4908310860B3
:104300000D4800680D4908400B4908600C48091D1C
:104310000860081F006820F48020091F0860002042
:1043200005490C3108604FF000600249803908608F
:104330007047000088ED00E000380240FFFFF6FE05
:104340001030002410B5FFF789F8FFF73DF8322050
:1043500001F03DFE4FF45A40FFF740FAFFF7DCF85A
:10436000FE4988804FF45B40FFF738FAFFF7D4F836
:10437000FA498880084680884FF6FF7101EA0020DC
:10438000F64988804FF45C40FFF728FAFFF7C4F83D
:10439000F24989880843F14988804FF47040FFF75B
:1043A0001DFA5520FFF720FA4FF20100FFF716FA29
:1043B000AA20FFF719FA4FF20200FFF70FFA522076
:1043C000FFF712FA4FF20300FFF708FA0820FFF791
:1043D0000BFA4FF20400FFF701FA0120FFF704FA8D
:1043E0004FF43040FFF7FAF90020FFF7FDF94BF2E8
:1043F0000100FFF7F3F90020FFF7F6F94BF2020096
:10440000FFF7ECF90020FFF7EFF94FF43640FFF724
:10441000E5F93420FFF7E8F94BF20160FFF7DEF928
:104420003420FFF7E1F94BF20260FFF7D7F93420AF
:10443000FFF7DAF94FF43140FFF7D0F90020FFF72A
:10444000D3F94BF20110FFF7C9F90020FFF7CCF9BF
:104450004BF20210FFF7C2F90020FFF7C5F94FF445
:104460003740FFF7BBF93420FFF7BEF94BF201707C
:10447000FFF7B4F93420FFF7B7F94BF20270FFF7FA
:10448000ADF93420FFF7B0F94FF43240FFF7A6F949
:104490000020FFF7A9F94BF20120FFF79FF9002058
:1044A000FFF7A2F94BF20220FFF798F90020FFF77F
:1044B0009BF94FF43840FFF791F90520FFF794F985
:1044C0004BF60100FFF78AF90520FFF78DF94BF64F
:1044D0000200FFF783F90520FFF786F94FF43F400C
:1044E000FFF77CF90120FFF77FF94FF43340FFF726
:1044F00075F90F20FFF778F94BF20130FFF76EF9ED
:104500000F20FFF771F94BF20230FFF767F90F2028
:10451000FFF76AF94FF43940FFF760F92420FFF7FD
:1045200063F94BF60110FFF759F92420FFF75CF906
:104530004BF60210FFF752F92420FFF755F94FF41C
:104540003540FFF74BF90820FFF74EF94BF20150C9
:10455000FFF744F90820FFF747F94BF20250FFF745
:104560003DF90820FFF740F94FF43A40FFF736F9DC
:104570001420FFF739F94BF60120FFF72FF914202B
:10458000FFF732F94BF60220FFF728F91420FFF766
:104590002BF94FF43C40FFF721F90020FFF724F9F5
:1045A0004BF60140FFF71AF9BC20FFF71DF94BF657
:1045B0000240FFF713F90020FFF716F94FF43D40D2
:1045C000FFF70CF90020FFF70FF94BF60150FFF74A
:1045D00005F9BC20FFF708F94BF60250FFF7FEF88B
:1045E0000020FFF701F94FF43E40FFF7F7F80020F5
:1045F000FFF7FAF84BF60160FFF7F0F82D20FFF710
:10460000F3F84FF45140FFF7E9F80020FFF7ECF81A
:104610004DF20110FFF7E2F83720FFF7E5F84DF211
:104620000210FFF7DBF80020FFF7DEF84DF2031071
:10463000FFF7D4F84920FFF7D7F84DF20410FFF741
:10464000CDF80020FFF7D0F84DF20510FFF7C6F8BF
:104650006B20FFF7C9F84DF20610FFF7BFF80020F6
:10466000FFF7C2F84DF20710FFF7B8F88620FFF702
:10467000BBF84DF20810FFF7B1F80020FFF7B4F8CF
:104680004DF20910FFF7AAF89D20FFF7ADF84DF2A3
:104690000A10FFF7A3F80020FFF7A6F84DF20B1061
:1046A000FFF79CF8C320FFF79FF84DF20C10FFF7BF
:1046B00095F80020FFF798F84DF20D10FFF78EF8EF
:1046C000E020FFF791F84DF20E10FFF787F8012078
:1046D000FFF78AF84DF20F10FFF780F80D20FFF773
:1046E00083F84DF21010FFF779F80120FFF77CF8FE
:1046F0004DF21110FFF772F82F20FFF775F84DF209
:104700001210FFF76BF80120FFF76EF84DF213104F
:10471000FFF764F86120FFF767F84DF21410FFF718
:104720005DF80120FFF760F84DF21510FFF756F81D
:104730008620FFF759F84DF21610FFF74FF80120C9
:10474000FFF752F84DF21710FFF748F8BD20FFF7BA
:104750004BF84DF21810FFF741F801E02402002059
:104760000120FFF741F84DF21910FFF737F8E72065
:10477000FFF73AF84DF21A10FFF730F80120FFF773
:1047800033F84DF21B10FFF729F8E820FFF72CF85B
:104790004DF21C10FFF722F80220FFF725F84DF22A
:1047A0001D10FFF71BF80C20FFF71EF84DF21E102E
:1047B000FFF714F80220FFF717F84DF21F10FFF76C
:1047C0000DF83020FFF710F84DF22010FFF706F833
:1047D0000220FFF709F84DF22110FEF7FFFF4520F8
:1047E000FFF702F84DF22210FEF7F8FF0220FEF765
:1047F000FBFF4DF22310FEF7F1FF6320FEF7F4FFFD
:104800004DF22410FEF7EAFF0220FEF7EDFF4DF215
:104810002510FEF7E3FF7E20FEF7E6FF4DF226109F
:10482000FEF7DCFF0220FEF7DFFF4DF22710FEF758
:10483000D5FFB120FEF7D8FF4DF22810FEF7CEFFCE
:104840000220FEF7D1FF4DF22910FEF7C7FFE0204E
:10485000FEF7CAFF4DF22A10FEF7C0FF0320FEF755
:10486000C3FF4DF22B10FEF7B9FF2620FEF7BCFF69
:104870004DF22C10FEF7B2FF0320FEF7B5FF4DF20C
:104880002D10FEF7ABFF6020FEF7AEFF4DF22E10AD
:10489000FEF7A4FF0320FEF7A7FF4DF22F10FEF74F
:1048A0009DFFB420FEF7A0FF4DF23010FEF796FFFB
:1048B0000320FEF799FF4DF23110FEF78FFFB9206C
:1048C000FEF792FF4DF23210FEF788FF0320FEF74D
:1048D0008BFF4DF23310FEF781FFC120FEF784FFFE
:1048E0004FF45240FEF77AFF0020FEF77DFF4DF2B5
:1048F0000120FEF773FF3720FEF776FF4DF202200E
:10490000FEF76CFF0020FEF76FFF4DF20320FEF76D
:1049100065FF4920FEF768FF4DF20420FEF75EFFB9
:104920000020FEF761FF4DF20520FEF757FF6B20D8
:10493000FEF75AFF4DF20620FEF750FF0020FEF76B
:1049400053FF4DF20720FEF749FF8620FEF74CFF8C
:104950004DF20820FEF742FF0020FEF745FF4DF222
:104960000920FEF73BFF9D20FEF73EFF4DF20A2097
:10497000FEF734FF0020FEF737FF4DF20B20FEF765
:104980002DFFC320FEF730FF4DF20C20FEF726FF6F
:104990000020FEF729FF4DF20D20FEF71FFFE0205B
:1049A000FEF722FF4DF20E20FEF718FF0120FEF762
:1049B0001BFF4DF20F20FEF711FF0D20FEF714FF35
:1049C0004DF21020FEF70AFF0120FEF70DFF4DF219
:1049D0001120FEF703FF2F20FEF706FF4DF21220F5
:1049E000FEF7FCFE0120FEF7FFFE4DF21320FEF75E
:1049F000F5FE6120FEF7F8FE4DF21420FEF7EEFE04
:104A00000120FEF7F1FE4DF21520FEF7E7FE8620AD
:104A1000FEF7EAFE4DF21620FEF7E0FE0120FEF75B
:104A2000E3FE4DF21720FEF7D9FEBD20FEF7DCFEB7
:104A30004DF21820FEF7D2FE0120FEF7D5FE4DF212
:104A40001920FEF7CBFEE720FEF7CEFE4DF21A202E
:104A5000FEF7C4FE0120FEF7C7FE4DF21B20FEF755
:104A6000BDFEE820FEF7C0FE4DF21C20FEF7B6FEAC
:104A70000220FEF7B9FE4DF21D20FEF7AFFE0C201E
:104A8000FEF7B2FE4DF21E20FEF7A8FE0220FEF752
:104A9000ABFE4DF21F20FEF7A1FE3020FEF7A4FE74
:104AA0004DF22020FEF79AFE0220FEF79DFE4DF209
:104AB0002120FEF793FE4520FEF796FE4DF22220C0
:104AC000FEF78CFE0220FEF78FFE4DF22320FEF74C
:104AD00085FE6320FEF788FE4DF22420FEF77EFE61
:104AE0000220FEF781FE4DF22520FEF777FE7E20A4
:104AF000FEF77AFE4DF22620FEF770FE0220FEF74A
:104B000073FE4DF22720FEF769FEB120FEF76CFE22
:104B10004DF22820FEF762FE0220FEF765FE4DF200
:104B20002920FEF75BFEE020FEF75EFE4DF22A2014
:104B3000FEF754FE0320FEF757FE4DF22B20FEF742
:104B40004DFE2620FEF750FE4DF22C20FEF746FECD
:104B50000320FEF749FE4DF22D20FEF73FFE6020B8
:104B6000FEF742FE4DF22E20FEF738FE0320FEF740
:104B70003BFE4DF22F20FEF731FEB420FEF734FE4F
:104B80004DF23020FEF72AFE0320FEF72DFE4DF2F7
:104B90003120FEF723FEB920FEF726FE4DF232202B
:104BA000FEF71CFE0320FEF71FFE4DF23320FEF73A
:104BB00015FEC120FEF718FE4FF45340FEF70EFE1F
:104BC0000020FEF711FE4DF20130FEF707FE372000
:104BD000FEF70AFE4DF20230FEF700FE0020FEF75F
:104BE00003FE4DF20330FEF7F9FD4920FEF7FCFD10
:104BF0004DF20430FEF7F2FD0020FEF7F5FD4DF218
:104C00000530FEF7EBFD6B20FEF7EEFD4DF20630B2
:104C1000FEF7E4FD0020FEF7E7FD4DF20730FEF75A
:104C2000DDFD8620FEF7E0FD4DF20830FEF7D6FDF3
:104C30000020FEF7D9FD4DF20930FEF7CFFD9D2093
:104C4000FEF7D2FD4DF20A30FEF7C8FD0020FEF758
:104C5000CBFD4DF20B30FEF7C1FDC320FEF7C4FDC6
:104C60004DF20C30FEF7BAFD0020FEF7BDFD4DF20F
:104C70000D30FEF7B3FDE020FEF7B6FD4DF20E302D
:104C8000FEF7ACFD0120FEF7AFFD4DF20F30FEF751
:104C9000A5FD0D20FEF7A8FD4DF21030FEF79EFD9C
:104CA0000120FEF7A1FD4DF21130FEF797FD2F20F8
:104CB000FEF79AFD4DF21230FEF790FD0120FEF74F
:104CC00093FD4DF21330FEF789FD6120FEF78CFD58
:104CD0004DF21430FEF782FD0120FEF785FD4DF206
:104CE0001530FEF77BFD8620FEF77EFD4DF2163077
:104CF000FEF774FD0120FEF777FD4DF21730FEF749
:104D00006DFDBD20FEF770FD4DF21830FEF766FD1B
:104D10000120FEF769FD4DF21930FEF75FFDE72037
:104D2000FEF762FD4DF21A30FEF758FD0120FEF746
:104D30005BFD4DF21B30FEF751FDE820FEF754FD00
:104D40004DF21C30FEF74AFD0220FEF74DFD4DF2FC
:104D50001D30FEF743FD0C20FEF746FD4DF21E30E0
:104D6000FEF73CFD0220FEF73FFD4DF21F30FEF73F
:104D700035FD3020FEF738FD4DF22030FEF72EFDD8
:104D80000220FEF731FD4DF22130FEF727FD4520D0
:104D9000FEF72AFD4DF22230FEF720FD0220FEF73D
:104DA00023FD4DF22330FEF719FD6320FEF71CFDB5
:104DB0004DF22430FEF712FD0220FEF715FD4DF2F4
:104DC0002530FEF70BFD7E20FEF70EFD4DF226305E
:104DD000FEF704FD0220FEF707FD4DF22730FEF737
:104DE000FDFCB120FEF700FD4DF22830FEF7F6FC89
:104DF0000220FEF7F9FC4DF22930FEF7EFFCE0202F
:104E0000FEF7F2FC4DF22A30FEF7E8FC0320FEF735
:104E1000EBFC4DF22B30FEF7E1FC2620FEF7E4FC24
:104E20004DF22C30FEF7DAFC0320FEF7DDFC4DF2EC
:104E30002D30FEF7D3FC6020FEF7D6FC4DF22E306D
:104E4000FEF7CCFC0320FEF7CFFC4DF22F30FEF72F
:104E5000C5FCB420FEF7C8FC4DF23030FEF7BEFCB6
:104E60000320FEF7C1FC4DF23130FEF7B7FCB9204C
:104E7000FEF7BAFC4DF23230FEF7B0FC0320FEF72D
:104E8000B3FC4DF23330FEF7A9FCC120FEF7ACFCB9
:104E90004FF45440FEF7A2FC0020FEF7A5FC4DF2B3
:104EA0000140FEF79BFC3720FEF79EFC4DF20240CE
:104EB000FEF794FC0020FEF797FC4DF20340FEF74E
:104EC0008DFC4920FEF790FC4DF20440FEF786FC75
:104ED0000020FEF789FC4DF20540FEF77FFC6B20B9
:104EE000FEF782FC4DF20640FEF778FC0020FEF74C
:104EF0007BFC4DF20740FEF771FC8620FEF774FC48
:104F00004DF20840FEF76AFC0020FEF76DFC4DF202
:104F10000940FEF763FC9D20FEF766FC4DF20A4057
:104F2000FEF75CFC0020FEF75FFC4DF20B40FEF745
:104F300055FCC320FEF758FC4DF20C40FEF74EFC2A
:104F40000020FEF751FC4DF20D40FEF747FCE0203B
:104F5000FEF74AFC4DF20E40FEF740FC0120FEF742
:104F600043FC4DF20F40FEF739FC0D20FEF73CFCF0
:104F70004DF21040FEF732FC0120FEF735FC4DF2F9
:104F80001140FEF72BFC2F20FEF72EFC4DF21240B5
:104F9000FEF724FC0120FEF727FC4DF21340FEF73C
:104FA0001DFC6120FEF720FC4DF21440FEF716FCBC
:104FB0000120FEF719FC4DF21540FEF70FFC86208C
:104FC000FEF712FC4DF21640FEF708FC0120FEF73A
:104FD0000BFC4DF21740FEF701FCBD20FEF704FC70
:104FE0004DF21840FEF7FAFB0120FEF7FDFB4DF2F3
:104FF0001940FEF7F3FBE720FEF7F6FB4DF21A40EF
:10500000FEF7ECFB0120FEF7EFFB4DF21B40FEF735
:10501000E5FBE820FEF7E8FB4DF21C40FEF7DEFB67
:105020000220FEF7E1FB4DF21D40FEF7D7FB0C20FE
:10503000FEF7DAFB4DF21E40FEF7D0FB0220FEF732
:10504000D3FB4DF21F40FEF7C9FB3020FEF7CCFB2F
:105050004DF22040FEF7C2FB0220FEF7C5FB4DF2E9
:105060002140FEF7BBFB4520FEF7BEFB4DF2224080
:10507000FEF7B4FB0220FEF7B7FB4DF22340FEF72C
:10508000ADFB6320FEF7B0FB4DF22440FEF7A6FB1C
:105090000220FEF7A9FB4DF22540FEF79FFB7E2084
:1050A000FEF7A2FB4DF22640FEF798FB0220FEF72A
:1050B0009BFB4DF22740FEF791FBB120FEF794FBDE
:1050C0004DF22840FEF78AFB0220FEF78DFB4DF2E1
:1050D0002940FEF783FBE020FEF786FB4DF22A40D5
:1050E000FEF77CFB0320FEF77FFB4DF22B40FEF723
:1050F00075FB2620FEF778FB4DF22C40FEF76EFB89
:105100000320FEF771FB4DF22D40FEF767FB602098
:10511000FEF76AFB4DF22E40FEF760FB0320FEF720
:1051200063FB4DF22F40FEF759FBB420FEF75CFB0A
:105130004DF23040FEF752FB0320FEF755FB4DF2D7
:105140003140FEF74BFBB920FEF74EFB4DF23240EB
:10515000FEF744FB0320FEF747FB4DF23340FEF71A
:105160003DFBC120FEF740FB4FF45540FEF736FBF8
:105170000020FEF739FB4DF20150FEF72FFB3720E0
:10518000FEF732FB4DF20250FEF728FB0020FEF73F
:105190002BFB4DF20350FEF721FB4920FEF724FBC9
:1051A0004DF20450FEF71AFB0020FEF71DFB4DF2F6
:1051B0000550FEF713FB6B20FEF716FB4DF2065071
:1051C000FEF70CFB0020FEF70FFB4DF20750FEF739
:1051D00005FB8620FEF708FB4DF20850FEF7FEFAAD
:1051E0000020FEF701FB4DF20950FEF7F7FA9D2073
:1051F000FEF7FAFA4DF20A50FEF7F0FA0020FEF739
:10520000F3FA4DF20B50FEF7E9FAC320FEF7ECFA81
:105210004DF20C50FEF7E2FA0020FEF7E5FA4DF2EF
:105220000D50FEF7DBFAE020FEF7DEFA4DF20E50ED
:10523000FEF7D4FA0120FEF7D7FA4DF20F50FEF731
:10524000CDFA0D20FEF7D0FA4DF21050FEF7C6FA57
:105250000120FEF7C9FA4DF21150FEF7BFFA2F20D8
:10526000FEF7C2FA4DF21250FEF7B8FA0120FEF72F
:10527000BBFA4DF21350FEF7B1FA6120FEF7B4FA13
:105280004DF21450FEF7AAFA0120FEF7ADFA4DF2E6
:105290001550FEF7A3FA8620FEF7A6FA4DF2165037
:1052A000FEF79CFA0120FEF79FFA4DF21750FEF729
:1052B00095FABD20FEF798FA4DF21850FEF78EFAD7
:1052C0000120FEF791FA4DF21950FEF787FAE72018
:1052D000FEF78AFA4DF21A50FEF780FA0120FEF727
:1052E00083FA4DF21B50FEF779FAE820FEF77CFABC
:1052F0004DF21C50FEF772FA0220FEF775FA4DF2DD
:105300001D50FEF76BFA0C20FEF76EFA4DF21E50A0
:10531000FEF764FA0220FEF767FA4DF21F50FEF71F
:105320005DFA3020FEF760FA4DF22050FEF756FA93
:105330000220FEF759FA4DF22150FEF74FFA4520B0
:10534000FEF752FA4DF22250FEF748FA0220FEF71D
:105350004BFA4DF22350FEF741FA6320FEF744FA70
:105360004DF22450FEF73AFA0220FEF73DFA4DF2D4
:105370002550FEF733FA7E20FEF736FA4DF226501E
:10538000FEF72CFA0220FEF72FFA4DF22750FEF717
:1053900025FAB120FEF728FA4DF22850FEF71EFA42
:1053A0000220FEF721FA4DF22950FEF717FAE0200D
:1053B000FEF71AFA4DF22A50FEF710FA0320FEF714
:1053C00013FA4DF22B50FEF709FA2620FEF70CFADD
:1053D0004DF22C50FEF702FA0320FEF705FA4DF2CB
:1053E0002D50FEF7FBF96020FEF7FEF94DF22E502E
:1053F000FEF7F4F90320FEF7F7F94DF22F50FEF710
:10540000EDF9B420FEF7F0F94DF23050FEF7E6F971
:105410000320FEF7E9F94DF23150FEF7DFF9B9202C
:10542000FEF7E2F94DF23250FEF7D8F90320FEF70D
:10543000DBF94DF23350FEF7D1F9C120FEF7D4F974
:105440004FF45640FEF7CAF90020FEF7CDF94DF2B1
:105450000160FEF7C3F93720FEF7C6F94DF202608E
:10546000FEF7BCF90020FEF7BFF94DF20360FEF72E
:10547000B5F94920FEF7B8F94DF20460FEF7AEF930
:105480000020FEF7B1F94DF20560FEF7A7F96B2099
:10549000FEF7AAF94DF20660FEF7A0F90020FEF72C
:1054A000A3F94DF20760FEF799F98620FEF79CF903
:1054B0004DF20860FEF792F90020FEF795F94DF2E3
:1054C0000960FEF78BF99D20FEF78EF94DF20A6018
:1054D000FEF784F90020FEF787F94DF20B60FEF726
:1054E0007DF9C320FEF780F94DF20C60FEF776F9E6
:1054F0000020FEF779F94DF20D60FEF76FF9E0201C
:10550000FEF772F94DF20E60FEF768F90120FEF722
:105510006BF94DF20F60FEF761F90D20FEF764F9AB
:105520004DF21060FEF75AF90120FEF75DF94DF2D9
:105530001160FEF753F92F20FEF756F94DF2126075
:10554000FEF74CF90120FEF74FF94DF21360FEF71C
:1055500045F96120FEF748F94DF21460FEF73EF977
:105560000120FEF741F94DF21560FEF737F986206C
:10557000FEF73AF94DF21660FEF730F90120FEF71A
:1055800033F94DF21760FEF729F9BD20FEF72CF92B
:105590004DF21860FEF722F90120FEF725F94DF2D1
:1055A0001960FEF71BF9E720FEF71EF94DF21A60AD
:1055B000FEF714F90120FEF717F94DF21B60FEF714
:1055C0000DF9E820FEF710F94DF21C60FEF706F920
:1055D0000220FEF709F94DF21D60FEF7FFF80C20DE
:1055E000FEF702F94DF21E60FEF7F8F80220FEF712
:1055F000FBF84DF21F60FEF7F1F83020FEF7F4F8EB
:105600004DF22060FEF7EAF80220FEF7EDF84DF2C9
:105610002160FEF7E3F84520FEF7E6F84DF2226040
:10562000FEF7DCF80220FEF7DFF84DF22360FEF70C
:10563000D5F86320FEF7D8F84DF22460FEF7CEF8D7
:105640000220FEF7D1F84DF22560FEF7C7F87E2064
:10565000FEF7CAF84DF22660FEF7C0F80220FEF70A
:10566000C3F84DF22760FEF7B9F8B120FEF7BCF899
:105670004DF22860FEF7B2F80220FEF7B5F84DF2C1
:105680002960FEF7ABF8E020FEF7AEF84DF22A6095
:10569000FEF7A4F80320FEF7A7F84DF22B60FEF703
:1056A0009DF82620FEF7A0F84DF22C60FEF796F844
:1056B0000320FEF799F84DF22D60FEF78FF8602079
:1056C000FEF792F84DF22E60FEF788F80320FEF701
:1056D0008BF84DF22F60FEF781F8B420FEF784F8C6
:1056E0004DF23060FEF77AF80320FEF77DF84DF2B8
:1056F0003160FEF773F8B920FEF776F84DF23260AC
:10570000FEF76CF80320FEF76FF84DF23360FEF7FA
:1057100065F8C120FEF768F84FF47040FEF75EF8B8
:105720005520FEF761F84FF20100FEF757F8AA2066
:10573000FEF75AF84FF20200FEF750F85220FEF73B
:1057400053F84FF20300FEF749F80820FEF74CF833
:105750004FF20400FEF742F80020FEF745F84FF440
:105760003540FEF73BF85020FEF73EF84FF431404D
:10577000FEF734F8CC20FEF737F84FF43640FEF74A
:105780002DF80220FEF730F84FF43840FEF726F8E7
:105790000120FEF729F84BF60100FEF71FF8032061
:1057A000FEF722F84BF60200FEF718F80320FEF78A
:1057B0001BF84BF60300FEF711F80320FEF714F870
:1057C0004FF43C40FEF70AF80520FEF70DF84BF6C3
:1057D0000140FEF703F80520FEF706F84BF60240FD
:1057E000FDF7FCFF0520FDF7FFFF4BF60250FDF72C
:1057F000F5FF0720FDF7F8FF4BF60350FDF7EEFF2E
:105800003120FDF7F1FF4BF60260FDF7E7FF0720BF
:10581000FDF7EAFF4BF60360FDF7E0FF3120FDF7EF
:10582000E3FF4BF60270FDF7D9FF0720FDF7DCFF21
:105830004BF60360FDF7D2FF3120FDF7D5FF4FF4A3
:105840007F40FDF7CBFFAA20FDF7CEFF4FF601709A
:10585000FDF7C4FF5520FDF7C7FF4FF60270FDF7B7
:10586000BDFF2520FDF7C0FF4FF60370FDF7B6FF23
:105870000120FDF7B9FF4FF20630FDF7AFFF102012
:10588000FDF7B2FF4FF20840FDF7A8FF0020FDF73B
:10589000ABFF4FF45850FDF7A1FFC020FDF7A4FF68
:1058A0004FF45450FDF79AFF0020FDF79DFF4FF491
:1058B0006850FDF793FF0520FDF796FF4FF48850E1
:1058C000FDF78CFF782000F082FB4FF42450FDF7A9
:1058D00085FF322000F07BFB0020FDF73BFD4FF6FB
:1058E000FF70FDF71DFD10BD10B50248FDF7FAF978
:1058F00010BD0000E800002010B50748007801281E
:1059000008D10648FDF7D4FC0448FDF78FFC0020C1
:105910000149087010BD00001D0000201802002081
:1059200010B50268294B98420ED0B0F1804F0BD0D1
:10593000274B984208D0274B984205D0264B9842D7
:1059400002D0264B984203D122F070024B681A43D2
:105950001E4B984220D0B0F1804F1DD01C4B984276
:105960001AD01C4B984217D01B4B984214D01B4B9B
:10597000984211D01A4B98420ED01A4B98420BD035
:10598000194B984208D0194B984205D0184B9842B1
:1059900002D0184B984203D122F44072CB681A43CC
:1059A00022F080034C6943EA040202608B68C36200
:1059B0000B688362054B984202D0084B984201D194
:1059C0000B6903630123436110BD00000000014027
:1059D0000004004000080040000C004000040140AA
:1059E00000400140004401400048014000180040D0
:1059F000001C00400020004070B50546AC6B002044
:105A0000E085E0842046FDF748FA70BD0168C9686A
:105A100021F490710268D1600168496921F00101A7
:105A200002685161202180F83A10704710B5044691
:105A30002068C06820F040002168C860202084F8F9
:105A400039002046FDF7E4FB002010BD70B5044688
:105A500094F83A0022284AD1A068B0F5805F13D1AB
:105A6000A56A206940B920684068C0F30800288012
:105A7000A06A801CA06219E020684068C0B228803B
:105A8000A06A401CA06211E0206938B92068406813
:105A9000C1B2A26A501CA062117007E02068406881
:105AA00000F07F01A26A501CA0621170E08D401EC0
:105AB00080B2E085C8B92068C06820F02000216865
:105AC000C8602068C06820F480702168C8602068C1
:105AD000406920F0010021684861202084F83A00E4
